:020000040800F2
:10000000005000205D0E0008650D00086D0D000811
:10001000750D00087D0D0008850D0008000000002A
:100020000000000000000000000000008D0D00082E
:10003000990D000800000000A50D0008B10D000892
:10004000A50E0008A50E0008A50E0008A50E0008C4
:10005000A50E0008A50E0008A50E0008A50E0008B4
:10006000A50E0008A50E0008A50E0008A50E0008A4
:10007000A50E0008A50E0008A50E0008A50E000894
:10008000A50E0008A50E0008A50E0008A50E000884
:10009000BD0D0008A50E0008A50E0008A50E00085D
:1000A000A50E0008A50E0008A50E0008D10D000839
:1000B000E50D0008A50E0008A50E0008A50E000815
:1000C000A50E0008A50E0008A50E0008A50E000844
:1000D000A50E0008A50E0008A50E0008A50E000834
:1000E000A50E0008A50E0008A50E000800000000DF
:1000F0000000000000000000000000000000000000
:0C01000000000000000000005FF808F1A3
:10010C0080F0004002E000BF81F0004142001FBFC0
:10011C005FEA410392EA030F7FEA226C7FEA236CC9
:10012C006AD04FEA1262D2EB1363C1BFD2184140BE
:10013C0048404140B8BF5B42192B88BF704710F054
:10014C00004F40F4000020F07F4018BF404211F0F7
:10015C00004F41F4000121F07F4118BF494292EA5F
:10016C00030F3FD0A2F1010241FA03FC10EB0C008B
:10017C00C3F1200301FA03F100F0004302D5494218
:10018C0060EB4000B0F5000F13D3B0F1807F06D3C5
:10019C0040084FEA310102F10102FE2A51D2B1F1BD
:1001AC00004F40EBC25008BF20F0010040EA0300B2
:1001BC007047490040EB0000013A28BFB0F5000F32
:1001CC00EDD2B0FA80FCACF1080CB2EB0C0200FAE8
:1001DC000CF0AABF00EBC25052421843BCBFD04037
:1001EC001843704792F0000F81F4000106BF80F4B1
:1001FC0000000132013BB5E74FEA41037FEA226C74
:10020C0018BF7FEA236C21D092EA030F04D092F03E
:10021C00000F08BF0846704790EA010F1CBF002072
:10022C00704712F07F4F04D1400028BF40F00040CF
:10023C00704712F100723CBF00F50000704700F0EF
:10024C00004343F0FE4040F4000070477FEA226216
:10025C0016BF08467FEA23630146420206BF5FEAE7
:10026C00412390EA010F40F4800070474FF00003E7
:10027C0004E000BF10F0004348BF40425FEA000CAE
:10028C0008BF704743F0964301464FF000001CE056
:10029C0050EA010208BF70474FF000030AE000BFAC
:1002AC0050EA010208BF704711F0004302D54042EA
:1002BC0061EB41015FEA010C02BF8446014600205C
:1002CC0043F0B64308BFA3F18053A3F50003BCFA77
:1002DC008CF2083AA3EBC25310DB01FA02FC634424
:1002EC0000FA02FCC2F12002BCF1004F20FA02F22B
:1002FC0043EB020008BF20F00100704702F120021E
:10030C0001FA02FCC2F1200250EA4C0021FA02F27E
:10031C0043EB020008BF20EADC7070474FF0FF0C83
:10032C001CEAD0521EBF1CEAD15392EA0C0F93EA7E
:10033C000C0F6FD01A4480EA010C400218BF5FEA20
:10034C0041211ED04FF0006343EA501043EA511193
:10035C00A0FB01310CF00040B1F5000F3EBF49008D
:10036C0041EAD3715B0040EA010062F17F02FD2A91
:10037C001DD8B3F1004F40EBC25008BF20F0010074
:10038C00704790F0000F0CF0004C08BF49024CEA8B
:10039C00502040EA51207F3AC2BFD2F1FF0340EA1D
:1003AC00C250704740F400004FF00003013A5DDC8E
:1003BC0012F1190FDCBF00F000407047C2F10002CF
:1003CC00410021FA02F1C2F1200200FA02FC5FEABC
:1003DC00310040F1000053EA4C0308BF20EADC7006
:1003EC00704792F0000F00F0004C02BF400010F478
:1003FC00000F013AF9D040EA0C0093F0000F01F025
:10040C00004C02BF490011F4000F013BF9D041EA46
:10041C000C018FE70CEAD15392EA0C0F18BF93EA48
:10042C000C0F0AD030F0004C18BF31F0004CD8D172
:10043C0080EA010000F00040704790F0000F17BFF9
:10044C0090F0004F084691F0000F91F0004F14D03F
:10045C0092EA0C0F01D142020FD193EA0C0F03D197
:10046C004B0218BF084608D180EA010000F000409A
:10047C0040F0FE4040F40000704740F0FE4040F475
:10048C00400070474FF0FF0C1CEAD0521EBF1CEA14
:10049C00D15392EA0C0F93EA0C0F69D0A2EB030232
:1004AC0080EA010C49024FEA402037D04FF08053CC
:1004BC0043EA111143EA10130CF000408B4238BF91
:1004CC005B0042F17D024FF4000C8B4224BF5B1A9F
:1004DC0040EA0C00B3EB510F24BFA3EB510340EAED
:1004EC005C00B3EB910F24BFA3EB910340EA9C009B
:1004FC00B3EBD10F24BFA3EBD10340EADC001B010B
:10050C0018BF5FEA1C1CE0D1FD2A3FF650AF8B42AE
:10051C0040EBC25008BF20F0010070470CF0004CBB
:10052C004CEA50207F32C2BFD2F1FF0340EAC250E6
:10053C00704740F400004FF00003013A37E792F0A7
:10054C00000F00F0004C02BF400010F4000F013A05
:10055C00F9D040EA0C0093F0000F01F0004C02BF00
:10056C00490011F4000F013BF9D041EA0C0195E769
:10057C000CEAD15392EA0C0F08D142027FF47DAF02
:10058C0093EA0C0F7FF470AF084676E793EA0C0FF2
:10059C0004D14B023FF44CAF08466EE730F0004CF0
:1005AC0018BF31F0004CCAD130F000427FF45CAF80
:1005BC0031F000437FF43CAF5FE700BF4FF0FF3CEE
:1005CC0006E000BF4FF0010C02E000BF4FF0010C41
:1005DC004DF804CD4FEA40024FEA41037FEA226C0A
:1005EC0018BF7FEA236C11D001B052EA530C18BF2C
:1005FC0090EA010F58BFB2EB030088BFC81738BF91
:10060C006FEAE17018BF40F0010070477FEA226C7E
:10061C0002D15FEA402C05D17FEA236CE4D15FEA7A
:10062C00412CE1D05DF8040B704700BF84460846AE
:10063C006146FFE70FB5FFF7C9FF002848BF10F16F
:10064C00000F0FBD4DF808EDFFF7F4FF0CBF0120B4
:10065C0000205DF808FB00BF4DF808EDFFF7EAFF3E
:10066C0034BF012000205DF808FB00BF4DF808EDF9
:10067C00FFF7E0FF94BF012000205DF808FB00BFEE
:10068C004DF808EDFFF7D2FF94BF012000205DF874
:10069C0008FB00BF4DF808EDFFF7C8FF34BF012081
:1006AC0000205DF808FB00BF4FEA4002B2F1FE4F9C
:1006BC000FD34FF09E03B3EB12620DD94FEA002318
:1006CC0043F0004310F0004F23FA02F018BF4042F1
:1006DC0070474FF00000704712F1610F01D14202D8
:1006EC0005D110F0004008BF6FF0004070474FF08C
:1006FC00000070470348044B834202D0034B03B104
:10070C001847704738000020380000200000000017
:10071C000548064B1B1AD90F01EBA301491002D057
:10072C00034B03B1184770473800002038000020F5
:10073C000000000010B5064C237843B9FFF7DAFF30
:10074C00044B13B10448AFF300800123237010BD98
:10075C0038000020000000009473000808B5054B19
:10076C001BB105490548AFF30080BDE80840FFF711
:10077C00CFBF00BF000000003C00002094730008B5
:10078C0080B500AF01F018FA00F018F800F064F82A
:10079C0000F050F900F020FA00F09EF804F0FEFF93
:1007AC0004F02AF805F012F803F045FC04F0AAFD59
:1007BC0004F03CFC04F078F800BFF9E780B590B089
:1007CC0000AF07F1180328220021184606F0A2FDFD
:1007DC003B1D00221A605A609A60DA601A6102238B
:1007EC00BB610123BB621023FB6202237B630023EA
:1007FC00BB634FF46013FB6307F11803184601F059
:10080C0061FA0346002B01D000F01AF80F237B602D
:10081C000223BB600023FB604FF480633B61002329
:10082C007B613B1D0221184601F0CEFC0346002BD8
:10083C0001D000F005F800BF4037BD4680BD000078
:10084C0080B500AF72B600BF0249002006F04AFD29
:10085C00FAE700BFAC73000880B586B000AF07F1B3
:10086C00080300221A605A609A60DA60184B9B6980
:10087C00174A43F004039361154B9B6903F004037F
:10088C007B607B68124B9B69114A43F008039361B0
:10089C000F4B9B6903F008033B603B6801224FF44C
:1008AC0080710C4801F071FF4FF48073BB60012321
:1008BC00FB6000233B6101237B6107F108031946B0
:1008CC00044801F0DDFD00BF1837BD4680BD00BFF8
:1008DC0000100240000C014080B58AB000AF294BDB
:1008EC00294A1A60274B08225A60264B00229A602C
:1008FC00244B0022DA60234B4FF480221A61214BE7
:10090C004FF480125A611F4B00221A761D4B0122A4
:10091C005A761C4B00229A761A4B0022DA76194B27
:10092C0000221A77174B00225A77164800F0BBFAB0
:10093C000346002B01D0FFF783FF00237B610023CC
:10094C00BB610123FB6100233B6000237B60002320
:10095C00BB600023FB6000233B6101233B6200234F
:10096C007B623B461946074800F098FB022105487C
:10097C0000F0DAFE034800F05AFC00BF2837BD46F1
:10098C0080BD00BF540000200064004080B588B0DA
:10099C0000AF786007F1100300221A605A609A6069
:1009AC00DA607B681B68204A934239D11F4BDB69A4
:1009BC001E4A43F00073D3611C4BDB6903F00073D8
:1009CC00FB60FB68194B9B69184A43F00403936165
:1009DC00164B9B6903F00403BB60BB684FF40063C8
:1009EC003B6100237B610023BB6107F110031946B7
:1009FC000F4801F045FD4FF480533B6102237B61AE
:100A0C000323FB6107F110031946094801F038FD77
:100A1C0000220021142001F0C6FF142001F0DFFF9A
:100A2C0000BF2037BD4680BD00640040001002406E
:100A3C000008014080B596B000AF07F148030022D2
:100A4C001A605A609A60DA6007F1400300221A605B
:100A5C005A6007F1240300221A605A609A60DA6027
:100A6C001A615A619A613B1D20220021184606F03A
:100A7C0051FC574B574A1A60554B00225A60544B45
:100A8C0020229A60524B40F23F62DA60504B0022B7
:100A9C001A614F4B00225A614D4B80229A614C488F
:100AAC0002F0B8F90346002B01D0FFF7C9FE4FF452
:100ABC008053BB6407F148031946454802F092FD88
:100ACC000346002B01D0FFF7BBFE414802F09CFA15
:100ADC000346002B01D0FFF7B3FE3D4802F03CFA71
:100AEC000346002B01D0FFF7ABFE00233B64002331
:100AFC007B6407F140031946354803F00FF90346B0
:100B0C00002B01D0FFF79CFE60237B620023BB62AD
:100B1C000023FB6200233B6300237B630023BB6346
:100B2C000023FB6307F1240300221946284802F036
:100B3C00A3FC0346002B01D0FFF782FE07F1240330
:100B4C0004221946224802F097FC0346002B01D0E0
:100B5C00FFF776FE07F12403082219461C4802F021
:100B6C008BFC0346002B01D0FFF76AFE00237B624F
:100B7C0040F25D13BB6207F124030C2219461448A2
:100B8C0002F02CFC0346002B01D0FFF759FE00238A
:100B9C007B600023BB600023FB6000233B610023D0
:100BAC007B614FF40053BB6100233B623B1D194634
:100BBC00074803F011F90346002B01D0FFF740FE64
:100BCC00034800F095F800BF5837BD4680BD00BF04
:100BDC007C000020002C014080B586B000AF07F1EE
:100BEC00080300221A605A609A60DA603B460022C1
:100BFC001A605A601D4B4FF080421A601B4B40F23A
:100C0C007F225A60194B00229A60184B1822DA6026
:100C1C00164B00221A61154B00229A61134802F000
:100C2C00F9F80346002B01D0FFF70AFE4FF480536E
:100C3C00BB6007F1080319460C4802F0D3FC0346CD
:100C4C00002B01D0FFF7FCFD00233B6000237B60F1
:100C5C003B461946054803F061F80346002B01D0CA
:100C6C00FFF7EEFD00BF1837BD4680BDC400002065
:100C7C0080B584B000AF78607B681B681A4A9342D9
:100C8C0014D11A4B9B69194A43F400639361174BB7
:100C9C009B6903F40063FB60FB68002200211B20AE
:100CAC0001F081FE1B2001F09AFE18E07B681B68A6
:100CBC00B3F1804F13D10D4BDB690C4A43F00103A8
:100CCC00D3610A4BDB6903F00103BB60BB680022F4
:100CDC0001211C2001F067FE1C2001F080FE00BFEA
:100CEC001037BD4680BD00BF002C014000100240F3
:100CFC0080B588B000AF786007F1100300221A604D
:100D0C005A609A60DA607B681B68104A934218D16B
:100D1C000F4B9B690E4A43F0040393610C4B9B6988
:100D2C0003F00403FB60FB684FF4E0633B610223B8
:100D3C007B610223FB6107F110031946054801F0A2
:100D4C009FFB00BF2037BD4680BD00BF002C01407B
:100D5C00001002400008014080B400AF00BFFDE766
:100D6C0080B400AF00BFFDE780B400AF00BFFDE76B
:100D7C0080B400AF00BFFDE780B400AF00BFFDE75B
:100D8C0080B400AF00BFBD4680BC704780B400AFDC
:100D9C0000BFBD4680BC704780B400AF00BFBD46ED
:100DAC0080BC704780B500AF00F04CFF00BF80BD29
:100DBC0080B500AF024800F0DCFC00BF80BD00BF76
:100DCC005400002080B500AF024802F017FA00BFB3
:100DDC0080BD00BF7C00002080B500AF024802F04F
:100DEC000DFA00BF80BD00BFC400002080B485B0E8
:100DFC0000AF154B9B69144A43F001039361124BEE
:100E0C009B6903F00103BB60BB680F4BDB690E4AA7
:100E1C0043F08053D3610C4BDB6903F080537B6050
:100E2C007B680A4B5B68FB60FB6823F0E063FB604C
:100E3C00FB6843F00073FB60044AFB68536000BF1F
:100E4C001437BD4680BC70470010024000000140C2
:100E5C0000F023F80B480C490C4A002302E0D4584C
:100E6C00C4500433C4188C42F9D3094A094C0023EA
:100E7C0001E013600432A242FBD306F053FAFFF7F1
:100E8C007FFC70470000002038000020C080000864
:100E9C0038000020BC080020FEE780B400AF00BF83
:100EAC00BD4680BC704780B584B000AF78607B686D
:100EBC00002B01D10123EDE07B6893F82030DBB2ED
:100ECC00002B02D17868FFF761FD7B681B681A68FC
:100EDC007B681B6842F001021A6000F0C5FEF860E6
:100EEC0012E000F0C1FE0246FB68D31A0A2B0BD9A4
:100EFC007B685B6A43F400327B685A627B6805222C
:100F0C0083F820200123C5E07B681B685B6803F035
:100F1C000103002BE5D07B681B681A687B681B6893
:100F2C0022F002021A6000F09FFEF86012E000F05E
:100F3C009BFE0246FB68D31A0A2B0BD97B685B6AB3
:100F4C0043F400327B685A627B68052283F82020C8
:100F5C0001239FE07B681B685B6803F00203002B96
:100F6C00E5D17B681B7E012B08D17B681B681A6856
:100F7C007B681B6842F080021A6007E07B681B6884
:100F8C001A687B681B6822F080021A607B685B7EA3
:100F9C00012B08D17B681B681A687B681B6842F0C0
:100FAC0040021A6007E07B681B681A687B681B6844
:100FBC0022F040021A607B689B7E012B08D17B6873
:100FCC001B681A687B681B6842F020021A6007E0F5
:100FDC007B681B681A687B681B6822F020021A6009
:100FEC007B68DB7E012B08D17B681B681A687B68E9
:100FFC001B6822F010021A6007E07B681B681A68F5
:10100C007B681B6842F010021A607B681B7F012B07
:10101C0008D17B681B681A687B681B6842F0080261
:10102C001A6007E07B681B681A687B681B6822F0F3
:10103C0008021A607B685B7F012B08D17B681B68F8
:10104C001A687B681B6842F004021A6007E07B6830
:10105C001B681A687B681B6822F004021A607B68A4
:10106C009A687B68DB681A437B681B691A437B6848
:10107C005B6942EA03017B685B685A1E7B681B68EC
:10108C000A43DA617B6800225A627B68012283F88A
:10109C002020002318461037BD4680BD80B487B091
:1010AC0000AF786039607B681B687B617B6893F864
:1010BC002030FB74FB7C012B03D0FB7C022B40F01B
:1010CC00AA807B69D3F8003243F001027B69C3F834
:1010DC0000223B685B6903F01F03012202FA03F351
:1010EC00FB607B69D3F81C22FB68DB431A407B69ED
:1010FC00C3F81C223B68DB69002B23D17B69D3F836
:10110C000C22FB68DB431A407B69C3F80C223B685A
:10111C00DB6819043B685B689BB23A6852691943F7
:10112C007B69483243F832103B689B6819043B6872
:10113C001B689AB23B685B690A4379694833DB00E8
:10114C000B445A603B68DB69012B22D17B69D3F8D5
:10115C000C22FB681A437B69C3F80C223B681B68A2
:10116C0019043B685B689BB23A68526919437B6906
:10117C00483243F832103B689B6819043B68DB68C3
:10118C009AB23B685B690A4379694833DB000B44CC
:10119C005A603B689B69002B09D17B69D3F8042208
:1011AC00FB68DB431A407B69C3F8042207E07B69C8
:1011BC00D3F80422FB681A437B69C3F804223B680A
:1011CC001B69002B09D17B69D3F81422FB68DB4324
:1011DC001A407B69C3F8142207E07B69D3F8142208
:1011EC00FB681A437B69C3F814223B681B6A012B0A
:1011FC0007D17B69D3F81C22FB681A437B69C3F8BF
:10120C001C227B69D3F8003223F001027B69C3F8FE
:10121C000022002306E07B685B6A43F480227B6833
:10122C005A62012318461C37BD4680BC704780B5F6
:10123C0084B000AF78607B6893F82030DBB2012B70
:10124C002ED17B68022283F820207B681B681A68E9
:10125C007B681B6822F001021A6000F005FDF86043
:10126C0012E000F001FD0246FB68D31A0A2B0BD9E1
:10127C007B685B6A43F400327B685A627B680522A8
:10128C0083F82020012312E07B681B685B6803F065
:10129C000103002BE5D17B6800225A62002306E093
:1012AC007B685B6A43F400227B685A620123184610
:1012BC001037BD4680BD80B584B000AF78607B68C8
:1012CC0093F82030DBB2022B33D17B681B681A6891
:1012DC007B681B6842F001021A6000F0C5FCF860E4
:1012EC0012E000F0C1FC0246FB68D31A0A2B0BD9A2
:1012FC007B685B6A43F400327B685A627B68052228
:10130C0083F8202001231BE07B681B685B6803F0DB
:10131C000103002BE5D07B681B681A687B681B688F
:10132C0022F002021A607B68012283F8202000233D
:10133C0006E07B685B6A43F480127B685A62012387
:10134C0018461037BD4680BD80B489B000AFF86038
:10135C00B9607A603B60FB6893F82030FB77FB68E0
:10136C001B689B68BB61FB7F012B03D0FB7F022BAF
:10137C0040F0AD80BB6903F08063002B0AD1BB69E0
:10138C0003F00063002B05D1BB6903F08053002BE5
:10139C0000F09580BB691B0E03F003037B610122F7
:1013AC007B699A403B681A60BB689B68002B0DD127
:1013BC00BB681B685A05BB68DB68F96809681A4387
:1013CC007B6918331B010B441A600FE0BB685B6828
:1013DC00DA00BB689B681A43BB68DB68F96809686C
:1013EC001A437B6918331B010B441A60FB6819689C
:1013FC00BB681A697B6918331B010B4404331A60F0
:10140C00BB681B7D012B11D1FB681A687B691833F3
:10141C001B01134404331B68FA68116843F480728F
:10142C007B6918331B010B4404331A607B68073348
:10143C001B781A067B6806331B781B041A437B68DF
:10144C0005331B781B0213437A680432127810465A
:10145C00FA68116843EA00027B691B010B4403F52F
:10146C00C6731A607B6803331B781A067B680233D9
:10147C001B781B041A437B6801331B781B02134334
:10148C007A6812781046FA68116843EA00027B69A0
:10149C001B010B4403F5C4731A60FB681A687B6963
:1014AC0018331B0113441B68FA68116843F00102DE
:1014BC007B6918331B010B441A6000230EE0FB6898
:1014CC005B6A43F40012FB685A62012306E0FB6876
:1014DC005B6A43F48022FB685A6201231846243766
:1014EC00BD4680BC704780B487B000AFF860B9606F
:1014FC007A603B60FB6893F82030FB75FB7D012B19
:10150C0003D0FB7D022B40F00381BB68002B0ED176
:10151C00FB681B68DB6803F00303002B16D1FB6828
:10152C005B6A43F40012FB685A620123F7E0FB6824
:10153C001B681B6903F00303002B07D1FB685B6A74
:10154C0043F40012FB685A620123E8E0FB681A6856
:10155C00BB681B331B0113441B6803F004027B683C
:10156C009A607B689B68002B0CD1FB681A68BB687F
:10157C001B331B0113441B685B0DC3F30A027B680E
:10158C001A600BE0FB681A68BB681B331B01134421
:10159C001B68DB0823F060427B685A60FB681A68A2
:1015AC00BB681B331B0113441B6803F002027B68EE
:1015BC00DA60FB681A68BB681B331B0113440433E5
:1015CC001B6803F00803002B03D07B6808221A6108
:1015DC000BE0FB681A68BB681B331B011344043314
:1015EC001B6803F00F027B681A61FB681A68BB6802
:1015FC001B331B01134404331B681B0ADAB27B68D0
:10160C009A61FB681A68BB681B331B0113440433D3
:10161C001B681B0C9AB27B685A61FB681A68BB6822
:10162C001B01134403F5DC731B68DAB23B681A70B8
:10163C00FB681A68BB681B01134403F5DC731B6859
:10164C001A0A3B680133D2B21A70FB681A68BB687D
:10165C001B01134403F5DC731B681A0C3B68023343
:10166C00D2B21A70FB681A68BB681B01134403F5ED
:10167C00DC731B681A0E3B680333D2B21A70FB681A
:10168C001A68BB681B01134403F5DE731A683B68C8
:10169C000433D2B21A70FB681A68BB681B0113447E
:1016AC0003F5DE731B681A0A3B680533D2B21A7055
:1016BC00FB681A68BB681B01134403F5DE731B68D7
:1016CC001A0C3B680633D2B21A70FB681A68BB68F6
:1016DC001B01134403F5DE731B681A0E3B680733BA
:1016EC00D2B21A70BB68002B08D1FB681B68DA6891
:1016FC00FB681B6842F02002DA6007E0FB681B689D
:10170C001A69FB681B6842F020021A61002306E08C
:10171C00FB685B6A43F48022FB685A62012318461B
:10172C001C37BD4680BC704780B485B000AF786074
:10173C0039607B6893F82030FB73FB7B012B02D064
:10174C00FB7B022B09D17B681B6859697B681B6882
:10175C003A680A435A61002306E07B685B6A43F4EB
:10176C0080227B685A62012318461437BD4680BC20
:10177C00704780B58AB000AF786000237B627B68CD
:10178C001B685B693B627B681B685B68FB617B6801
:10179C001B689B68BB617B681B68DB687B617B6833
:1017AC001B681B693B617B681B689B69FB603B6A20
:1017BC0003F00103002B7CD0BB6903F00103002B69
:1017CC0023D07B681B6801229A60BB6903F002037B
:1017DC00002B03D0786800F083F916E0BB6903F0A6
:1017EC000403002B04D07B6A43F400637B620CE09F
:1017FC00BB6903F00803002B04D07B6A43F48053CD
:10180C007B6202E0786800F086F9BB6903F48073B0
:10181C00002B24D07B681B684FF480729A60BB69E4
:10182C0003F40073002B03D0786800F062F916E023
:10183C00BB6903F48063002B04D07B6A43F4005330
:10184C007B620CE0BB6903F40063002B04D07B6A61
:10185C0043F480437B6202E0786800F065F9BB6971
:10186C0003F48033002B24D07B681B684FF4803248
:10187C009A60BB6903F40033002B03D0786800F046
:10188C0041F916E0BB6903F48023002B04D07B6A7A
:10189C0043F400437B620CE0BB6903F40023002B90
:1018AC0004D07B6A43F480337B6202E0786800F0FA
:1018BC0044F93B6A03F00803002B0CD07B6903F05E
:1018CC001003002B07D07B6A43F400737B627B68A8
:1018DC001B681022DA603B6A03F00403002B0BD068
:1018EC007B6903F00803002B06D07B681B68082279
:1018FC00DA60786800F02AF93B6A03F00203002BE7
:10190C0009D07B681B68DB6803F00303002B02D053
:10191C00786803F025FA3B6A03F04003002B0CD0E7
:10192C003B6903F01003002B07D07B6A43F4806300
:10193C007B627B681B6810221A613B6A03F02003F0
:10194C00002B0BD03B6903F00803002B06D07B68FF
:10195C001B6808221A61786800F00AF93B6A03F0E8
:10196C001003002B09D07B681B681B6903F0030371
:10197C00002B02D0786800F0F2F83B6A03F40033D5
:10198C00002B0BD0FB6903F01003002B06D07B68F7
:10199C001B6810225A60786800F0F3F83B6A03F475
:1019AC008033002B0BD0FB6903F00803002B06D00F
:1019BC007B681B6808225A60786800F0EBF83B6A79
:1019CC0003F40043002B7BD0FB6903F00403002BD2
:1019DC0072D03B6A03F48073002B08D0FB6803F0D1
:1019EC000103002B03D07B6A43F001037B623B6A4B
:1019FC0003F40073002B08D0FB6803F00203002BE8
:101A0C0003D07B6A43F002037B623B6A03F480637E
:101A1C00002B08D0FB6803F00403002B03D07B6A77
:101A2C0043F004037B623B6A03F40063002B43D056
:101A3C00FB6803F07003002B3ED0FB6803F07003CF
:101A4C00602B2BD0602B2ED8502B22D0502B2AD889
:101A5C00402B19D0402B26D8302B10D0302B22D82D
:101A6C00102B02D0202B05D01DE07B6A43F008031D
:101A7C007B6219E07B6A43F010037B6214E07B6AA3
:101A8C0043F020037B620FE07B6A43F040037B62F0
:101A9C000AE07B6A43F080037B6205E07B6A43F4D7
:101AAC0080737B6200E000BF7B681B689A697B686F
:101ABC001B6822F070029A617B681B6804225A60D2
:101ACC007B6A002B08D07B685A6A7B6A1A437B6856
:101ADC005A62786800F067F800BF2837BD4680BDB1
:101AEC0080B483B000AF786000BF0C37BD4680BCBB
:101AFC00704780B483B000AF786000BF0C37BD4630
:101B0C0080BC704780B483B000AF786000BF0C37E6
:101B1C00BD4680BC704780B483B000AF786000BF16
:101B2C000C37BD4680BC704780B483B000AF786082
:101B3C0000BF0C37BD4680BC704780B483B000AF8B
:101B4C00786000BF0C37BD4680BC704780B483B052
:101B5C0000AF786000BF0C37BD4680BC704780B4C6
:101B6C0083B000AF786000BF0C37BD4680BC7047B7
:101B7C0080B483B000AF786000BF0C37BD4680BC2A
:101B8C00704780B483B000AF786000BF0C37BD469F
:101B9C0080BC704780B483B000AF786000BF0C3756
:101BAC00BD4680BC704780B483B000AF786000BF86
:101BBC000C37BD4680BC704780B500AF084B1B6826
:101BCC00074A43F010031360032000F0E1FE0F20DE
:101BDC0000F008F8FFF70AF90023184680BD00BF93
:101BEC000020024080B582B000AF7860124B1A68BA
:101BFC00124B1B7819464FF47A73B3FBF1F3B2FB1B
:101C0C00F3F3184600F0F9FE0346002B01D0012334
:101C1C000EE07B680F2B0AD8002279684FF0FF305A
:101C2C0000F0C1FE064A7B681360002300E001232C
:101C3C0018460837BD4680BD000000200800002073
:101C4C000400002080B400AF054B1B781A46054BEE
:101C5C001B681344034A136000BFBD4680BC704729
:101C6C00080000200C01002080B400AF024B1B6860
:101C7C001846BD4680BC70470C01002080B584B06E
:101C8C0000AF7860FFF7F0FFB8607B68FB60FB6823
:101C9C00B3F1FF3F05D00A4B1B781A46FB6813447F
:101CAC00FB6000BFFFF7E0FF0246BB68D31AFA687F
:101CBC009A42F7D800BF00BF1037BD4680BD00BFA9
:101CCC000800002080B586B000AF78607B68002BE0
:101CDC0001D1012372E27B681B6803F00103002B26
:101CEC0000F08780924B5B6803F00C03042B0CD044
:101CFC008F4B5B6803F00C03082B12D18C4B5B6889
:101D0C0003F48033B3F5803F0BD1894B1B6803F48C
:101D1C000033002B6CD07B685B68002B68D10123EF
:101D2C004CE27B685B68B3F5803F06D1804B1B6847
:101D3C007F4A43F4803313602EE07B685B68002B92
:101D4C000CD17B4B1B687A4A23F480331360784B9D
:101D5C001B68774A23F4802313601DE07B685B6863
:101D6C00B3F5A02F0CD1724B1B68714A43F480233E
:101D7C0013606F4B1B686E4A43F4803313600BE0A7
:101D8C006B4B1B686A4A23F480331360684B1B68E7
:101D9C00674A23F4802313607B685B68002B13D0A5
:101DAC00FFF762FF386108E0FFF75EFF02463B6910
:101DBC00D31A642B01D9032300E25D4B1B6803F497
:101DCC000033002BF0D014E0FFF74EFF386108E031
:101DDC00FFF74AFF02463B69D31A642B01D9032350
:101DEC00ECE1534B1B6803F40033002BF0D100E003
:101DFC0000BF7B681B6803F00203002B63D04C4BC5
:101E0C005B6803F00C03002B0BD0494B5B6803F0B1
:101E1C000C03082B1CD1464B5B6803F48033002B5E
:101E2C0016D1434B1B6803F00203002B05D07B68D3
:101E3C001B69012B01D00123C0E13D4B1B6823F032
:101E4C00F8027B685B69DB00394913430B603AE0AD
:101E5C007B681B69002B20D0364B01221A60FFF7E0
:101E6C0003FF386108E0FFF7FFFE02463B69D31A17
:101E7C00022B01D90323A1E12D4B1B6803F00203B4
:101E8C00002BF0D02A4B1B6823F0F8027B685B69AF
:101E9C00DB00274913430B6015E0264B00221A6028
:101EAC00FFF7E2FE386108E0FFF7DEFE02463B6911
:101EBC00D31A022B01D9032380E11D4B1B6803F0BD
:101ECC000203002BF0D17B681B6803F00803002B86
:101EDC003AD07B689B69002B19D0174B01221A60F2
:101EEC00FFF7C2FE386108E0FFF7BEFE02463B6911
:101EFC00D31A022B01D9032360E10D4B5B6A03F06B
:101F0C000203002BF0D0012000F09CFA1CE00A4BDD
:101F1C0000221A60FFF7A8FE38610FE0FFF7A4FE5D
:101F2C0002463B69D31A022B08D9032346E100BFB2
:101F3C00001002400000424280044242924B5B6A15
:101F4C0003F00203002BE9D17B681B6803F0040348
:101F5C00002B00F0A6800023FB758B4BDB6903F094
:101F6C008053002B0DD1884BDB69874A43F080539B
:101F7C00D361854BDB6903F08053BB60BB680123E5
:101F8C00FB75824B1B6803F48073002B18D17F4BBD
:101F9C001B687E4A43F480731360FFF765FE38615B
:101FAC0008E0FFF761FE02463B69D31A642B01D9A6
:101FBC00032303E1754B1B6803F48073002BF0D0F3
:101FCC007B68DB68012B06D16F4B1B6A6E4A43F0B2
:101FDC00010313622DE07B68DB68002B0CD16A4B8C
:101FEC001B6A694A23F001031362674B1B6A664A3A
:101FFC0023F0040313621CE07B68DB68052B0CD117
:10200C00614B1B6A604A43F0040313625E4B1B6A0C
:10201C005D4A43F0010313620BE05B4B1B6A5A4AA7
:10202C0023F001031362584B1B6A574A23F0040335
:10203C0013627B68DB68002B15D0FFF715FE386147
:10204C000AE0FFF711FE02463B69D31A41F28832CF
:10205C00934201D90323B1E04B4B1B6A03F00203FB
:10206C00002BEED014E0FFF7FFFD38610AE0FFF71C
:10207C00FBFD02463B69D31A41F28832934201D9E7
:10208C0003239BE0404B1B6A03F00203002BEED1B1
:10209C00FB7D012B05D13C4BDB693B4A23F0805384
:1020AC00D3617B68DB69002B00F08780364B5B6863
:1020BC0003F00C03082B61D07B68DB69022B46D143
:1020CC00334B00221A60FFF7CFFD386108E0FFF7B1
:1020DC00CBFD02463B69D31A022B01D903236DE0D9
:1020EC00294B1B6803F00073002BF0D17B681B6A33
:1020FC00B3F5803F08D1244B5B6823F400327B6836
:10210C009B68214913434B601F4B5B6823F474128B
:10211C007B68196A7B685B6A0B431B4913434B60F2
:10212C001B4B01221A60FFF79FFD386108E0FFF797
:10213C009BFD02463B69D31A022B01D903233DE0D8
:10214C00114B1B6803F00073002BF0D035E0104BE3
:10215C0000221A60FFF788FD386108E0FFF784FD64
:10216C0002463B69D31A022B01D9032326E0064B06
:10217C001B6803F00073002BF0D11EE07B68DB6959
:10218C00012B07D1012319E0001002400070004020
:10219C00600042420B4B5B68FB60FB6803F48032CF
:1021AC007B681B6A9A4206D1FB6803F470127B6849
:1021BC005B6A9A4201D0012300E0002318461837CD
:1021CC00BD4680BD0010024080B584B000AF786081
:1021DC0039607B68002B01D10123D0E06A4B1B686E
:1021EC0003F007033A689A4210D9674B1B6823F037
:1021FC00070265493B6813430B60634B1B6803F094
:10220C0007033A689A4201D00123B8E07B681B6847
:10221C0003F00203002B20D07B681B6803F004033F
:10222C00002B05D0594B5B68584A43F4E06353606C
:10223C007B681B6803F00803002B05D0534B5B68CD
:10224C00524A43F460535360504B5B6823F0F002E6
:10225C007B689B684D4913434B607B681B6803F09C
:10226C000103002B40D07B685B68012B07D1474BE7
:10227C001B6803F40033002B15D101237FE07B682E
:10228C005B68022B07D1414B1B6803F00073002BDA
:10229C0009D1012373E03D4B1B6803F00203002BB3
:1022AC0001D101236BE0394B5B6823F003027B689F
:1022BC005B68364913434B60FFF7D6FCF8600AE0C5
:1022CC00FFF7D2FC0246FB68D31A41F288329342E4
:1022DC0001D9032353E02D4B5B6803F00C027B68A0
:1022EC005B689B009A42EBD1274B1B6803F00703FA
:1022FC003A689A4210D2244B1B6823F007022249F9
:10230C003B6813430B60204B1B6803F007033A68D0
:10231C009A4201D0012332E07B681B6803F004036E
:10232C00002B08D0194B5B6823F4E0627B68DB68F8
:10233C00164913434B607B681B6803F00803002BA2
:10234C0009D0124B5B6823F460527B681B69DB007D
:10235C000E4913434B6000F021F802460B4B5B68AF
:10236C001B0903F00F030A49CB5C22FA03F3094A59
:10237C001360094B1B681846FFF734FC0023184602
:10238C001037BD4680BD00BF002002400010024047
:10239C0004740008000000200400002080B487B002
:1023AC0000AF0023FB600023BB6000237B61002394
:1023BC007B6000233B611E4B5B68FB60FB6803F09A
:1023CC000C03042B02D0082B03D027E0194B3B61E4
:1023DC0027E0FB689B0C03F00F03174AD35C7B6070
:1023EC00FB6803F48033002B10D0114B5B685B0C43
:1023FC0003F00103114AD35CBB607B680D4A03FBFD
:10240C0002F2BB68B2FBF3F37B6104E07B680C4A1D
:10241C0002FB03F37B617B693B6102E0054B3B6193
:10242C0000BF3B6918461C37BD4680BC704700BFD7
:10243C000010024000127A00147400082474000882
:10244C0000093D0080B485B000AF78600A4B1B6872
:10245C000A4AA2FB03235B0A7A6802FB03F3FB60C4
:10246C0000BFFB685A1EFA60002BF9D100BF00BFF9
:10247C001437BD4680BC704700000020D34D62105D
:10248C0080B48BB000AF7860396000237B6200238E
:10249C003B6253E101227B6A02FA03F37B613B68E6
:1024AC001B687A6913403B613A697B699A4240F038
:1024BC0042813B685B688F4A934247D08D4A934276
:1024CC005ED88D4A934241D08B4A934258D88B4A5E
:1024DC0093423BD0894A934252D8894A934235D091
:1024EC00874A93424CD8874A93422FD0854A9342CD
:1024FC0046D8854A934229D0834A934240D8122B1E
:10250C001FD0122B3CD8112B11D0112B38D8032BE8
:10251C0033D0032B34D8022B0ED0022B30D8002B07
:10252C0014D0012B2CD13B68DB683B6229E03B6863
:10253C00DB6804333B6224E03B68DB6808333B62B6
:10254C001FE03B68DB680C333B621AE03B689B681E
:10255C00002B02D104233B6213E03B689B68012BE8
:10256C0005D108233B627B687A691A6109E008236C
:10257C003B627B687A695A6103E000233B6200E0AE
:10258C0000BF3B69FF2B02D87B68FB6102E07B68D4
:10259C000433FB613B69FF2B03D87B6A9B00BB6157
:1025AC0003E07B6A083B9B00BB61FB691A680F2147
:1025BC00BB6901FA03F3DB431A40396ABB6901FAC0
:1025CC0003F31A43FB691A603B685B6803F08053A2
:1025DC00002B00F0B0804D4B9B694C4A43F001033B
:1025EC0093614A4B9B6903F00103BB60BB68484A8B
:1025FC007B6A9B08023352F82330FB607B6A03F042
:10260C0003039B000F2202FA03F3DB43FA68134027
:10261C00FB607B683F4A934213D07B683E4A9342EF
:10262C000DD07B683D4A934207D07B683C4A93426D
:10263C0001D1032306E0042304E0022302E001237A
:10264C0000E000237A6A02F0030292009340FA68D9
:10265C001343FB602E497B6A9B080233FA6841F8EE
:10266C0023203B685B6803F48013002B06D02D4BB2
:10267C009A682C493B6913438B6006E0294B9A6896
:10268C003B69DB43274913408B603B685B6803F471
:10269C000013002B06D0234BDA6822493B69134305
:1026AC00CB6006E01F4BDA683B69DB431D491340E6
:1026BC00CB603B685B6803F40033002B06D0194BEE
:1026CC005A6818493B6913434B6006E0154B5A682E
:1026DC003B69DB43134913404B603B685B6803F475
:1026EC008033002B20D00F4B1A680E493B691343E3
:1026FC000B6020E0000032100000311000002210AE
:10270C0000002110000012100000111000100240F7
:10271C000000014000080140000C01400010014085
:10272C0000140140000401400B4B1A683B69DB4369
:10273C00094913400B607B6A01337B623B681A6862
:10274C007B6A22FA03F3002B7FF4A4AE00BF00BF18
:10275C002C37BD4680BC70470004014080B485B066
:10276C0000AF78600B467B807B689A687B8813404F
:10277C00002B02D00123FB7301E00023FB73FB7BD6
:10278C0018461437BD4680BC704780B483B000AF88
:10279C0078600B467B8013467B707B78002B03D0D4
:1027AC007A887B681A6103E07B881A047B681A615B
:1027BC0000BF0C37BD4680BC704780B485B000AFFD
:1027CC0078600B467B807B68DB68FB607A88FB68F3
:1027DC0013401A04FB68D9437B880B401A437B686F
:1027EC001A6100BF1437BD4680BC704780B485B0F9
:1027FC0000AF78607B6803F00703FB600C4BDB6871
:10280C00BB60BA684FF6FF031340BB60FB681A024B
:10281C00BB68134343F0BF6343F40033BB60044A0B
:10282C00BB68D36000BF1437BD4680BC704700BF87
:10283C0000ED00E080B400AF044BDB681B0A03F032
:10284C0007031846BD4680BC704700BF00ED00E092
:10285C0080B483B000AF0346FB7197F90730002BAF
:10286C000BDBFB7903F01F02064997F907305B0974
:10287C00012000FA02F241F8232000BF0C37BD46BC
:10288C0080BC704700E100E080B483B000AF034629
:10289C003960FB7197F90730002B0ADB3B68DAB221
:1028AC000C4997F907301201D2B20B4483F800237C
:1028BC000AE03B68DAB20849FB7903F00F03043BEA
:1028CC001201D2B20B441A7600BF0C37BD4680BC45
:1028DC00704700BF00E100E000ED00E080B489B07B
:1028EC0000AFF860B9607A60FB6803F007037B61A6
:1028FC007B69033B042B04D87B69C3F10703FB61A1
:10290C0001E00423FB617B690433062B03D97B694B
:10291C00033BBB6101E00023BB614FF0FF32FB695D
:10292C0002FA03F3DA43BB681A40BB699A404FF0D2
:10293C00FF31BB6901FA03F3D9437B680B401343A6
:10294C0018462437BD4680BC7047000080B582B065
:10295C0000AF78607B68013BB3F1807F01D301232A
:10296C000FE00A4A7B68013B53600F214FF0FF30A8
:10297C00FFF78AFF054B00229A60044B07221A606E
:10298C00002318460837BD4680BD00BF10E000E0AC
:10299C0080B582B000AF78607868FFF727FF00BF82
:1029AC000837BD4680BD80B586B000AF0346B96020
:1029BC007A60FB7300237B61FFF73CFF78617A68D8
:1029CC00B9687869FFF78AFF024697F90F3011460C
:1029DC001846FFF759FF00BF1837BD4680BD80B5BC
:1029EC0082B000AF0346FB7197F907301846FFF72A
:1029FC002FFF00BF0837BD4680BD80B582B000AF49
:102A0C0078607868FFF7A2FF034618460837BD4682
:102A1C0080BD0000F0B587B000AFF860B960C7E9C1
:102A2C0000230123FB750023BB7500237B752F4B03
:102A3C001B7E012B01D1022354E02C4B01221A7670
:102A4C004CF2503000F0A8F80346FB75FB7D002BD0
:102A5C0044D1FB68012B02D101237B7507E0FB6895
:102A6C00022B02D102237B7501E004237B7500232A
:102A7C00BB752DE0BB7D5A00BB6802EB030CBB7D24
:102A8C001901D7E90023C1F12006A1F1200022FA97
:102A9C0001F403FA06F6344323FA00F0044323FA54
:102AAC0001F5A3B21946604600F05AF84CF25030CA
:102ABC0000F072F80346FB750D4B1B690C4A23F0B2
:102ACC0001031361FB7D002B07D1BB7D0133BB756B
:102ADC00BA7D7B7D9A42CDD300E000BF034B002230
:102AEC001A76FB7D18461C37BD46F0BD1001002040
:102AFC000020024080B483B000AF0023FB710D4B6B
:102B0C001B6903F08003002B0DD00A4B0A4A5A6054
:102B1C00084B0A4A5A60074B1B6903F08003002BD1
:102B2C0001D00123FB71FB7918460C37BD4680BCE4
:102B3C00704700BF0020024023016745AB89EFCDF1
:102B4C0080B400AF054B1B69044A43F0800313614A
:102B5C0000231846BD4680BC704700BF00200240D1
:102B6C0080B483B000AF78600B467B80084B0022AA
:102B7C00DA61084B1B69074A43F0010313617B6858
:102B8C007A881A8000BF0C37BD4680BC704700BFE6
:102B9C00100100200020024080B584B000AF7860A6
:102BAC00FFF762F8F86010E07B68B3F1FF3F0CD0E0
:102BBC007B68002B07D0FFF757F80246FB68D31A47
:102BCC007A689A4201D2032325E0154BDB6803F0A7
:102BDC000103002BE8D1124BDB6803F02003002B20
:102BEC0002D00F4B2022DA600D4BDB6803F0100390
:102BFC00002B0BD10A4BDB6903F00103002B05D131
:102C0C00074BDB6803F00403002B03D000F00AF839
:102C1C00012300E0002318461037BD4680BD00BFDD
:102C2C000020024080B483B000AF00237B60234BB4
:102C3C00DB6803F01003002B09D0214BDB6943F058
:102C4C0002031F4AD3617B6843F010037B601B4B6C
:102C5C00DB6803F00403002B09D0194BDB6943F04C
:102C6C000103174AD3617B6843F004037B60134B69
:102C7C00DB6903F00103002B0BD0114BDB6943F034
:102C8C0004030F4AD3610D4BDB690C4A23F001039B
:102C9C00D3617B6840F20112934206D1074BDB698A
:102CAC00064A23F00103D36102E0044A7B68D36037
:102CBC0000BF0C37BD4680BC704700BF00200240EF
:102CCC001001002080B584B000AF7860396001231A
:102CDC00FB730023BB602F4B1B7E012B01D1022306
:102CEC0053E02C4B01221A767B681B68022B16D101
:102CFC004CF25030FFF750FF0346002B41D101201E
:102D0C0000F04CF84CF25030FFF746FF0346FB73D3
:102D1C00214B1B69204A23F00403136131E04CF270
:102D2C005030FFF739FF0346002B2AD13B684FF098
:102D3C00FF321A607B689B68BB6019E0B86800F0D2
:102D4C0049F84CF25030FFF727FF0346FB73124B48
:102D5C001B69114A23F002031361FB7B002B03D088
:102D6C003B68BA681A600CE0BB6803F58063BB6013
:102D7C007B68DB689A027B689B681344BA689A424A
:102D8C00DCD3044B00221A76FB7B18461037BD4669
:102D9C0080BD00BF100100200020024080B483B031
:102DAC0000AF7860094B0022DA61094B1B69084AB5
:102DBC0043F004031361064B1B69054A43F04003BF
:102DCC00136100BF0C37BD4680BC7047100100205A
:102DDC000020024080B483B000AF78600B4B00221F
:102DEC00DA610B4B1B690A4A43F002031361084A70
:102DFC007B685361064B1B69054A43F04003136122
:102E0C0000BF0C37BD4680BC704700BF10010020CE
:102E1C000020024080B582B000AF78607B68002B48
:102E2C0001D1012341E07B6893F83D30DBB2002BEC
:102E3C0006D17B68002283F83C207868FDF718FFE8
:102E4C007B68022283F83D207B681A687B68043318
:102E5C001946104600F0B2FC7B68012283F846202C
:102E6C007B68012283F83E207B68012283F83F2097
:102E7C007B68012283F840207B68012283F8412083
:102E8C007B68012283F842207B68012283F843206F
:102E9C007B68012283F844207B68012283F845205B
:102EAC007B68012283F83D20002318460837BD4675
:102EBC0080BD000080B485B000AF78607B6893F86B
:102ECC003D30DBB2012B01D001233AE07B680222BA
:102EDC0083F83D207B681B68DA687B681B6842F0CE
:102EEC000102DA607B681B68184A93420ED07B683B
:102EFC001B68B3F1804F09D07B681B68144A93425E
:102F0C0004D07B681B68134A934211D17B681B6801
:102F1C009B6803F00703FB60FB68062B10D07B68F3
:102F2C001B681A687B681B6842F001021A6007E094
:102F3C007B681B681A687B681B6842F001021A6088
:102F4C00002318461437BD4680BC7047002C014046
:102F5C00000400400008004080B582B000AF7860EB
:102F6C007B68002B01D1012341E07B6893F83D3055
:102F7C00DBB2002B06D17B68002283F83C207868FA
:102F8C0000F039F87B68022283F83D207B681A68D0
:102F9C007B6804331946104600F010FC7B68012254
:102FAC0083F846207B68012283F83E207B6801224F
:102FBC0083F83F207B68012283F840207B68012244
:102FCC0083F841207B68012283F842207B68012230
:102FDC0083F843207B68012283F844207B6801221C
:102FEC0083F845207B68012283F83D200023184696
:102FFC000837BD4680BD80B483B000AF786000BF99
:10300C000C37BD4680BC704780B582B000AF78608D
:10301C007B68002B01D1012341E07B6893F83D30A4
:10302C00DBB2002B06D17B68002283F83C20786849
:10303C0000F039F87B68022283F83D207B681A681F
:10304C007B6804331946104600F0B8FB7B680122FC
:10305C0083F846207B68012283F83E207B6801229E
:10306C0083F83F207B68012283F840207B68012293
:10307C0083F841207B68012283F842207B6801227F
:10308C0083F843207B68012283F844207B6801226B
:10309C0083F845207B68012283F83D2000231846E5
:1030AC000837BD4680BD80B483B000AF786000BFE8
:1030BC000C37BD4680BC704780B584B000AF7860DB
:1030CC0039603B68002B09D17B6893F83E30DBB24A
:1030DC00012B14BF01230023DBB222E03B68042B3D
:1030EC0009D17B6893F83F30DBB2012B14BF01236D
:1030FC000023DBB215E03B68082B09D17B6893F801
:10310C004030DBB2012B14BF01230023DBB208E0FB
:10311C007B6893F84130DBB2012B14BF01230023F1
:10312C00DBB2002B01D001235EE03B68002B04D105
:10313C007B68022283F83E2013E03B68042B04D109
:10314C007B68022283F83F200BE03B68082B04D1FC
:10315C007B68022283F8402003E07B68022283F81C
:10316C0041207B681B6801223968184600F0B2FDCB
:10317C007B681B681E4A934207D17B681B685A6C9C
:10318C007B681B6842F400425A647B681B68184ACF
:10319C0093420ED07B681B68B3F1804F09D07B68DB
:1031AC001B68144A934204D07B681B68124A9342F2
:1031BC0011D17B681B689B6803F00703FB60FB68FD
:1031CC00062B10D07B681B681A687B681B6842F062
:1031DC0001021A6007E07B681B681A687B681B6831
:1031EC0042F001021A60002318461037BD4680BD1C
:1031FC00002C0140000400400008004080B584B061
:10320C0000AF78607B681B68DB68FB607B681B68C1
:10321C001B69BB60BB6803F00203002B20D0FB686A
:10322C0003F00203002B1BD07B681B686FF00202BB
:10323C001A617B6801221A777B681B689B6903F013
:10324C000303002B03D0786800F09CFA05E0786843
:10325C0000F08FFA786800F09EFA7B6800221A77EB
:10326C00BB6803F00403002B20D0FB6803F00403BD
:10327C00002B1BD07B681B686FF004021A617B6803
:10328C0002221A777B681B689B6903F44073002B3E
:10329C0003D0786800F076FA05E0786800F069FAF7
:1032AC00786800F078FA7B6800221A77BB6803F024
:1032BC000803002B20D0FB6803F00803002B1BD065
:1032CC007B681B686FF008021A617B6804221A770E
:1032DC007B681B68DB6903F00303002B03D0786861
:1032EC0000F050FA05E0786800F043FA786800F0D6
:1032FC0052FA7B6800221A77BB6803F01003002B8C
:10330C0020D0FB6803F01003002B1BD07B681B68DC
:10331C006FF010021A617B6808221A777B681B68B1
:10332C00DB6903F44073002B03D0786800F02AFAB1
:10333C0005E0786800F01DFA786800F02CFA7B68DC
:10334C0000221A77BB6803F00103002B0CD0FB683A
:10335C0003F00103002B07D07B681B686FF00102A0
:10336C001A61786802F08EF8BB6803F08003002BBA
:10337C000CD0FB6803F08003002B07D07B681B6824
:10338C006FF080021A61786800F080FDBB6803F072
:10339C004003002B0CD0FB6803F04003002B07D03C
:1033AC007B681B686FF040021A61786800F0FCF9CA
:1033BC00BB6803F02003002B0CD0FB6803F0200348
:1033CC00002B07D07B681B686FF020021A617868AD
:1033DC0000F053FD00BF1037BD4680BD80B586B0F0
:1033EC0000AFF860B9607A600023FB75FB6893F856
:1033FC003C30012B01D102233AE0FB68012283F817
:10340C003C207B680C2B24D07B680C2B28D87B6849
:10341C00082B17D07B68082B22D87B68002B03D095
:10342C007B68042B07D01BE0FB681B68B968184647
:10343C0000F032FA17E0FB681B68B968184600F018
:10344C0091FA10E0FB681B68B968184600F0F4FAB2
:10345C0009E0FB681B68B968184600F057FB02E0EE
:10346C000123FB7500BFFB68002283F83C20FB7D29
:10347C0018461837BD4680BD80B586B000AFF860E1
:10348C00B9607A600023FB75FB6893F83C30012B24
:10349C0001D10223A2E0FB68012283F83C207B6867
:1034AC000C2B72D07B680C2B00F290807B68082B65
:1034BC004BD07B68082B00F289807B68002B03D0F3
:1034CC007B68042B20D081E0FB681B68B968184628
:1034DC0000F0E2F9FB681B689A69FB681B6842F014
:1034EC0008029A61FB681B689A69FB681B6822F0EA
:1034FC0004029A61FB681B689969BB681A69FB68CE
:10350C001B680A439A6164E0FB681B68B96818463B
:10351C0000F028FAFB681B689A69FB681B6842F488
:10352C0000629A61FB681B689A69FB681B6822F44D
:10353C0080629A61FB681B689969BB681B691A02F7
:10354C00FB681B680A439A6143E0FB681B68B96817
:10355C00184600F071FAFB681B68DA69FB681B6897
:10356C0042F00802DA61FB681B68DA69FB681B68C9
:10357C0022F00402DA61FB681B68D969BB681A691E
:10358C00FB681B680A43DA6123E0FB681B68B968B7
:10359C00184600F0BBFAFB681B68DA69FB681B680D
:1035AC0042F40062DA61FB681B68DA69FB681B682D
:1035BC0022F48062DA61FB681B68D969BB681B69FD
:1035CC001A02FB681B680A43DA6102E00123FB75EF
:1035DC0000BFFB68002283F83C20FB7D184618379F
:1035EC00BD4680BD80B584B000AF786039600023E3
:1035FC00FB737B6893F83C30012B01D10223B4E0C0
:10360C007B68012283F83C207B68022283F83D20F2
:10361C007B681B689B68BB60BB6823F07703BB604F
:10362C00BB6823F47F43BB607B681B68BA689A60F5
:10363C003B681B68B3F5005F3ED0B3F5005F00F24A
:10364C008780B3F5805F00F08680B3F5805F7FD80C
:10365C00702B1AD0702B7BD8602B50D0602B77D866
:10366C00502B3CD0502B73D8402B58D0402B6FD8BC
:10367C00302B64D0302B6BD8202B60D0202B67D80C
:10368C00002B5CD0102B5AD062E07B6818683B682A
:10369C0099683B685A683B68DB6800F0FCFA7B6809
:1036AC001B689B68BB60BB6843F07703BB607B689F
:1036BC001B68BA689A604FE07B6818683B68996829
:1036CC003B685A683B68DB6800F0E5FA7B681B686E
:1036DC009A687B681B6842F480429A603CE07B6885
:1036EC0018683B6859683B68DB681A4600F05CFA5E
:1036FC007B681B685021184600F0B3FA2CE07B68FD
:10370C0018683B6859683B68DB681A4600F07AFA1F
:10371C007B681B686021184600F0A3FA1CE07B68EC
:10372C0018683B6859683B68DB681A4600F03CFA3D
:10373C007B681B684021184600F093FA0CE07B680C
:10374C001A683B681B681946104600F08AFA03E0B9
:10375C000123FB7300E000BF7B68012283F83D204E
:10376C007B68002283F83C20FB7B18461037BD4653
:10377C0080BD80B483B000AF786000BF0C37BD460D
:10378C0080BC704780B483B000AF786000BF0C374A
:10379C00BD4680BC704780B483B000AF786000BF7A
:1037AC000C37BD4680BC704780B483B000AF7860E6
:1037BC0000BF0C37BD4680BC7047000080B485B09C
:1037CC0000AF786039607B681B68FB607B682F4AB0
:1037DC0093420BD07B68B3F1804F07D07B682C4AA7
:1037EC00934203D07B682B4A934208D1FB6823F0A9
:1037FC007003FB603B685B68FA681343FB607B6893
:10380C00224A93420BD07B68B3F1804F07D07B6880
:10381C001F4A934203D07B681E4A934208D1FB682F
:10382C0023F44073FB603B68DB68FA681343FB606E
:10383C00FB6823F080023B685B691343FB607B6889
:10384C00FA681A603B689A687B68DA623B681A68A7
:10385C007B689A627B680D4A934203D13B681A6974
:10386C007B681A637B6801225A617B681B6903F0D1
:10387C000103002B05D07B681B6923F001027B68D8
:10388C001A6100BF1437BD4680BC7047002C014044
:10389C00000400400008004080B487B000AF78609E
:1038AC0039607B681B6A7B617B681B6A23F00102B1
:1038BC007B681A627B685B683B617B689B69FB6019
:1038CC00FB6823F07003FB60FB6823F00303FB60D1
:1038DC003B681B68FA681343FB607B6923F00203A7
:1038EC007B613B689B687A6913437B617B681C4AEC
:1038FC0093420CD17B6923F008037B613B68DB6846
:10390C007A6913437B617B6923F004037B617B68D9
:10391C00134A934211D13B6923F480733B613B6999
:10392C0023F400733B613B685B693A6913433B6169
:10393C003B689B693A6913433B617B683A695A60FF
:10394C007B68FA689A613B685A687B685A637B6843
:10395C007A691A6200BF1C37BD4680BC704700BF35
:10396C00002C014080B487B000AF786039607B6870
:10397C001B6A7B617B681B6A23F010027B681A62EE
:10398C007B685B683B617B689B69FB60FB6823F42D
:10399C00E043FB60FB6823F44073FB603B681B68EF
:1039AC001B02FA681343FB607B6923F020037B61E5
:1039BC003B689B681B017A6913437B617B681D4ADA
:1039CC0093420DD17B6923F080037B613B68DB68FC
:1039DC001B017A6913437B617B6923F040037B6194
:1039EC007B68144A934213D13B6923F480633B6197
:1039FC003B6923F400633B613B685B699B003A695C
:103A0C0013433B613B689B699B003A6913433B61E1
:103A1C007B683A695A607B68FA689A613B685A68B5
:103A2C007B689A637B687A691A6200BF1C37BD4653
:103A3C0080BC7047002C014080B487B000AF786028
:103A4C0039607B681B6A7B617B681B6A23F480721C
:103A5C007B681A627B685B683B617B68DB69FB6037
:103A6C00FB6823F07003FB60FB6823F00303FB602F
:103A7C003B681B68FA681343FB607B6923F4007393
:103A8C007B613B689B681B027A6913437B617B6893
:103A9C001D4A93420DD17B6923F400637B613B6823
:103AAC00DB681B027A6913437B617B6923F48063B7
:103ABC007B617B68144A934213D13B6923F4805396
:103ACC003B613B6923F400533B613B685B691B0121
:103ADC003A6913433B613B689B691B013A69134389
:103AEC003B617B683A695A607B68FA68DA613B68CB
:103AFC005A687B68DA637B687A691A6200BF1C3784
:103B0C00BD4680BC704700BF002C014080B487B01C
:103B1C0000AF786039607B681B6A3B617B681B6A0D
:103B2C0023F480527B681A627B685B687B617B68DC
:103B3C00DB69FB60FB6823F4E043FB60FB6823F468
:103B4C004073FB603B681B681B02FA681343FB6005
:103B5C003B6923F400533B613B689B681B033A6948
:103B6C0013433B617B680F4A934209D17B6923F471
:103B7C0080437B613B685B699B017A6913437B6182
:103B8C007B687A695A607B68FA68DA613B685A68C4
:103B9C007B681A647B683A691A6200BF1C37BD46A1
:103BAC0080BC7047002C014080B487B000AFF86037
:103BBC00B9607A60FB681B6A7B61FB681B6A23F047
:103BCC000102FB681A62FB689B693B613B6923F04D
:103BDC00F0033B617B681B013A6913433B617B69D2
:103BEC0023F00A037B617A69BB6813437B61FB6832
:103BFC003A699A61FB687A691A6200BF1C37BD4644
:103C0C0080BC704780B487B000AFF860B9607A6050
:103C1C00FB681B6A7B61FB681B6A23F01002FB6864
:103C2C001A62FB689B693B613B6923F470433B61FF
:103C3C007B681B033A6913433B617B6923F0A00348
:103C4C007B61BB681B017A6913437B61FB683A6932
:103C5C009A61FB687A691A6200BF1C37BD4680BC4A
:103C6C00704780B485B000AF786039607B689B6822
:103C7C00FB60FB6823F07003FB603A68FB6813433E
:103C8C0043F00703FB607B68FA689A6000BF143747
:103C9C00BD4680BC704780B487B000AFF860B96097
:103CAC007A603B60FB689B687B617B6923F47F4394
:103CBC007B613B681A027B681A43BB6813437A69C1
:103CCC0013437B61FB687A699A6000BF1C37BD4661
:103CDC0080BC704780B487B000AFF860B9607A6080
:103CEC00BB6803F01F03012202FA03F37B61FB683C
:103CFC001A6A7B69DB431A40FB681A62FB681A6A12
:103D0C00BB6803F01F03796801FA03F31A43FB68DD
:103D1C001A6200BF1C37BD4680BC704780B485B0AA
:103D2C0000AF786039607B6893F83C30012B01D18F
:103D3C00022346E07B68012283F83C207B68022248
:103D4C0083F83D207B681B685B68FB607B681B68A5
:103D5C009B68BB60FB6823F07003FB603B681B68CF
:103D6C00FA681343FB607B681B68FA685A607B68CF
:103D7C001B68164A93420ED07B681B68B3F1804FC8
:103D8C0009D07B681B68124A934204D07B681B687D
:103D9C00104A93420CD1BB6823F08003BB603B6894
:103DAC005B68BA681343BB607B681B68BA689A602F
:103DBC007B68012283F83D207B68002283F83C203D
:103DCC00002318461437BD4680BC7047002C0140B8
:103DDC00000400400008004080B485B000AF78605B
:103DEC0039600023FB607B6893F83C30012B01D1D8
:103DFC0002233DE07B68012283F83C20FB6823F022
:103E0C00FF023B68DB681343FB60FB6823F44072E2
:103E1C003B689B681343FB60FB6823F480623B6840
:103E2C005B681343FB60FB6823F400623B681B6810
:103E3C001343FB60FB6823F480523B681B691343FC
:103E4C00FB60FB6823F400523B685B691343FB6027
:103E5C00FB6823F480423B68DB691343FB607B689F
:103E6C001B68FA685A647B68002283F83C200023A4
:103E7C0018461437BD4680BC704780B483B000AF81
:103E8C00786000BF0C37BD4680BC704780B483B0EF
:103E9C0000AF786000BF0C37BD4680BC704780B562
:103EAC0084B000AF0346FB710023FB7307F10F02D4
:103EBC00F9790123362001F027FE0346002B01D1AE
:103ECC00FB7B00E0FF2318461037BD4680BD80B554
:103EDC0082B000AF03463960FB711346BB71BB79EE
:103EEC009BB2F9793A68362001F058FE0346184621
:103EFC000837BD4680BD80B582B000AF3B1D0222A5
:103F0C0019460C20FFF7E3FF0346002B0CD13B793D
:103F1C001BB21B021BB203F470631AB27B791BB287
:103F2C0013431BB29BB201E04FF6FF7318460837E0
:103F3C00BD4680BD80B500AFFFF7DDFF03461A46D6
:103F4C000C4B1A800B4B1B884FF6FF72934202D11D
:103F5C004FF0FF330CE0074B1B881A4643F6EF3348
:103F6C0002FB03F3044A82FB03121213DB17D31A6E
:103F7C00184680BD30010020AD8BDB6880B584B065
:103F8C0000AF78600B20FFF78AFF0346FB73FB7BC7
:103F9C00FF2B01D1012321E0FB7BDB08DBB203F01B
:103FAC000103D9B27A68137861F300031370FB7BB9
:103FBC001B09DBB203F00103D9B27A68137861F301
:103FCC0041031370FB7B5B09DBB203F00103D9B235
:103FDC007A68137861F38203137000231846103744
:103FEC00BD4680BD80B582B000AF3B1D1846FFF7C3
:103FFC00C5FF0346002B01D0FF2318E03B7903F0EB
:10400C000403DBB2002B11D03B7903F00103DBB2CC
:10401C00002B01D001230AE03B7903F00203DBB251
:10402C00002B01D0022302E0002300E003231846FA
:10403C000837BD4680BD80B582B000AF0B20FFF7BE
:10404C002EFF0346FB71FB79FF2B01D1012309E005
:10405C00FFF7C8FF0346BB71BB79002B01D00223CD
:10406C0000E0002318460837BD4680BD80B483B0FD
:10407C0000AF78607B68002B02D07B687F2B01D966
:10408C00102301E07B689BB218460C37BD4680BC00
:10409C007047000080B400AF044B1B8803F580739D
:1040AC009BB21846BD4680BC704700BF0A0000207A
:1040BC0080B400AF044B1B8803F5C0739BB2184649
:1040CC00BD4680BC704700BF0A00002080B400AF22
:1040DC00044B1B8803F500739BB21846BD4680BC8D
:1040EC00704700BF0A00002080B483B000AF786036
:1040FC0039603B68DAB27B681A703B681A127B68CD
:10410C000133D2B21A703B681A147B680233D2B2F4
:10411C001A703B681A167B680333D2B21A7000BF50
:10412C000C37BD4680BC704780B483B000AF78605C
:10413C007B681B781A467B6801331B781B021A4379
:10414C007B6802331B781B041A437B6803331B7890
:10415C001B06134318460C37BD4680BC7047000045
:10416C0080B58CB000AF03463960FB8013467B7181
:10417C0007F1180300221A605A609A60DA601A611B
:10418C005A6100237B6107F10C0300221A605A600C
:10419C007B79082B01D9012320E03B68002B09D047
:1041AC007B79002B06D07A7907F10C033968184615
:1041BC0003F0DCF8FB88BB610023FB6100233B624E
:1041CC0000237B627B79BB6207F1140307F10C02BD
:1041DC0007F118010348FDF7B7F8034618463037C6
:1041EC00BD4680BD5400002080B584B000AF3A605D
:1041FC001A460346FB710B46BB7113467B7107F1E4
:10420C00080300221A605A607B79062B01D9062319
:10421C007B71FB793B72BB797B723B68002B0AD0BC
:10422C007B79002B07D07A7907F1080302333968C0
:10423C00184603F09BF8FFF73BFF0346184607F1BF
:10424C00080308221946FFF78BFF00BF1037BD4645
:10425C0080BD80B584B000AF0346FB8007F1080336
:10426C0000221A605A6007F10803184600F0DAFDC4
:10427C00FB88FB6007F1080393E8030000F012FED3
:10428C0000BF1037BD4680BD80B584B000AF7860EC
:10429C0007F1080300221A605A6007F10803184658
:1042AC0000F0C0FD7B68BB6007F1080393E80300D6
:1042BC0000F0F8FD00BF1037BD4680BD80B58CB056
:1042CC0000AF3B1D28220021184603F023F8FFF70E
:1042DC00E1FE0346FB851A48FCF7EDFF0023BB61AA
:1042EC000023FB6101233B62FB8D5B019BB27B6076
:1042FC000023BB604FF6E073FB6006233B61002399
:10430C007B6101237B620E23BB623B1D19460C486B
:10431C00FCF7C4FE0346002B01D001230CE0022164
:10432C000748FDF701FA0346002B01D0012303E0F7
:10433C000348FCF77CFF034618463037BD4680BD6A
:10434C005400002090B58BB002AF03463960FB716E
:10435C004FF00003FB614FF00003BB614FF0000313
:10436C007B614FF000033B614FF00003FB6007F1F2
:10437C00100407F1140207F1180107F11C0007F1F2
:10438C000C030093234601F051F9FB79042B35D033
:10439C00042B39DC032B2BD0032B35DC022B1CD04C
:1043AC00022B31DC002B02D0012B0BD02CE0386817
:1043BC00FBF760FF03461C491846FCF763F80346FD
:1043CC00FB6123E03868FBF755FF03461649184696
:1043DC00FCF758F80346BB6118E03868FBF74AFF56
:1043EC00034611491846FCF74DF803467B610DE076
:1043FC003868FBF73FFF03463B6107E03868FBF783
:10440C0039FF0346FB6001E0022309E0F869B96952
:10441C007A693C69FB680093234601F0DBF80023C2
:10442C0018462437BD4690BD00007A4490B58BB039
:10443C0002AF03463960FB714FF00003FB614FF094
:10444C000003BB614FF000037B614FF000033B6145
:10445C004FF00003FB6007F1100407F1140207F1A1
:10446C00180107F11C0007F10C030093234601F01F
:10447C00DDF8FB79042B3DD0042B43DC032B31D02E
:10448C00032B3FDC022B20D0022B3BDC002B02D079
:10449C00012B0DD036E0FB691E491846FBF73EFF99
:1044AC0003461846FCF700F902463B681A602BE0FD
:1044BC00BB6918491846FBF731FF03461846FCF751
:1044CC00F3F802463B681A601EE07B6911491846F6
:1044DC00FBF724FF03461846FCF7E6F802463B6858
:1044EC001A6011E03B691846FCF7DEF802463B689F
:1044FC001A6009E0FB681846FCF7D6F802463B68E0
:10450C001A6001E0022300E0002318462437BD4660
:10451C0090BD00BF00007A4490B58BB002AF03464B
:10452C003960FB714FF00003FB614FF00003BB617E
:10453C004FF000037B614FF000033B614FF0000331
:10454C00FB6007F1100407F1140207F1180107F1E1
:10455C001C0007F10C030093234601F0DFF8FB79F4
:10456C00042B35D0042B39DC032B2BD0032B35DC5F
:10457C00022B1CD0022B31DC002B02D0012B0BD0D8
:10458C002CE03868FBF776FE03461C491846FBF70F
:10459C0079FF0346FB6123E03868FBF76BFE0346AB
:1045AC0016491846FBF76EFF0346BB6118E03868E6
:1045BC00FBF760FE034611491846FBF763FF034601
:1045CC007B610DE03868FBF755FE03463B6107E065
:1045DC003868FBF74FFE0346FB6001E0022309E05D
:1045EC00F869B9697A693C69FB680093234601F064
:1045FC0069F8002318462437BD4690BD00007A4464
:10460C0090B58BB002AF03463960FB714FF00003DD
:10461C00FB614FF00003BB614FF000037B614FF077
:10462C0000033B614FF00003FB6007F1100407F13E
:10463C00140207F1180107F11C0007F10C03009399
:10464C00234601F06BF8FB79042B3DD0042B43DCA3
:10465C00032B31D0032B3FDC022B20D0022B3BDC75
:10466C00002B02D0012B0DD036E0FB691E491846F9
:10467C00FBF754FE03461846FCF716F802463B6857
:10468C001A602BE0BB6918491846FBF747FE034636
:10469C001846FCF709F802463B681A601EE07B6975
:1046AC0011491846FBF73AFE03461846FBF7FCFF88
:1046BC0002463B681A6011E03B691846FBF7F4FFB1
:1046CC0002463B681A6009E0FB681846FBF7ECFFF2
:1046DC0002463B681A6001E0022300E00023184602
:1046EC002437BD4690BD00BF00007A44B0B584B0FD
:1046FC0000AF786039600023FB731F4B1B78DBB273
:10470C000133DBB203F00703FB731C4B1B78DBB2EA
:10471C00FA7B9A4204D11A4B01221A70002327E02B
:10472C00154B1B78DBB21946164A0B46DB000B44C3
:10473C009B001A447B6814461D460FCD0FC495E8A8
:10474C00070084E807000C4B1B78DBB21A461346B3
:10475C00DB0013449B0018330A4A13440433082229
:10476C003968184602F002FE034AFB7B13700123E2
:10477C0018461037BD46B0BD54020020550200202B
:10478C005602002034010020B0B483B000AF786032
:10479C00164B1B78DAB2164B1B78DBB29A4201D15E
:1047AC0000231DE0114B1B78DBB219467868114AC7
:1047BC000B46DB000B449B00134404461D460FCDF7
:1047CC000FC40FCD0FC42B682360084B1B78DBB2D2
:1047DC000133DBB203F00703DAB2044B1A70012386
:1047EC0018460C37BD46B0BC704700BF55020020C0
:1047FC00540200203401002080B582B000AF3B464B
:10480C0000221A605A603B46184600F00BFB7B688E
:10481C001846FFF72BFC03461A46044B1A80FFF789
:10482C004DFD00BF0837BD4680BD00BF0A0000200B
:10483C0080B582B000AF3B4600221A605A608023DC
:10484C003B70184801F0F2FD02463B46013311461D
:10485C001846FFF749FCFFF739FC034618463B4660
:10486C0008221946FFF77CFC3B460822002118461B
:10487C0002F050FD81233B7000F018FF02463B46CE
:10488C00013311461846FFF72FFCFFF71FFC0346B8
:10489C0018463B4608221946FFF762FC00BF083752
:1048AC00BD4680BD5802002090B58FB004AF3B1DB3
:1048BC0024220021184602F02DFD0DE03B1D1C3377
:1048CC0003936C4607F1140393E8070084E8070090
:1048DC003B1D0FCB00F016F83B1D1846FFF754FF9D
:1048EC000346002BEAD1064B1B78DBB2002B02D01F
:1048FC00034B00221A7000BF2C37BD4690BD00BF81
:10490C005602002084B090B585B000AF07F12004AA
:10491C0084E80F003B1D00221A609A8000233B6044
:10492C000023FB733C6AFFF7B5FB03469C4240F047
:10493C000C823B6B002B06D10023002202210020AD
:10494C00FFF752FC04E2FB6B1B78312B00F0E0818B
:10495C00312B00F3EF81302B00F0C481302B00F3AE
:10496C00E981212B00F0B281212B00F3E381202B74
:10497C0000F07081202B00F3DD81132B00F04881B7
:10498C00132B00F3D781122B00F01981122B00F39B
:10499C00D181112B00F0F180112B00F3CB81102B66
:1049AC0000F0C280102B00F3C581042B68D0042BBF
:1049BC0000F3C081032B38D0032B00F3BB81012BF8
:1049CC0003D0022B00F08780B4E13B6B022B02D8A2
:1049DC000223FB73B1E1FB6B02331B78022B02D970
:1049EC000223FB73A9E1FB6B02331B78184600F022
:1049FC00DFFAFB6B01331B78002B04D10221B14889
:104A0C0001F0E5FD03E00121AE4801F0E0FDFB6B98
:104A1C005B783B71FB6B9B787B71FB6B18783A1D59
:104A2C00F97B0223FFF7E0FB92E13B6B042B02D8EE
:104A3C000223FB7381E100F0D5FA0346012B02D06F
:104A4C000323FB7379E1FB6B01331846FFF76CFB17
:104A5C0003463B603B681846FBF70CFC03461846C4
:104A6C0000F016FE3A683B1D11461846FFF73CFB5A
:104A7C00FB6B18783A1DF97B0423FFF7B5FB67E154
:104A8C003B6B042B02D80223FB7356E100F0AAFA0D
:104A9C000346022B02D00323FB734EE1FB6B013365
:104AAC001846FFF741FB03463B603B681846FBF793
:104ABC00E1FB0346184600F063FE3A683B1D1146C5
:104ACC001846FFF711FBFB6B18783A1DF97B042392
:104ADC00FFF78AFB3CE13B6B042B02D80223FB73F0
:104AEC002BE100F07FFA0346002B02D00323FB736B
:104AFC0023E1FB6B01331846FFF716FB03463B60C3
:104B0C003B68184600F05AFC03463B603A683B1D74
:104B1C0011461846FFF7E8FAFB6B18783A1DF97B3B
:104B2C000423FFF761FB13E13B6B052B02D8022337
:104B3C00FB7302E1FB6B02331846FFF7F5FA0346F1
:104B4C003B60FB6B01331B783A6811461846FFF744
:104B5C00F9FB0346FB73FB6B5B783B713A683B1DBF
:104B6C00013311461846FFF7BFFAFB6B18783A1D54
:104B7C00F97B0523FFF738FBEAE03B6B012B02D8EE
:104B8C000223FB73D9E0FB6B01331B783A461146C9
:104B9C001846FFF74BFC0346FB73FB6B5B783B71D2
:104BAC003A683B1D013311461846FFF79DFAFB6B23
:104BBC0018783A1DF97B0523FFF716FBC8E03B6B11
:104BCC00052B02D80223FB73B7E0FB6B02331846AC
:104BDC00FFF7AAFA03463B60FB6B01331B783A687C
:104BEC0011461846FFF798FC0346FB73FB6B5B788A
:104BFC003B713A683B1D013311461846FFF774FAB6
:104C0C00FB6B18783A1DF97B0523FFF7EDFA9FE053
:104C1C003B6B012B02D80223FB738EE0FB6B013341
:104C2C001B783A4611461846FFF7EAFC0346FB731D
:104C3C00FB6B5B783B713A683B1D013311461846A0
:104C4C00FFF752FAFB6B18783A1DF97B0523FFF737
:104C5C00CBFA7DE00023BB813B6B012B02D80223F6
:104C6C00FB736AE0FB6B01331B781846FFF7FEF908
:104C7C000346BB81FB6B01331B781A46BB899342FD
:104C8C0002D00223FB7358E0BB89DBB23B71FB6B98
:104C9C0018783A1DF97B0123FFF7A6FABB89184651
:104CAC00FFF7D7FA084ABB891380FFF707FB0346C7
:104CBC00002B4CD0FB6B1878002300220421FFF74B
:104CCC0093FA44E0580200200A000020234B1B8872
:104CDC00DBB23B71FB6B18783A1DF97B0123FFF7B4
:104CEC0083FA35E000F04AF903463B603B6818460E
:104CFC00FFF7CAFA3A683B1D11461846FFF7F4F95C
:104D0C00FB6B18783A1DF97B0423FFF76DFA1FE053
:104D1C0000F042F903463B603A683B1D11461846C9
:104D2C00FFF7E2F9FB6B18783A1DF97B0423FFF7C8
:104D3C005BFA0DE00123FB7300BFFB6B1878F97B6A
:104D4C0000230022FFF750FA02E000BF00E000BF92
:104D5C001437BD46BDE8904004B070470A000020EF
:104D6C0080B58CB000AF786007F1140300221A6094
:104D7C005A609A60DA601A615A619A6107F10C0301
:104D8C0000221A605A6007F10C0307F1140200218B
:104D9C007868FCF7A8FB0346002B07D107F10C023F
:104DAC0007F1140311461846FFF7A0FC00BF30377B
:104DBC00BD4680BD80B485B000AF786039600D4BC6
:104DCC0001229A600023FB6009E0FB689B007A6873
:104DDC001344084A1B681360FB680133FB60FA68D4
:104DEC003B689A42F1D3034B1B6818461437BD46F7
:104DFC0080BC70470030024080B485B000AF786052
:104E0C000023BB601023FB607B681A4607F1080384
:104E1C0093E8030082E8030078681437BD4680BC31
:104E2C007047000090B58BB000AFF8601C4B7B62F4
:104E3C00FB68002B01D100232DE0FC683B46184693
:104E4C00FFF7DAFF22463B4693E8030082E80300B3
:104E5C0007F110031022796A184602F087FA3B69B1
:104E6C00B3F1A53F01D0002315E007F11003022197
:104E7C001846FFF79FFF3862FB693A6A9A4209D1DC
:104E8C00FB681A4607F1140393E8030082E8030059
:104E9C00012300E0002318462C37BD4690BD00BF0F
:104EAC0000FC0008B0B58EB000AF3B4683E80300B1
:104EBC000023FB614FF0A5333B6207F124033A4614
:104ECC0092E8030083E803003B4602211846FFF7F3
:104EDC0071FF0346FB62FDF70DFE0023FB60184BD0
:104EEC007B610123BB6107F11C0207F10C03114626
:104EFC001846FDF7E7FE07F120033B6300237B63B5
:104F0C0015E07B6B03F1007303F57C5399007B6B0D
:104F1C009B003A6B13441B6800221C461546224624
:104F2C002B460220FDF776FD7B6B01337B637B6B9D
:104F3C00032BE6D9FDF704FE00BF3837BD46B0BDE4
:104F4C0000FC000880B483B000AF0346FB800B4626
:104F5C00BB8013467B80084B1B68FA885A63064B50
:104F6C001B68BA889A63044B1B687A88DA6300BFA3
:104F7C000C37BD4680BC70477C00002080B500AF6C
:104F8C00044B00221A70034801F0C8FA0346184675
:104F9C0080BD00BF5802002080B400AF034BD3F893
:104FAC008C301846BD4680BC704700BF58020020AC
:104FBC0080B582B000AF0346FB71084AFB791370D1
:104FCC00FB79002B06D1064B1B68002219460020EA
:104FDC0000F014FA00BF0837BD4680BD0C0000205D
:104FEC002C03002080B400AF024B1B781846BD4642
:104FFC0080BC70470C00002080B483B000AF786098
:10500C007B68B3F5004F02DB47F6FF7306E07B6865
:10501C0013F5004F01DC044B00E07B6818460C379D
:10502C00BD4680BC704700BF0180FFFF90B587B0C4
:10503C0000AF02237B8228233B82A023FB81002329
:10504C007B7300233B730023FB72A14B1B78002B5B
:10505C0001D1002337E19F4B1B8801339AB29D4B42
:10506C001A809C4B1B887A8AB3FBF2F101FB02F28B
:10507C009B1A9BB2002B0CBF01230023DBB27B736A
:10508C00944B1B883A8AB3FBF2F101FB02F29B1A98
:10509C009BB2002B0CBF01230023DBB23B738D4B67
:1050AC001B88FA89B3FBF2F101FB02F29B1A9BB24B
:1050BC00002B0CBF01230023DBB2FB727B7B002B8C
:1050CC0000F0B380844801F027F9834801F0AEF971
:1050DC000146824B1B781A4689B2814B23F8121079
:1050EC00804B1B78002B4CD17C4B1B78002B04D1B4
:1050FC007D4B4FF000021A603BE0784B1B781A4650
:10510C00774B33F81220764B1B88D31A9BB2FB8259
:10511C00B7F9163040F64542934206DDFB8AA3F5FB
:10512C00C4530A3B9BB2FB820AE0B7F916306F4AB4
:10513C00934205DAFB8A03F5C4530A339BB2FB8214
:10514C00B7F916301846FBF795F80446634B1B78F5
:10515C001846FBF78FF8034619462046FBF792F9E1
:10516C00034619461846FAF7D1FF03461A465E4B1A
:10517C001A605A4B1B78122B4AD15A4B01221A70C7
:10518C0046E0564B1B780133DAB2594B1A70584B28
:10519C001B78142B02D1564B00221A704F4B1B78E4
:1051AC001A464F4B33F81220514B1B7819464C4B77
:1051BC0033F81130D31A9BB2BB82B7F9143040F6D6
:1051CC004542934206DDBB8AA3F5C4530A3B9BB20E
:1051DC00BB820AE0B7F91430444A934205DABB8A21
:1051EC0003F5C4530A339BB2BB82B7F9143018468B
:1051FC00FBF740F803463F491846FBF743F90346D3
:10520C0019461846FAF782FF03461A46364B1A60BF
:10521C00324B1B780133DAB2304B1A702F4B1B78A0
:10522C00142B02D12D4B00221A703B7B002B1ED06D
:10523C00314B1B78002B15D000237B602A4B1B684D
:10524C0019462E4801F09AFB2C4801F09BFA0346B4
:10525C001846FBF729FA03467B6000227968002088
:10526C0000F0CCF81C4801F08FF8FFF7E1FAFB7A5C
:10527C00002B19D0204B1B78022B15D14FF00003BB
:10528C003B60154801F0D2F803461846FAF7F2FFD6
:10529C00034619461A4801F071FB194801F0AAF9A6
:1052AC003860386800F0F4F90B4801F0DDF8094B70
:1052BC001B88B3F57A4F02D3064B00221A80044B9D
:1052CC0000221A70012318461C37BD4690BD00BF42
:1052DC0057020020C203002058020020B80300200F
:1052EC0090030020BA030020BC030020BBF3FFFF97
:1052FC00B90300200000A0410C0000206003002036
:10530C003003002080B582B000AF2649264800F05B
:10531C00E4FF00212548FDF7CFFE04212348FDF7CB
:10532C00CBFE08212148FDF7C7FE204B1B685A6CA9
:10533C001E4B1B6842F400425A6400F013F9012022
:10534C0000F07AF83B4600221A605A603B46184639
:10535C00FFF768FD0346002B0BD03B68194612483B
:10536C0001F020F93B681A461149002001F0BAFF00
:10537C0010E0FFF703FE03463B6010237B603B46C7
:10538C0093E80300FFF78EFD3B681A46094900209D
:10539C0001F0A8FF0848FDF78DFD00BF0837BD469A
:1053AC0080BD00BF10000020580200207C000020AF
:1053BC00BC730008D4730008C400002080B582B010
:1053CC0000AF78607868FFF717FE0346094A136050
:1053DC00094B1B78002B06D1064B1B680022194683
:1053EC00002000F00BF8034B1B6818460837BD462D
:1053FC0080BD00BF2C0300200C00002080B588B0BD
:10540C0000AFF860B9607A60F868FFF7F5FD034605
:10541C007B61B868FFF7F0FD0346BB617B68FB61FD
:10542C0007F114030ECB034801F00CF800BF203732
:10543C00BD4680BD5802002080B582B000AF034647
:10544C00FB71FB79002B0BD001224FF480410C48EF
:10545C00FDF79BF9012208210948FDF796F90AE0AE
:10546C0000224FF480410648FDF78FF900220821F5
:10547C000348FDF78AF900BF0837BD4680BD00BF61
:10548C00000C014080B582B000AF78607B681B686F
:10549C00B3F1804F5BD1304B1B8801339AB22E4B4A
:1054AC001A802D4B1B88B3F52F7F06D800224FF4A2
:1054BC0080712A48FDF769F946E0274B1B88B3F544
:1054CC00487F06D801224FF480712448FDF75DF91E
:1054DC003AE0214B1B88B3F5617F06D800224FF4CC
:1054EC0080711E48FDF751F92EE01B4B1B88B3F55C
:1054FC007A7F06D801224FF480711848FDF745F9E0
:10550C0022E0154B1B8840F24C42934206D80022F5
:10551C004FF480711148FDF738F915E00E4B1B88DC
:10552C0040F2DB52934206D801224FF480710B48B3
:10553C00FDF72BF908E0084B1B8840F2DC52934234
:10554C0002D1054B00221A80054B01221A7000BFB4
:10555C000837BD4680BD00BFC0030020000C0140D1
:10556C005702002080B586B000AF07F10803002277
:10557C001A605A609A60DA60144B9B69134A43F0C4
:10558C0008039361114B9B6903F008037B607B68F4
:10559C0000224FF480410E48FDF7F7F80022082155
:1055AC000B48FDF7F2F844F20803BB600123FB60E3
:1055BC0000233B6101237B6107F108031946044872
:1055CC00FCF75EFF00BF1837BD4680BD00100240DF
:1055DC00000C014080B586B002AFF860B9607A600B
:1055EC003B6010493868FBF755F80346002B01D097
:1055FC000C4B3B600B49B869FBF74CF80346002B8E
:10560C0001D0084BBB61BB6901933B6800937B687D
:10561C00BA68F968044801F07DF900BF1037BD463F
:10562C0080BD00BF00FEFF466003002080B485B043
:10563C0000AFF860B9607A603B60FB68002B03D068
:10564C00124B9A68FB681A60BB68002B03D00F4B97
:10565C00DA68BB681A607B68002B03D00B4B1A69A5
:10566C007B681A603B68002B03D0084B5A693B6877
:10567C001A60BB69002B03D0044B9A69BB691A6092
:10568C0000BF1437BD4680BC704700BF60030020CC
:10569C0080B582B000AF78607968034801F061F999
:1056AC0000BF0837BD4680BD6003002080B500AF49
:1056BC00034B1B681846FAF7F7FF0346184680BDE4
:1056CC00BC03002080B586B002AFF860B9607A6088
:1056DC003B6010493868FAF7DDFF0346002B01D018
:1056EC000C4B3B600B49B869FAF7D4FF0346002B0F
:1056FC0001D0084BBB61BB6901933B6800937B688D
:10570C00BA68F968044801F005F900BF1037BD46C6
:10571C0080BD00BF00FEFF463003002080B485B082
:10572C0000AFF860B9607A603B60FB68002B03D077
:10573C00124B9A68FB681A60BB68002B03D00F4BA6
:10574C00DA68BB681A607B68002B03D00B4B1A69B4
:10575C007B681A603B68002B03D0084B5A693B6886
:10576C001A60BB69002B03D0044B9A69BB691A60A1
:10577C0000BF1437BD4680BC704700BF300300200B
:10578C0080B582B000AF78607968034801F0E9F821
:10579C0000BF0837BD4680BD3003002080B500AF88
:1057AC0001F07CFA0023184680BD80B483B000AFB2
:1057BC000A237B6000BF7B685A1E7A60002BFAD1EB
:1057CC0000BF00BF0C37BD4680BC704780B586B0AB
:1057DC0000AF07F1080300221A605A609A60DA6081
:1057EC00134B9B69124A43F008039361104B9B695E
:1057FC0003F008037B607B68C023BB601123FB6054
:10580C0000233B6103237B6107F108031946094818
:10581C00FCF736FE012240210648FCF7B6FF0122B8
:10582C0080210448FCF7B1FF00BF1837BD4680BD8E
:10583C0000100240000C014080B500AF0122802115
:10584C000C48FCF7A2FF012240210A48FCF79DFFFF
:10585C00FFF7ABFF002280210648FCF796FFFFF70D
:10586C00A4FF002240210348FCF78FFFFFF79DFFA8
:10587C0000BF80BD000C014080B500AF002280212C
:10588C000948FCF782FF012240210748FCF77DFF05
:10589C00FFF78BFF012280210348FCF776FFFFF70F
:1058AC0084FF00BF80BD00BF000C014080B500AF7D
:1058BC00002280210B48FCF768FF01224021094897
:1058CC00FCF763FFFFF771FF002240210548FCF74E
:1058DC005CFFFFF76AFF012280210248FCF755FFAD
:1058EC0000BF80BD000C014080B500AF01228021BB
:1058FC000948FCF74AFF012240210748FCF745FF05
:10590C00FFF753FF002240210348FCF73EFFFFF74F
:10591C004CFF00BF80BD00BF000C014080B586B0BD
:10592C0000AF3B1D00221A605A609A60DA60802337
:10593C007B600023BB600023FB603B1D19462448A1
:10594C00FCF79EFD012280212148FCF71EFFFFF78A
:10595C002CFF012240211E48FCF717FF4FF47A73ED
:10596C00BB8217E080211A48FCF7F8FE0346002B97
:10597C0002D10023FB7510E0BB8A013BBB82BB8AC2
:10598C00002B07D10123FB75124B1B8801339AB2F4
:10599C00104B1A80BB8A002BE4D1002240210C480A
:1059AC00FCF7F3FEFFF701FF1123BB600023FB6044
:1059BC0003233B613B1D19460548FCF761FD802123
:1059CC000348FCF7FAFEFB7D18461837BD4680BD30
:1059DC00000C0140C403002080B584B000AF034626
:1059EC00FB710023FB7324E097F90730002B05DAD9
:1059FC00012280211348FCF7C8FE04E0002280211C
:105A0C001048FCF7C2FEFB795B00FB71FFF7CDFE83
:105A1C00012240210B48FCF7B8FEFFF7C6FE00221E
:105A2C0040210848FCF7B1FEFFF7BFFEFB7B0133BA
:105A3C00FB73FB7B072BD7D900BF00BF1037BD46CC
:105A4C0080BD00BF000C014080B588B000AF03469C
:105A5C00FB710023BB7707F10C0300221A605A601C
:105A6C009A60DA608023FB6000233B6100237B613A
:105A7C0007F10C0319462348FCF702FD0122802193
:105A8C002048FCF782FE0023FB771EE0BB7F5B0007
:105A9C00BB77012240211B48FCF777FEFFF785FE00
:105AAC0080211848FCF75AFE0346012B03D1BB7F1B
:105ABC0043F00103BB77002240211248FCF765FE3E
:105ACC00FFF773FEFB7F0133FB77FB7F072BDDD9E1
