:020000040800F2
:10000000F00C0020890100086B180008BB160008DE
:1000100069180008C7030008E91C00080000000078
:10002000000000000000000000000000B51A0008F9
:10003000C9030008000000006D180008B71A000886
:10004000A3010008A3010008A3010008A301000800
:10005000A3010008A3010008A3010008A3010008F0
:10006000A3010008A3010008A3010008A3010008E0
:10007000A3010008A3010008A3010008A3010008D0
:10008000A3010008A3010008A3010008A3010008C0
:10009000DD1C0008A3010008A3010008A30100085B
:1000A000A3010008A3010008A3010008151B000814
:1000B000A3010008A3010008A3010008A301000890
:1000C000A3010008A3010008A3010008A301000880
:1000D000A3010008A3010008A3010008A301000870
:1000E000A3010008A3010008A301000800F002F822
:1000F00000F03AF80AA090E8000C82448344AAF188
:100100000107DA4501D100F02FF8AFF2090EBAE885
:100110000F0013F0010F18BFFB1A43F0010318473B
:10012000EC1F00000C200000103A24BF78C878C1F2
:10013000FAD8520724BF30C830C144BF04680C60ED
:10014000704700000023002400250026103A28BF35
:1001500078C1FBD8520728BF30C148BF0B60704739
:100160001FB51FBD10B510BD00F0F3F81146FFF725
:10017000F7FF01F0A0FF00F011F903B4FFF7F2FF61
:1001800003BC00F019F900000948804709480047FE
:10019000FEE7FEE7FEE7FEE7FEE7FEE7FEE7FEE737
:1001A000FEE7FEE704480549054A064B7047000094
:1001B000111B0008ED000008F0060020F00C0020E4
:1001C000F0080020F008002040EA0103024630B5A4
:1001D0009B0710D14FF0013400E008C208C91D1B75
:1001E0009D4315EAC41FF8D013F0FF0102F8011B6C
:1001F0000DD01B0AF8E711F8013B002B02F8013B78
:1002000005D011F8013B002B02F8013BF3D130BDC2
:10021000032A40F2308010F0030C00F0158011F832
:10022000013BBCF1020F624498BF11F801CB00F80A
:10023000013B38BF11F8013BA2F1040298BF00F85E
:1002400001CB38BF00F8013B11F0030300F025801B
:10025000083AC0F0088051F8043B083A51F804CB42
:10026000A0E80810F5E7121D5CBF51F8043B40F808
:10027000043BAFF30080D20724BF11F8013B11F813
:1002800001CB48BF11F8012B24BF00F8013B00F857
:1002900001CB48BF00F8012B704710B5203AC0F0E1
:1002A0000B80B1E81850203AA0E81850B1E8185077
:1002B000A0E81850BFF4F5AF5FEA027C24BFB1E8B4
:1002C0001850A0E8185044BF18C918C0BDE8104025
:1002D0005FEA827C24BF51F8043B40F8043B08BF2E
:1002E0007047D20728BF31F8023B48BF11F8012BF5
:1002F00028BF20F8023B48BF00F8012B70474FF0A1
:10030000000200B5134694469646203922BFA0E865
:100310000C50A0E80C50B1F12001BFF4F7AF090771
:1003200028BFA0E80C5048BF0CC05DF804EB890062
:1003300028BF40F8042B08BF704748BF20F8022BA5
:1003400011F0804F18BF00F8012B704770477047BD
:100350007047754600F02CF8AE46050069465346D6
:1003600020F00700854618B020B5FFF71BFFBDE859
:1003700020404FF000064FF000074FF000084FF00C
:10038000000B21F00701AC46ACE8C009ACE8C0099D
:10039000ACE8C009ACE8C0098D46704710B504460A
:1003A000AFF300802046BDE81040FFF7E6BE000036
:1003B000004870478C06002001491820ABBEFEE7BC
:1003C000260002007047FEE77047000072B602A1E7
:1003D000002001F099FAFAE74572726F72204861C5
:1003E0006E646C657200000090F82020012A07D02E
:1003F000022A05D0416A41F4802141620120704700
:10040000006842690A4342610020704710B590F8C5
:1004100020300268012B07D0022B05D0416A41F43D
:1004200080214162012010BDD2F8000240F001009D
:10043000C2F80002087D00F01F0301209840D2F8A6
:100440001C328343C2F81C32CB69B3B9D2F80C32E8
:100450008343C2F80C328C894B6864F31F434C69A8
:1004600002EBC404C4F840320C890B6864F31F43E8
:100470004C6902EBC404C4F84432CB69012B16D199
:10048000D2F80C320343C2F80C320C884B6864F388
:100490001F434C6902EBC404C4F840320C89CB689A
:1004A00064F31F434C6902EBC404C4F844328B6903
:1004B000002BD2F804320FD053EA0003C2F8043202
:1004C0000B69002BD2F8143208D00343C2F814325F
:1004D000096A012904D008E08343EFE78343F5E785
:1004E000D2F81C120143C2F81C12D2F8000220F00C
:1004F0000100C2F80002002010BD704770B590F8EE
:100500002040012C05D0022C03D0416A41F4802107
:1005100028E0046809B32469A40720D04FF4D874F4
:10052000056804EB01142D5915F004059560056864
:100530002D591AD0ED08556005682C5904F00204B5
:10054000D4604FF4DA74056804EB01142E5906F0F8
:100550000F06082E0CD308250DE0E468DCE7416A9D
:1005600041F400114162012070BD6D0D1560E3E79B
:100570002D5905F00F05156105682D59C5F307259F
:10058000956105682C59240C54614FF4DC720468A1
:1005900002EB0112A4581C700468A458240A5C7071
:1005A0000468A458240C9C700468A258120EDA70D7
:1005B0004FF4DE72046802EB0112A4581C71046847
:1005C000A458240A5C710468A458240C9C71046823
:1005D000A258120EDA71006829B1016941F02001B8
:1005E0000161002070BDC16841F02001C160F8E7E1
:1005F0002DE9F05F0546006800244669D0F80490B4
:100600008768D0F80CB0D0F810A0D0F81880F107A7
:1006100048D0F90714D001218160B80703D52846D6
:1006200000F04BFA0CE0780702D54FF4006407E0C5
:10063000380702D54FF4805402E0284600F03CFA17
:10064000F80516D529684FF480708860B80503D581
:10065000284600F034FA0CE0780502D544F4005442
:1006600007E0380502D544F4804402E0284600F053
:1006700025FAF80316D529684FF480308860B8034E
:1006800003D5284600F01DFA0CE0780302D544F4A7
:10069000004407E0380302D544F4803402E02846E1
:1006A00000F00EFA300707D55FEACB6004D5296861
:1006B000102044F40074C86070074FF0080707D595
:1006C0005FEA0B7004D52868C760284600F05AF925
:1006D000B00706D52868C068800702D0284600F019
:1006E00053F9700607D55FEACA6004D5296810205F
:1006F00044F480640861B00607D55FEA0A7004D547
:1007000028680761284600F077F9F00606D52868C2
:100710000069800702D0284600F06FF9B00308D5C1
:100720005FEAC96005D5296810204860284600F0B6
:1007300065F9F00307D55FEA097004D528684760BA
:10074000284600F0BFF9300446D55FEA497040D52D
:10075000F00504D55FEAC87001D044F00104B0058B
:1007600004D55FEA887001D544F00204700504D511
:100770005FEA487001D544F00404300529D518F02B
:10078000700F26D008F07000402815D006DC102825
:1007900009D020280AD0302816D10AE050280ED0DF
:1007A000602811D10EE044F008040DE044F010047C
:1007B0000AE044F0200407E044F0400404E044F080
:1007C000800401E044F480742868816921F070019C
:1007D0008161296804204860002C05D0686A2043A4
:1007E00068622846FFF789FEBDE8F09F70B50400F7
:1007F00003D094F8200010B104E0012070BD204621
:1008000000F082F82068016841F00101016000F009
:1008100051FA0546052604E000F04CFA401B0A2870
:1008200011D820684068C007F6D02068016821F020
:100830000201016000F03EFA05460BE000F03AFAD2
:10084000401B0A2806D9606A40F40030606284F8D0
:100850002060D2E7206840688007EFD4207E01281E
:10086000206801683DD021F080010160607E012890
:100870002068016838D021F040010160A07E012885
:100880002068016833D021F020010160E07E01285A
:10089000206801682ED041F010010160207F0128FE
:1008A0002068016829D021F008010160607F0128DB
:1008B0002068016824D021F004010160D4E902011C
:1008C0000843D4E90412114308436168491E0843F0
:1008D0002168C86100206062012084F820000020A7
:1008E00070BD41F08001C0E741F04001C5E741F033
:1008F0002001CAE721F01001CFE741F00801D4E759
:1009000041F00401D9E7000010B586B00021009144
:100910000191029103910068174988422AD1174832
:10092000C16941F00071C161C16901F000710491B8
:10093000816941F0040181618069114C00F004007B
:1009400004904FF4006000906946204600F0BCF827
:10095000A0140090022001900320039069462046D5
:1009600000F0B2F800221146142000F00FFA142013
:1009700000F0FEF906B010BD006400400010024017
:10098000000801407047000070B58CB004461C217F
:1009900004A8FFF7B4FC002001900146029001ABCF
:1009A00004AA2046FFF7AAFD00280AD1104C04A98A
:1009B0002078401C00F007056078854203D10120B3
:1009C000A0700CB070BD20780A4E00EBC00006EBA2
:1009D00080001C22FFF761FC2078019900EBC00029
:1009E00006EB8000C161029901622570E9E7000011
:1009F00010000020840000207047704770470000FE
:100A000070B5044690F82000012804D0606A40F4D4
:100A10000020606218E0022084F82000206801684D
:100A200021F00101016000F045F905460EE000BF2C
:100A300000F040F9401B0A2808D9606A40F40030F1
:100A40006062052084F82000012070BD20684068A5
:100A5000C007EDD1606270BD70B5044690F820000B
:100A6000022804D0606A40F48010606214E02068BC
:100A7000016841F00101016000F01CF905460DE03C
:100A800000F018F9401B0A2808D9606A40F40030C9
:100A90006062052084F82000012070BD2068406855
:100AA000C007EDD02068016821F00201016001203B
:100AB00084F82000002070BD704770477047704771
:100AC00070477047704700002DE9F84FDFF8B89184
:100AD0000024A9F1040B23460F2709F1040AABF106
:100AE000040EC9E00125A5402A40AA427DD1674EE7
:100AF000D1F804C0ACEB0608B44532D014DCBCF12C
:100B0000030F3AD009DCBCF1000F2AD0BCF1010F71
:100B10001CD0BCF1020F31D11DE0BCF1110F17D078
:100B2000BCF1120F2AD119E0B8F5881F19D006DCE4
:100B3000B8F5803F15D0B8F5801F1FD111E0B8F58A
:100B4000001F0ED0B8F5041F18D10AE0CB6815E0DD
:100B5000CB681B1D12E0CB6808330FE0CB680C3369
:100B60000CE08B682BB1012B4FF0080303D04561DB
:100B700004E0042302E0056100E00023FF2A01D81D
:100B8000064601E000F104064FEA840501D9A5F10B
:100B90002005D6F8008007FA05FC28EA0C0803FABD
:100BA00005F548EA0508C6F800804D68ED0062D5F5
:100BB000374DAE6946F00106AE61AD6924F003061B
:100BC00005F001050095334D06EB050CDCF80850E7
:100BD000A607360F07FA06F825EA0805DFF8B880F9
:100BE000404503D14FF0000817E044E0DFF8AC8047
:100BF000404502D14FF001080FE0DFF8A4804045E6
:100C000002D14FF0020808E0DFF89880404502D199
:100C10004FF0030801E04FF0040808FA06F848EA2C
:100C20000508CCF808804D68D9F80060ED024D4603
:100C300001D5164300E096432E604D68DAF8006057
:100C4000AD02554601D5164300E096432E604D682F
:100C5000DBF80060AD035D4601D5164300E0964326
:100C60002E604D68DEF80060ED03754601D5164331
:100C700000E096432E60641C0D682A46E5407FF430
:100C800031AFBDE8F88F00000804014000001110EA
:100C9000001002400000014000080140000C01402B
:100CA00000100140001401400AB1016170470904BD
:100CB000FBE700000148806870470000000000204A
:100CC000024881680278114481607047000000206A
:100CD000074810B5016841F010010160032000F0E1
:100CE00075F80F2000F006F800F024F8002010BD81
:100CF0000020024070B50D4D04464FF47A712878FB
:100D0000B1FBF0F00A490968B1FBF0F000F0BCFA61
:100D100048B9102C07D200222146501E00F036F8A8
:100D200000206C6070BD012070BD0000000000203C
:100D30000C0000200C4808B5816941F00101816177
:100D4000816901F001010091C16941F08051C161E7
:100D5000C06900F0805000900448416821F0E061D3
:100D600041F00071416008BD0010024000000140E8
:100D7000002809DB00F01F0201219140400980009A
:100D800000F1E020C0F8001170470000F0B40E4BF5
:100D90001B680C46C3F30223C3F10705042D00D9D9
:100DA0000425191D072901D2002300E0DB1E0126BE
:100DB00006FA05F1491E214099409E40761E1640D4
:100DC0003143F0BC01F00DB90CED00E0064900F034
:100DD000070208684FF6FF03184040EA0220034A62
:100DE00010430860704700000CED00E00000FA05B9
:100DF0002DE9F0470F46050061D0434E306800F002
:100E00000700B84209D2306820F00700384330604C
:100E1000306800F00700B84251D128683B4C810788
:100E200012D5400703D5606840F4E0606060287820
:100E3000000703D5606840F4605060606068A9688E
:100E400020F0F000084360602878C00728D0686868
:100E5000012810D02168022810D0890700292EDA35
:100E6000616821F0030101436160FFF723FF8046C1
:100E700041F288390DE021688903EFE78901EDE748
:100E8000FFF718FFA0EB0801494502D90320BDE890
:100E9000F0876068696800F00C00B0EB810FEFD15B
:100EA000306800F00700B8420BD9306820F0070026
:100EB00038433060306800F00700B84201D00120AC
:100EC000E5E72878400705D56068E96820F4E06028
:100ED000084360602878000706D56068296920F417
:100EE000605040EAC100606000F018F86168084A8C
:100EF000C1F30311515CC840064908600648006808
:100F0000FFF7F8FE0020C2E7002002400010024078
:100F1000EA2000080C000020040000200E4A51685E
:100F20000E4801F00C03042B11D0082B0FD10C48F4
:100F3000C1F38343C903C05C0AD55168084AC1F3B1
:100F40004041921E515C054A5043B0FBF1F070479E
:100F500004494843704700000010024000127A0024
:100F6000DA20000800093D002DE9F84F040070D098
:100F70002078C04DC00749D06868C0F381000128BF
:100F800007D06868C0F38100022809D16868C003EF
:100F900006D52868800339D560680028E7D035E099
:100FA0006068B0F5803F0BD010B1B0F5A02F11D024
:100FB000286820F480302860286820F4802002E02F
:100FC000286840F480302860606890B1FFF772FEB6
:100FD00006460AE0286840F480202860F0E700BF59
:100FE000FFF768FE801B642873D828688003F7D554
:100FF0000CE0FFF75FFE064605E000BFFFF75AFE74
:10100000801B6428F0D828688003F7D420789A4E93
:1010100080074FF001094FF0000839D5686810F0DB
:101020000C0F07D06868C0F38100022809D16868F6
:10103000C00306D42868800714D52069012808D188
:1010400010E02069B0B1C6F80090FFF733FE074604
:1010500005E00AE1FFF72EFEC01B0228C4D828686D
:101060008007F7D52868616920F0F80040EAC100E0
:1010700028600DE0C6F80080FFF71CFE074604E07C
:10108000FFF718FEC01B022823D828688007F7D472
:10109000207800072CD57948A169D9B1C0F8009013
:1010A000FFF708FE074604E0FFF704FEC01B022816
:1010B0000FD8686A8007F7D571484FF4FA51006875
:1010C000B0FBF1F0009000BF0098411E0091FAD2F1
:1010D0000EE080E0C0F80080FFF7ECFD074604E07A
:1010E000FFF7E8FDC01B022875D8686A8007F7D4AF
:1010F0002078400760D5E8690027C00008D4E86977
:1011000040F08050E861E869012700F080500090CD
:101110005C480168C90513D40168834641F48071B5
:101120000160FFF7C7FD824606E000BFFFF7C2FD82
:10113000A0EB0A0064284ED8DBF80000C005F5D506
:10114000E06801280AD008B1052813D0286A20F0E9
:1011500001002862286A20F0040002E0286A40F0BA
:1011600001002862E06841F2883B98B1FFF7A2FDD8
:1011700082460BE0286A40F004002862EEE700BFD8
:10118000FFF798FDA0EB0A0159455AD8286A800755
:10119000F6D50CE0FFF78EFD824605E0FFF78AFDED
:1011A000A0EB0A0159454CD8286A8007F6D41FB134
:1011B000E86920F08050E861E06988B36968C1F3AC
:1011C0008101022944D00228C6F8608004D0FFF7CC
:1011D00071FD044638E034E0FFF76CFD074604E09B
:1011E000FFF768FDC01B02282BD828688001F7D4C0
:1011F000206AB0F5803F05D16868A16820F400300E
:1012000008436860D4E908010843696821F474114F
:1012100008436860C6F86090FFF74CFD044606E09E
:1012200025E000BFFFF746FD001B022809D828680B
:101230008001F7D51BE000BFFFF73CFD001B022833
:1012400002D90320BDE8F88F28688001F4D40EE0AD
:101250000128F7D06868226A00F48031914204D1F5
:10126000616A00F47010884201D00120EAE7002092
:10127000E8E70000001002400000424280044242C1
:101280000C0000200070004010B5401EB0F1807FBF
:1012900001D3012010BD4FF0E02460610F216017E1
:1012A00000F09FFE0020A06107202061002010BDFB
:1012B0007047704710B590F83C20012A22D00122D7
:1012C00080F83C20CA688C6822F4407222434C6843
:1012D00022F4806222430C6822F4006222430C69EB
:1012E00022F4805222434C6922F400522243C969FD
:1012F000002322F480420A4301684A6480F83C30AB
:10130000002010BD022010BD70B590F83C20012ACD
:1013100026D0012480F83C40022280F83D2003685A
:101320005A689D6822F070060A6832435A600D4B75
:1013300002689A4208D0B2F1804F05D00A4B9A4217
:1013400002D00A4B9A4204D1496825F08003194320
:10135000916080F83D40002180F83C10084670BD47
:10136000022070BD002C0140000400400008004035
:1013700070472DE9F04104460068C66805694FF0E2
:101380000007A90713D5B10711D5F91E0161012086
:101390002077206880698007204602D0FFF7E8FFA9
:1013A00004E000F0A7F8204600F084F927776807EA
:1013B00016D5700714D521686FF00400086102206B
:1013C00020772068806910F4407F204602D0FFF724
:1013D000CFFF04E000F08EF8204600F06BF927778D
:1013E000280715D5300713D521686FF0080008616C
:1013F000042020772068C0698007204602D0FFF7CC
:10140000B7FF04E000F076F8204600F053F92777A4
:10141000E80616D5F00614D521686FF010000861B3
:10142000082020772068C06910F4407F204602D051
:10143000FFF79EFF04E000F05DF8204600F03AF967
:101440002777E80708D0F00706D021686FF0010081
:101450000861204600F02FF9280608D5300606D589
:1014600021686FF0800008612046FFF721FF6806C1
:1014700008D5700606D521686FF040000861204647
:1014800000F01AF9A8060AD5B00608D521686FF051
:10149000200008612046BDE8F041FFF70ABFBDE823
:1014A000F08170B5044690F83C00002501280FD06B
:1014B000012084F83C006AB1042A0FD0082A11D018
:1014C0000C2A13D00125002084F83C00284670BD6A
:1014D000022070BD206800F05FFBF4E7206800F098
:1014E00083FBF0E7206800F0ABFBECE7206800F03E
:1014F000D3FBE8E7704710B5040003D094F83D0033
:1015000010B107E0012010BD002084F83C00204607
:1015100000F01EF8022084F83D00211D206800F034
:10152000FFFA012084F8460084F83E0084F83F006A
:1015300084F8400084F8410084F8420084F84300B5
:1015400084F8440084F8450084F83D00002010BD74
:10155000704770B5044690F83C0000260D460128FF
:101560000FD0012084F83C006AB1042A1DD0082A5B
:101570002FD00C2A3FD00126002084F83C003046B2
:1015800070BD022070BD206800F006FB20688169F4
:1015900041F0080181612068816921F004018161C5
:1015A000206881692A69114311E0206800F01CFB62
:1015B0002068816941F4006181612068816921F4BA
:1015C00080618161206881692A6941EA0221816123
:1015D000D2E7206800F034FB2068C16941F00801BF
:1015E000C1612068C16921F00401C1612068C1693D
:1015F0002A69114311E0206800F04EFB2068C169A0
:1016000041F40061C1612068C16921F48061C16158
:101610002068C1692A6941EA0221C161ACE710B5BD
:10162000040003D094F83D0010B107E0012010BD84
:10163000002084F83C00204600F01EF8022084F8C8
:101640003D00211D206800F06BFA012084F846005F
:1016500084F83E0084F83F0084F8400084F841009C
:1016600084F8420084F8430084F8440084F845007C
:1016700084F83D00002010BD08B500680B49884281
:1016800012D10B48816941F40061816180690022B7
:1016900000F40060009011461B20FFF777FBBDE8C7
:1016A00008401B20FFF764BB08BD0000002C014070
:1016B00000100240704770477047FEE730B5194888
:1016C0008BB01749016008210024C0E90114C90347
:1016D000C0E903418900416104760125457684769D
:1016E000C47604774477FFF781F808B1FEF76EFE01
:1016F00003940494CDE90645CDE90854059400947B
:101700000194029469460748FEF780FE02210548CD
:10171000FEF76AFE0348FFF773F90BB030BD000017
:10172000006400401400002070B586B00024134807
:101730000094019402940394816941F00401816151
:10174000816901F004010491816941F0080181611E
:101750008069012200F00800094E15020490294614
:101760003046FFF7A1FA01210095CDE9011403915C
:1017700069463046FFF7A8F906B070BD0010024078
:10178000000C014010B592B000240F941C21684653
:101790001094FEF7B4FD202107A8FEF7B0FD3148F4
:1017A0002F49C0E900142021816040F23F61C0E967
:1017B00003148021C0E90541FFF731FF08B1FEF7AE
:1017C00005FE2848FFF797FE08B1FEF7FFFD0F94CE
:1017D0000FA924481094FFF797FD08B1FEF7F6FD16
:1017E0006020CDE90004029403940494059400223F
:1017F00069461C480694FFF7ACFE08B1FEF7E6FD0B
:10180000042269461748FFF7A4FE08B1FEF7DEFD83
:10181000082269461348FFF79CFE08B1FEF7D6FD83
:1018200040F25D10CDE900400C2269460D48FFF7FB
:1018300038FE08B1FEF7CAFD0794089409944FF4E6
:1018400000500A94CDE90B4007A906480E94FFF713
:1018500031FD002801D0FEF7B9FD12B010BD000027
:10186000002C01403C000020FEE7FEE7704700F03E
:101870003DBA00002DE9F04107460B4815460E46DB
:10188000007808B900F032FAEFF31184202080F3D9
:1018900011882A463146384600F008F8E1B281F353
:1018A0001188BDE8F0810000A401002070B50E464B
:1018B000144900EB400001EBC0051446E86A1835F6
:1018C00020B101280FD0022805D113E0284600F0EE
:1018D00041FAA04201D2002411E0224631462846B6
:1018E00000F05EFB0BE0284600F034FAA042F4D290
:1018F0000446F2E73146284600F025FB0446204620
:1019000070BD0000A40100200FB408B504A9009127
:101910006A46039900F003F801B05DF814FB2DE965
:10192000F04198B0064607A8029040200025CDE976
:101930000305CDE9055690460C4614F8011B002915
:1019400073D0252908D002A800F0DEFA05980028F7
:10195000F3DA18B0BDE8F081002001212278232AB3
:101960001ED02B2A19D02D2A02D0302A08D102E00D
:1019700040F0010001E040F00200641C0029EDD1BC
:1019800000222178A1F130030A2B0CD202EB820253
:1019900001EB4202303A641CF3E740F00400ECE74C
:1019A00040F00800E9E70023CFB22E2F0BD114F846
:1019B000011FA1F130070A2F05D203EB830301EBCE
:1019C0004303303BF3E76C290DD068290BD0702915
:1019D00054D00BDC252916D0582931D063290CD0DE
:1019E000642913D114E014F8011FECE7732934D0F3
:1019F00075291BD0782909D122E0D8F80000011DF3
:101A0000C8F80010017802A800F07EFA641C9DE777
:101A1000D8F800100F1DC8F800700968CDE9002043
:101A20000A2202A800F0A2F9F0E733E0D8F800108B
:101A30000F1DC8F800700968CDE900200A2208E0EF
:101A4000D8F800100F1DC8F800700968CDE9002013
:101A5000102202A800F0EEF9D8E7D8F80000011D26
:101A6000C8F80010076817F8011B0029CED002A89B
:101A700000F04AFA05980028F5DAC7E7D8F8000020
:101A8000011DC8F8001001680820CDE900050346D3
:101A90001022DEE7059800287FF75BAF049820B19D
:101AA000024607A93046FFF7E5FEDDE904100844C9
:101AB00005904EE77047FFF703B930B58FB0282186
:101AC0006846FEF71CFC14210AA8FEF718FC022544
:101AD0000120049000951020059000244FF4601020
:101AE000CDE9084007956846FFF73EFA60B90F2038
:101AF000CDE90A056802CDE90C4002210AA80E943E
:101B0000FFF776F9002801D0FEF760FC0FB030BD7A
:101B1000704700000148FFF72CBC00003C0000208B
:101B2000F0B50268194B1A4C1A4D4FF08047984295
:101B300005D0B84203D0A04201D0A84203D122F080
:101B400070064A683243984205D0B84203D0A0429A
:101B500001D0A84203D122F44074CA6822434C69E0
:101B600022F08002224302608A68C2620A688262AE
:101B7000984201D109690163012141610169C907E5
:101B800003D0016921F001010161F0BD002C014089
:101B9000000400400008004030B5036A026A22F0E9
:101BA000010202624268846924F073050C682C43C8
:101BB00023F002058B682B430A4DA8420BD123F07A
:101BC0000805CB6822F440722B434D6923F00403CF
:101BD00015438A692A43426084614968416303620C
:101BE00030BD0000002C014030B5026A036A23F0CA
:101BF00010030362436884690D6824F4E64444EAF0
:101C000005248D6822F0200242EA05120B4DA842FD
:101C10000ED1CD6822F0800242EA05124D6923F40C
:101C2000406343EA85038D6922F0400243EA85035D
:101C30004360846149688163026230BD002C0140C9
:101C400030B5036A026A22F4807202624268C46993
:101C500023F4007324F073050C682C438D6843EA69
:101C600005230C4DA8420ED1CD6823F4006343EA4E
:101C700005234D6922F4405242EA05128D6923F48E
:101C8000806342EA05124260C4614968C16303622D
:101C900030BD0000002C014030B5046A026A22F415
:101CA000805202624268C3690D6823F4E64343EA46
:101CB00005238D6824F4005444EA0534064DA842F7
:101CC00004D14D6922F4804242EA85124260C36128
:101CD00049680164046230BD002C01400148FEF7F0
:101CE00087BC000014000020FEE7000010B5124C75
:101CF00003202061606111A0A06104F1A800E061EF
:101D00004FF4806020620020A06260620BA1216617
:101D1000E06204F59561616640212067C4E91A100C
:101D2000606709A1E01DFEF74FFA08A12046FEF703
:101D30004BFA2020A07110BDA40100205465726DE3
:101D4000696E616C000000005254540053454747CF
:101D5000455200000269C1688A4203D88068401A6F
:101D6000104400E0501A401E704700002DE9FC5F4F
:101D70000E008146DDE90C47C6F100009846934607
:101D8000824600D40846012503E000BF90FBFBF02B
:101D90006D1C5845FADAA84500D9454624B1002EF5
:101DA00001DB780700D5641EB80702D5B8F1000F33
:101DB0000FD0F8070DD164B1A5420AD220214846C0
:101DC000641E00F0A1F8D9F80C000028F3DABDE891
:101DD000FC9FD9F80C000028F9DB002E02DA5646E9
:101DE0002D2102E0780707D52B21484600F08CF81A
:101DF000D9F80C000028EADB07F0030002280FD115
:101E0000B8F1000F0CD15CB1A54209D2302148468F
:101E1000641E00F079F8D9F80C000028F3DAD6E750
:101E2000CDE9004743465A463146484600F002F89D
:101E3000CDE700002DE9F84F8246DDE90A4B012687
:101E4000984691460D460846374602E0B0FBF9F049
:101E50007F1C4845FAD2B84500D947465FEACB70A7
:101E600017D1B4B15FEA8B7002D5B8F1000F02D080
:101E7000202000900BE03020FBE75046641E0099C4
:101E800000F042F8DAF80C00002838DB0CB1A74269
:101E9000F3D3DAF80C00002831DB00BFB8F1010FF2
:101EA00002D9A8F1010803E0B5FBF6F0484502D3DA
:101EB00006FB09F6F2E7DFF84C8000BFB5FBF6F051
:101EC00000FB165518F80010504600F01DF8DAF81F
:101ED0000C00002803DBB6FBF9F6002EEED15FEA1A
:101EE000CB700CD0002C0AD0A74208D2202150463B
:101EF000641E00F009F8DAF80C000028F2DABDE8F8
:101F0000F88F0000FA20000810B50446D4E901302B
:101F1000421C934205D323681954A260E068401C18
:101F2000E060D4E90102824209D121682069FFF70B
:101F3000A1FCA168884203D04FF0FF30E06010BDE3
:101F40000020A06010BD2DE9F047C46817468946FF
:101F500006464FF000083069A04201D9051B02E097
:101F6000B168201A0D1AB0686D1E001BA84200D877
:101F70000546BD4200D33D4670682A462044494686
:101F8000FEF746F9B0687F1B2C44A844A944A04240
:101F900000D10024F460002FDDD14046BDE8F08779
:101FA0002DE9F04104468846D4E90207C51BE168E3
:101FB000606816460844B54206D94146FEF728F93E
:101FC000B819E060BDE8F0812A464146FEF720F9E5
:101FD000761B08EB050132466068FEF719F9E660EA
:101FE000F0E70907090E002804DB00F1E02080F883
:101FF0000014704700F00F0000F1E02080F8141D7D
:102000007047000000B58BB028216846FEF777F9CD
:102010001148FEF721FD002001210590CDE90601C0
:102020004FF6E0720090CDE901020622CDE90320CF
:102030000E20CDE9081069460748FEF7E7F920B9F8
:1020400002210548FEF7D0F910B101200BB000BD08
:102050000148FEF7D5FCF9E714000020FFF7D2BFD6
:1020600030B589B024216846FEF749F90D4C0E4D74
:10207000684661782278914206D1A1780020002933
:1020800000D0A07009B030BD6178242201EBC101FD
:1020900005EB8101FEF701F96078401C00F00700B4
:1020A0006070E5E7100000208400002010B5FFF705
:1020B000DEFB002010BDFEF70BFEFFF7FEFCFFF776
:1020C00033FBFFF75FFBFFF7F9FAFFF7EFFFFFF7CF
:1020D000C5FFFFF7C5FFFCE7010202030405060781
:1020E00008090A0B0C0D0E0F101000000000000074
:1020F0000000010203040607080930313233343589
:102100003637383941424344454600002C21000807
:1021100000000020140000002801000840210008F1
:1021200014000020DC0C0000440100080100000045
:10213000100000000000000000127A000000000003
:04000005080000ED02
:00000001FF
