:020000040800F2
:100000000050002015050008A5040008A7040008FA
:10001000A9040008AB040008AD04000800000000BB
:10002000000000000000000000000000AF04000815
:10003000B104000800000000B3040008B504000883
:100040005D0500085D0500085D0500085D05000808
:100050005D0500085D0500085D0500085D050008F8
:100060005D0500085D0500085D0500085D050008E8
:100070005D0500085D0500085D0500085D050008D8
:100080005D0500085D0500085D0500085D050008C8
:10009000B90400085D0500085D0500085D0500085D
:1000A0005D0500085D0500085D050008C504000841
:1000B0005D0500085D0500085D0500085D05000898
:1000C0005D0500085D0500085D0500085D05000888
:1000D0005D0500085D0500085D0500085D05000878
:1000E0005D0500085D0500085D05000800000000D2
:1000F0000000000000000000000000000000000000
:0C01000000000000000000005FF808F1A3
:10010C000348044B834202D0034B03B1184770479A
:10011C000C0000200C000020000000000548064BDD
:10012C001B1AD90F01EBA301491002D0034B03B1E9
:10013C00184770470C0000200C0000200000000045
:10014C0010B5064C237843B9FFF7DAFF044B13B113
:10015C000448AFF300800123237010BD0C00002075
:10016C00000000003C1F000808B5054B1BB10549F9
:10017C000548AFF30080BDE80840FFF7CFBF00BFD4
:10018C0000000000100000203C1F000808B572B6EB
:10019C000249002001F07CFEFAE700BF541F000862
:1001AC0010B590B02022002107A801F07FFE142288
:1001BC00002101A801F07AFE102301220224CDE9CE
:1001CC000A234FF4601306A806940D940F9300F0C5
:1001DC00F3FC08B1FFF7DAFF0F23CDE901344FF43C
:1001EC0080630390CDE90430214601A800F0A8FEFD
:1001FC000028EFD110B010BD08B500F0B9FCFFF726
:10020C00CFFF00F00BF800F0B1F800F039F801F076
:10021C009DFB01F011FB01F03BFBFCE77FB51022CD
:10022C00002102A801F042FE134B4FF480719A6931
:10023C00124842F004029A619A6902F00402009298
:10024C00009A9A6942F008029A619B69012203F0B4
:10025C0008030193019B00F0E3FF01234FF480722C
:10026C00CDE902230022054802A9CDE9042300F0C0
:10027C0003FF07B000BD00BF00100240000C01409E
:10028C0010B5184A184B8AB00024136008234FF499
:10029C008021C2E901344FF48013C2E904134FF4F6
:1002AC0080731046D4609361948300F053F908B1C5
:1002BC00FFF76CFF012369460A48CDE90834079320
:1002CC00CDE90544CDE90044CDE90244049400F0A5
:1002DC00BCF90221034800F002FB024800F023FAAB
:1002EC000AB010BD280000200064004010B5044680
:1002FC0086B01022002102A801F0D8FD2268194B0B
:10030C009A422DD103F5D633DA69174842F00072C0
:10031C00DA61DA6902A902F000720092009A9A6915
:10032C0042F004029A619B6903F004030193019B60
:10033C004FF40063029300F09FFE4FF480520223AF
:10034C00CDE902230323084802A9059300F094FE8B
:10035C0000221420114600F07BFF142000F0A6FFB1
:10036C0006B010BD006400400008014030B5002408
:10037C00202593B01C22214603A8CDE9014401F0AD
:10038C0095FD2A4621460AA801F090FD304A314BD2
:10039C001046C2E9003440F23F63C2E903348023C3
:1003AC0095605461936101F01DF908B1FFF7EEFE01
:1003BC00274801F0EBF808B1FFF7E8FE00242448C9
:1003CC0001A9CDE9014401F0E1F908B1FFF7DEFE26
:1003DC00602300221E4803A9CDE90334CDE905446E
:1003EC00CDE90744099401F07BF908B1FFF7CEFE83
:1003FC000422174803A901F073F908B1FFF7C6FEF0
:10040C000822134803A901F06BF908B1FFF7BEFEEF
:10041C000C22002440F25D130D480DEB0201CDE9D6
:10042C00034301F037F908B1FFF7B0FE4FF4005366
:10043C0007480AA9CDE90A44CDE90C440E940F9360
:10044C00119401F0D1F908B1FFF7A0FE13B030BD43
:10045C0050000020002C014007B50E4B02689A4258
:10046C0015D103F564439A691B2042F400629A612A
:10047C0000229B69114603F400630193019B00F079
:10048C00E7FE1B2003B05DF804EB00F00FBF03B0D8
:10049C0000BD00BF002C0140FEE7FEE7FEE7FEE7D3
:1004AC00FEE770477047704700F074BB014800F0DE
:1004BC0033BA00BF28000020014800F093BF00BFF2
:1004CC00500000200E4B82B09A6942F001029A61F2
:1004DC009A6902F001020092009ADA6942F08052A5
:1004EC00DA61DB69074A03F080530193019B53687F
:1004FC0023F0E06343F00073536002B0704700BF19
:10050C00001002400000014000F023F80B480C4999
:10051C000C4A002302E0D458C4500433C4188C4253
:10052C00F9D3094A094C002301E013600432A242BA
:10053C00FBD301F0C3FCFFF75FFE70470000002007
:10054C000C000020B01F00080C000020A8060020A2
:10055C00FEE7704738B5044600286ED090F820307E
:10056C000BB9FFF7C3FE2268136843F00103136055
:10057C0000F01CFB054623685A68D10751D51A6850
:10058C0022F002021A6000F011FB054623685A683B
:10059C00920754D4227E0020012A1A680CBF42F024
:1005AC00800222F080021A60627E012A1A680CBF57
:1005BC0042F0400222F040021A60A27E012A1A6820
:1005CC000CBF42F0200222F020021A60E27E012AC7
:1005DC001A680CBF22F0100242F010021A60227F3F
:1005EC00012A1A680CBF42F0080222F008021A60B5
:1005FC00627F012A1A680CBF42F0040222F0040246
:10060C001A60D4E902210A4321690A4361690A4349
:10061C00616801390A43DA610123606284F8203091
:10062C000CE000F0C3FA401B0A28A4D9636A43F417
:10063C0000336362052384F82030012038BD00F0BC
:10064C00B5FA401B0A28A1D9F0E730B590F8203054
:10065C00013B012B61D803684869D3F8002200F0F4
:10066C001F0442F00102C3F800220122A240D3F879
:10067C001C4224EA0204C3F81C42CC699CBBD3F88C
:10068C000C42CD6824EA0204C3F80C428C8803EBBC
:10069C00C00044EA0544C0F840428D680C8844EA26
:1006AC000544C0F84442886978BBD3F8040220EAB8
:1006BC000200C3F80402086958BBD3F8140220EAFC
:1006CC000200C3F814020020096A012902BFD3F802
:1006DC001C120A43C3F81C22D3F8002222F0010298
:1006EC00C3F8002230BD012CDDD1D3F80C420D68CB
:1006FC001443C3F80C428C8803EBC00044EA054455
:10070C00C0F840428D688C89C9E7D3F804021043C5
:10071C00CFE7D3F814021043D3E7436A43F48023A2
:10072C0043620120DEE738B590F820300446012BF7
:10073C001FD10223026880F82030136823F00103D4
:10074C00136000F033FA05462368586810F0010076
:10075C0001D1606238BD00F029FA401B0A28F3D998
:10076C00636A43F400336362052384F8203001206C
:10077C00F0E7436A43F400234362F8E738B590F896
:10078C0020300446022B22D10268136843F0010387
:10079C00136000F00BFA054623685A68D20708D597
:1007AC001A68002022F002021A60012384F820301B
:1007BC0038BD00F0FBF9401B0A28EDD9636A43F4FD
:1007CC0000336362052384F820300120F0E7436A8C
:1007DC0043F480134362F8E770B590F82040013C75
:1007EC00012C78D8056841B9EC68A40707D1436A95
:1007FC0043F400134362012070BD2C69F5E705EB4F
:10080C000114D4F8B06106F004069660002E58D19D
:10081C00D4F8B061760D1660D4F8B06105EB011513
:10082C0006F00206D660D4F8B46136074EBF08262F
:10083C00D4F8B46106F00F061661D4F8B461D4F89C
:10084C00B441C6F30726240C96615461D5F8B8213F
:10085C001A70026802EB0112D2F8B821120A5A700F
:10086C00026802EB0112D2F8B821120C9A700268DD
:10087C0002EB0112D2F8B821120EDA70026802EB08
:10088C000112D2F8BC211A71026802EB0112D2F8E3
:10089C00BC21120A5A71026802EB0112D2F8BC2177
:1008AC00120C9A71026802EB0112D2F8BC21120EE2
:1008BC00DA71036851B9DA6842F02002DA6000207C
:1008CC009AE7D4F8B061F6085660A5E71A6942F0C9
:1008DC0020021A61F3E7436A43F480238AE790F815
:1008EC002030013B012B05D80268002053690B43D3
:1008FC0053617047436A43F480234362012070477D
:10090C007047704770477047704770477047704723
:10091C0070477047704770472DE9F84F03680546DC
:10092C005E69D3F8049016F00104D3F80880D3F86C
:10093C000CB0D3F810A09F6927D018F0010F07D086
:10094C00012218F0020F9A6000F0A880FFF7D8FF80
:10095C00002418F4807F0AD04FF480722B6818F4AE
:10096C00007F9A6000F0A9802846FFF7CAFF18F4B0
:10097C00803F0AD04FF480322B6818F4003F9A6005
:10098C0000F0AB802846FFF7BDFF320707D51BF000
:10099C00100F1FBF10222B6844F40074DA60730729
:1009AC0008D51BF0080F05D008222B682846DA6002
:1009BC00FFF7ACFFB00706D52B68DB68990702D0B0
:1009CC00284600F07FFF720607D51AF0100F1FBFE4
:1009DC0010222B6844F480641A61B30608D51AF00F
:1009EC00080F05D008222B6828461A61FFF790FFE4
:1009FC00F00606D52B681B69990702D02846FFF72D
:100A0C0086FFB20308D519F0100F05D010222B6801
:100A1C0028465A60FFF77DFFF30308D519F0080F3D
:100A2C0005D008222B6828465A60FFF773FF300464
:100A3C002BD519F0040F2A6825D007F0010316F402
:100A4C00807F43EA040318BF1C46B10503D5BB07DE
:100A5C0048BF44F00204700503D5790748BF44F041
:100A6C00040433050FD517F070030CD0402B54D071
:100A7C0043D8202B4BD0302B4CD0102B44D0936927
:100A8C0023F070039361042353602CB16B6A2846E6
:100A9C0023436B62FFF73FFFBDE8F88F18F0040F9C
:100AAC0005D118F0080F05D1FFF72DFF50E74FF4D3
:100ABC0000644EE74FF480544BE718F4806F02D07B
:100ACC0044F4005453E718F4006F02D044F480440B
:100ADC004DE72846FFF718FF49E718F4802F02D09E
:100AEC0044F4004451E718F4002F02D044F480344D
:100AFC004BE72846FFF709FF47E7502B10D0602B38
:100B0C00BDD144F48074BAE744F00804B7E744F06C
:100B1C001004B4E744F02004B1E744F04004AEE71D
:100B2C0044F08004ABE7000038B50E4B05461A784C
:100B3C004FF47A73B3FBF2F30B4A1068B0FBF3F08B
:100B4C0000F0C2FB044658B90F2D09D802462946BD
:100B5C004FF0FF3000F07CFB2046044B1D6038BD8D
:100B6C000120FCE704000020000000200800002009
:100B7C00074A08B51368032043F01003136000F014
:100B8C0055FB0F20FFF7D0FFFFF79CFC002008BDA2
:100B9C0000200240034A044B11681B780B4413607D
:100BAC00704700BF9800002004000020014B18681B
:100BBC00704700BF980000202DE9F341054638B37B
:100BCC000368DB0710D42B689F075ED42B681907CA
:100BDC0000F195802B685A0700F1C180EB69002B5E
:100BEC0040F02E81002029E0914C636803F00C0347
:100BFC00042B07D0636803F00C03082B0AD163683D
:100C0C00DE0307D523689C03DDD56B68002BDAD196
:100C1C00012013E06B68B3F5803F12D1236843F4D5
:100C2C0080332360FFF7C2FF064623689803CAD4BB
:100C3C00FFF7BCFF801B6428F7D9032002B0BDE886
:100C4C00F0819BB9236823F480332360236823F459
:100C5C0080232360FFF7AAFF064623689903B2D5C9
:100C6C00FFF7A4FF801B6428F7D9E6E7B3F5A02FA4
:100C7C00236803D143F480232360CFE723F480332C
:100C8C002360236823F48023CBE7694C636813F05B
:100C9C000C0F07D0636803F00C03082B10D16368AA
:100CAC00DA030DD423689B0702D52B69012BAFD136
:100CBC0023686A6923F0F80343EAC203236085E7DB
:100CCC002A695C4B6AB101221A60FFF76FFF064676
:100CDC0023689F07ECD4FFF769FF801B0228F7D924
:100CEC00ABE71A60FFF762FF0646236898077FF5AB
:100CFC006DAFFFF75BFF801B0228F6D99DE7AA6951
:100D0C004B4C4C4BE2B10122C3F88024FFF74EFF51
:100D1C000646636A9B070DD54FF4FA52464B1B6887
:100D2C00B3FBF2F3019300BF019B5A1E0192002BFF
:100D3C00F9D14FE7FFF73AFF801B0228E9D97CE78E
:100D4C00C3F88024FFF732FF0646636A9F077FF5DE
:100D5C0041AFFFF72BFF801B0228F6D96DE7344C0F
:100D6C00E369D80024D40127E36943F08053E3619D
:100D7C00E36903F080530093009B304E3368D90530
:100D8C0018D5EB68012B26D1236A43F001032362AB
:100D9C00FFF70CFF41F288368046236A9B0740D54B
:100DAC00002F3FF41BAFE36923F08053E36115E799
:100DBC000027E2E7336843F480733360FFF7F6FEF5
:100DCC0080463368DA05DCD4FFF7F0FEA0EB0800B0
:100DDC006428F6D931E7B3B9236A41F2883623F097
:100DEC0001032362236A23F004032362FFF7DEFE70
:100DFC008046236A9807D3D5FFF7D8FEA0EB0800EE
:100E0C00B042F6D919E7052B236A03D143F004034A
:100E1C002362B9E723F001032362236A23F004035E
:100E2C00B5E7FFF7C3FEA0EB0800B042B5D904E765
:100E3C000010024000004242000000200070004000
:100E4C002A4C626802F00C02082A3ED00022022BC7
:100E5C00274B1A662CD1FFF7A9FE06462368990189
:100E6C0020D42B6AB3F5803F05D16268A96822F4BF
:100E7C0000320A436260696A62680B4322F474129E
:100E8C001343012263601A4B1A66FFF78FFE054667
:100E9C0023689A013FF5A6AEFFF788FE401B022897
:100EAC00F6D9CAE6FFF782FE801B0228D6D9C4E623
:100EBC00FFF77CFE054623689B017FF593AEFFF799
:100ECC0075FE401B0228F6D9B7E6012B3FF4A0AE05
:100EDC0060682B6A00F480329A427FF499AE6B6A98
:100EEC0000F47010C01A18BF0120A7E600100240D1
:100EFC00000042420D4A536803F00C01082912D13C
:100F0C000B48C3F38341DB03405C09D55368094AA2
:100F1C00C3F340435043084AD35CB0FBF3F0704733
:100F2C00064B584370470348704700BF00100240FF
:100F3C00881F000800127A00861F000800093D0077
:100F4C002DE9F04104460D4610B90120BDE8F081B1
:100F5C00444A136803F007038B4228D321688E0799
:100F6C0030D4CA0743D43F4A136803F00703AB429B
:100F7C0065D822683C4D12F0040F6CD1130706D5CE
:100F8C006B68226923F4605343EAC2036B60FFF77A
:100F9C00B1FF6B68354AC3F30313D35CD840344BB1
:100FAC001860344B1868FFF7BFFD0020CEE71368BC
:100FBC0023F007030B431360136803F007038B4202
:100FCC00C3D1CBE7284B11F0040F1EBF5A6842F473
:100FDC00E0625A60080742BF5A6842F460525A6095
:100FEC005A68A06822F0F00202435A60B9E76268BE
:100FFC001D4E012A33681AD113F4003FA5D0736833
:10100C0041F2883823F0030313437360FFF7CEFDDE
:10101C0007467368626803F00C03B3EB820FA2D02F
:10102C00FFF7C4FDC01B4045F3D903208EE7022A0D
:10103C0002D113F0007FE1E713F0020FDEE7136833
:10104C0023F007032B431360136803F00703AB4231
:10105C007FF47BAF8DE76B68E16823F4E0630B43AF
:10106C006B608BE70020024000100240761F0008E6
:10107C0000000020080000202DE9F74F00244FF05D
:10108C00010826464FF00F0EDFF880C1604B0A684E
:10109C0032FA06F502D103B0BDE8F08F08FA06F774
:1010AC0002EA070537EA020278D14A68032A07D810
:1010BC00013A022A00F28580DFE802F093989E0044
:1010CC00122A00F096806BD8112A00F08C80FF2D2C
:1010DC0093BF0746A6F10809071D4FEA860988BF8A
:1010EC004FEA89093A680EFA09FA22EA0A0204FA66
:1010FC0009F942EA09023A60D1F8049019F0805FCC
:10110C004CD0DCF8182026F0030742F00102CCF892
:10111C001820DCF8182007F1804702F00102019238
:10112C0007F5803706F0030A019A4FEA8A0ABA6873
:10113C000EFA0AFB22EA0B0B364A904260D002F5FB
:10114C00806290425ED002F5806290425CD002F5E3
:10115C008062904214BF0422032202FA0AF242EA8D
:10116C000B02BA609A6819F4801F14BF2A43AA4371
:10117C009A60DA6819F4001F14BF2A43AA43DA6094
:10118C005A6819F4003F14BF2A43AA435A601A68DC
:10119C0019F4803F14BF2A43AA431A60013676E73C
:1011AC00DFF874904A450CD014D8A9F580194A453B
:1011BC0007D009F570294A4503D0A9F580194A458D
:1011CC0085D18A68D2B1012A4FF008040CBF07619F
:1011DC0047617CE7DFF844904A45F2D009F5803945
:1011EC00EDE7CC6873E7CC68043470E7CC6808345E
:1011FC006DE7CC680C346AE7002468E7042466E7E2
:10120C000022AAE70122A8E70222A6E7001002406A
:10121C0000040140000801400000221000003110C1
:10122C000AB1016170470904FBE70000074903029A
:10123C00CA6803F4E06322F4E0621204120C134354
:10124C0043F0BF6343F40033CB60704700ED00E024
:10125C00144B30B5DB684FF0FF34C3F30223DD1EB3
:10126C00042D86BF04230025C3F1070304FA03F3FE
:10127C0021EA0301AC40002822EA040201FA05F13C
:10128C0041EA0201ACBF00F16040074A4FEA01138A
:10129C00ABBF00F5614000F00F0080F80033135431
:1012AC0030BD00BF00ED00E014ED00E0002807DBCE
:1012BC0001234109034A00F01F00834042F821300A
:1012CC00704700BF00E100E00138B0F1807F0BD225
:1012DC004FF0E023F021054A586182F823100020DA
:1012EC00072298611A6170470120704700ED00E0F9
:1012FC00036A026A70B522F00102026244688269D4
:10130C000D6822F073022A438D6823F002032B43ED
:10131C000A4DA8420BD1CD6823F008032B4324F4CB
:10132C004074D1E90556354323F004032C43446043
:10133C0082614A684263036270BD00BF002C0140A9
:10134C00036A026A70B522F4807202624468C26950
:10135C000D6822F073022A438D6823F4007343EA6C
:10136C0005230B4DA8420DD1CD6823F4006343EA4D
:10137C00052324F44054D1E90556354323F4806306
:10138C0044EA05144460C2614A68C263036270BDDA
:10139C00002C0140036A026A30B522F480520262CA
:1013AC004468C2690D6822F4E64242EA05228D685F
:1013BC0023F4005343EA0533064DA84202BF4D699E
:1013CC0024F4804444EA85144460C2614A6802648F
:1013DC00036230BD002C0140704770477047704766
:1013EC0070477047036870B5DD681E690446B10725
:1013FC000DD5AA070BD56FF002021A6101220277F4
:10140C009B699B0769D0FFF7EAFF002323777107DD
:10141C0010D56A070ED56FF00402236820461A61B6
:10142C00022222779B6913F4407F5CD0FFF7D7FF31
:10143C000023237733070FD528070DD56FF008024B
:10144C00236820461A6104222277DB69990750D061
:10145C00FFF7C5FF00232377F20610D5EB060ED558
:10146C006FF01002236820461A6108222277DB698C
:10147C0013F4407F43D0FFF7B2FF00232377F0072C
:10148C0008D5E90706D56FF00102236820461A61DA
:10149C00FFF7A3FF320608D52B0606D56FF08002A6
:1014AC00236820461A6100F0C6F9700608D5690653
:1014BC0006D56FF04002236820461A61FFF791FFB2
:1014CC00B20622D5AB0620D56FF020022368204649
:1014DC00BDE870401A6100F0ADB9FFF77FFF204600
:1014EC00FFF77EFF91E7FFF779FF2046FFF778FFC4
:1014FC009EE7FFF773FF2046FFF772FFAAE7FFF79F
:10150C006DFF2046FFF76CFFB7E770BD1E4A0368FE
:10151C0090420AD0B0F1804F07D0A2F5943290429D
:10152C0003D002F58062904215D14A6823F0700313
:10153C001343154A90420AD0B0F1804F07D0A2F560
:10154C009432904203D002F58062904203D1CA6873
:10155C0023F4407313434A6923F08003134303605D
:10156C008B68C3620B688362074B984204BF0B699C
:10157C000363012343610369DB0742BF036923F063
:10158C0001030361704700BF002C014010B50446F5
:10159C0030B390F83D3003F0FF021BB980F83C20CB
:1015AC00FFF71AFF0223206884F83D30211DFFF756
:1015BC00ADFF0123002084F8463084F83E3084F8D7
:1015CC003F3084F8403084F8413084F8423084F85D
:1015DC00433084F8443084F8453084F83D3010BDF5
:1015EC000120FCE710B5044630B390F83D3003F011
:1015FC00FF021BB980F83C20FEF72EFF0223206867
:10160C0084F83D30211DFFF781FF0123002084F871
:10161C00463084F83E3084F83F3084F8403084F80B
:10162C00413084F8423084F8433084F8443084F8F4
:10163C00453084F83D3010BD0120FCE7036A026A96
:10164C0070B522F010020262446882690D6822F4BF
:10165C00E64242EA05228D6823F0200343EA051393
:10166C000B4DA8420DD1CD6823F0800343EA05133E
:10167C0024F44064D1E90556354323F0400344EA91
:10168C008504446082614A688263036270BD00BF56
:10169C00002C014010B590F83C300446012B1DD0B5
:1016AC00082A17D007D862B1042A0FD001200023D2
:1016BC0084F83C3010BD0C2AF8D10068FFF76AFEA4
:1016CC0002E00068FFF714FE0020F0E70068FFF767
:1016DC00B5FFF9E70068FFF733FEF5E70220E9E70D
:1016EC0038B590F83C300446012B4DD0082A3BD03D
:1016FC0007D8C2B1042A27D00120002384F83C303B
:10170C0038BD0C2AF8D10068FFF744FEC3690A699A
:10171C0043F40063C361C36923F48063C361C36989
:10172C0043EA02232EE00068FFF7E2FD83690A69B1
:10173C0043F008038361836923F0040383618369A5
:10174C00134383610020D8E70068FFF777FF8369B4
:10175C000A6943F400638361836923F480638361C2
:10176C00836943EA0223ECE70068FFF7E9FDC369EC
:10177C000A6943F00803C361C36923F00403C3611E
:10178C00C3691343C361DDE70220B9E730B590F8B4
:10179C003C300246012B4FF0020022D0136882F835
:1017AC003D005C680D6824F070042C4398685C6004
:1017BC000C4CA3420AD0B3F1804F07D0A4F594345B
:1017CC00A34203D004F58064A34204D1496820F0FD
:1017DC008000084398600123002082F83D3082F895
:1017EC003C0030BD002C014090F83C30012B1FD048
:1017FC00CB688A6823F4407313434A6823F48063EC
:10180C0013430A6823F4006313430A6923F48053D7
:10181C0013434A6923F400531343CA6923F48043E6
:10182C00134302685364002380F83C301846704719
:10183C00022070477047704700B58BB028220021FA
:10184C00684600F033FB1148FEF798FF00234FF673
:10185C00E07006210122CDE90533CDE90033049374
:10186C000E23CDE9020169460848079208920993B4
:10187C00FEF7EBFE38B902210448FFF730F810B937
:10188C000248FEF750FF0BB000BD00BF280000203F
:10189C00094A0A4910780B78984203D1084B1A78F8
:1018AC003AB9704713781378013303F007031370B8
:1018BC00F0E700221A7070479D0000209E00002067
:1018CC009C0000202DE9F0418AB004461C22002126
:1018DC0003A800F0EBFA0021204601AB03AACDE9E6
:1018EC000111FEF779FF68B9DFF850C0144B9CF872
:1018FC0000701B78013707F007079F4205D10122C2
:10190C00104B1A700AB0BDE8F0814FF0240E9CF811
:10191C0000500D4E03AC0EFB05650FCC0FC594E8C3
:10192C0007009CF8003085E80700DDE901010EFB9B
:10193C0003668CF80070C6E90701E3E79E000020FF
:10194C009D0000209C000020A000002008B500F0A5
:10195C00C5F8002008BD0369C26893429CBF81682A
:10196C005B18013B981A70472DE9F041D0E90274DD
:10197C0005463E1B4068964220448846144404D9D0
:10198C0000F0C8FAEC60BDE8F0813246E41B00F0D0
:10199C00C1FA2246686808EB0601F1E72DE9F84325
:1019AC000646894617464FF00008C5683369B46887
:1019BC009D4228BF1B19641BBC4228BF3C46013BFF
:1019CC005B1B9C4228BF1C46706849462844224633
:1019DC0000F0A0FAB3682544AB4208BF00253F1BBA
:1019EC00A044A144F560E1D14046BDE8F883000075
:1019FC000323114910B5C1E90433104B104ACB61D4
:101A0C004FF480638A610A660E4A0C460B624A6682
:101A1C00002340228B624B62CB620B67CB664B6719
:101A2C008A66E01D084900F06DFA2046074900F06F
:101A3C0069FA2023A37110BD0006002000020020CB
:101A4C00621F0008C00100206B1F00086F1F0008F8
:101A5C00F8B5182600FB0665124B0F461D4406FB15
:101A6C000033DB6A1446012B0AD0022B14D023B9A5
:101A7C002846FFF770FF844208D900242046F8BDA1
:101A8C002846FFF768FF844228BF044622463946A1
:101A9C002846FFF769FFF1E72846BDE8F840FFF755
:101AAC007DBF00BF00060020F8B50B4B05461B7828
:101ABC000E4617460BB9FFF79BFFEFF311844FF05F
:101ACC00200181F311883A4631462846FFF7C0FFC2
:101ADC0084F31188F8BD00BF00060020FFF788BF13
:101AEC00826810B504464068531C834206D82068AF
:101AFC008154E268A3600132E2601A466368934243
:101B0C000BD121682069FFF7CFFFA368984215BF5E
:101B1C004FF0FF330023E360A36010BD2DE9F84FB5
:101B2C001746064688460A464FF0010A9946DDE9F3
:101B3C000A43BA4222D2CA4538BFCA4613F0010B37
:101B4C0011D184B19B071ED5B9F1000F0CBF302504
:101B5C002025A24507D229463046FFF7C1FFF3687E
:101B6C00013C002B11DAF368002B2CDB0125B9F1B9
:101B7C00010F0ED97D4309F1FF39F8E7B2FBF7F2FB
:101B8C000AF1010AD5E72025E3E7002CE1D1EAE7C9
:101B9C007D43B8FBF5F39F42FAD9124AB8FBF5F92D
:101BAC00304612F80910FFF79BFFF368002B06DB99
:101BBC00BD42B5FBF7F305FB19880A4A05D2BBF108
:101BCC00000F00D05CB9BDE8F88F1D46E6E7202178
:101BDC003046FFF785FFF368013C002BF3DB5445DF
:101BEC00F5D8F0E7981F00082DE9F04F00249BB0C2
:101BFC000AAB059340238846174625460390069367
:101C0C00099098F80010002900F03781252940F040
:101C1C002A814FF0000A08F1010003782D2B17D010
:101C2C0011D8232B1BD02B2B16D00026804610F856
:101C3C00011BA1F13003092B14D80A2303FB061155
:101C4C00A1F13006F2E7302BEFD14AF0020A01E0A5
:101C5C004AF0010A0130E0E74AF0040AFAE74AF0D8
:101C6C00080AF7E72E294FF0000B0ED14FF00A0CA3
:101C7C0001788046A1F1300EBEF1090F05D80CFB9E
:101C8C000B110130A1F1300BF2E701F0FB006828D9
:101C9C0002D118F8011FF8E7782902D908F10108D8
:101CAC00AFE76F2912D8632970D027D8252900F007
:101CBC00D7805829F2D15B463968CDE90754081D05
:101CCC0038600968CDE9006A1022A0E07039082953
:101CDC00E4D801A050F821F0571E0008A91C0008F8
:101CEC00A91C0008231E0008A91C0008071E0008D8
:101CFC00A91C0008A91C0008C31C00086429CDD12C
:101D0C0039684FF00A0CD1F80090081D0121386099
:101D1C0089EAE970A0EBE970092843DC59452CBF2E
:101D2C000291CDF808B036B1B9F1000F02DB1AF010
:101D3C00040F00D0013E1AF0020F02D0BBF1000FCD
:101D4C0004D01AF0010F01D1002E3BD1B9F1000FD4
:101D5C003CDA2D21CDE90754C9F1000905A8FFF79C
:101D6C00BFFEDDE90754002C6BDB0AF003010229EE
:101D7C0004D1BBF1000F01D1002E3AD15B460A22EF
:101D8C004946CDE90754CDE9006A40E03B68CDE90E
:101D9C0007541A1D19783A6005A8FFF7A1FEDDE972
:101DAC00075449E0B0FBFCF00131B5E7202105A850
:101DBC00CDE90754FFF794FE089C002C41DB013E53
:101DCC00079DC3D0029BB342F0D3BFE71AF0040FB8
:101DDC00CBD02B21CDE90754C0E7302105A8CDE9A4
:101DEC000754FFF77DFE089C002C2ADB013E079D63
:101DFC00C4D0029BB342F0D3C0E75B460A223968D9
:101E0C00CDE90754081D38600968CDE9006A05A8BA
:101E1C00FFF784FEC3E73B681A1D3A601E68013E5B
:101E2C0016F8011F41B105A8CDE90754FFF758FE7C
:101E3C00DDE90754002CF3DA08F10108002CBFF699
:101E4C00E0AE20461BB0BDE8F08F3B68CDE90754EF
:101E5C001A1D19683A6008230022CDE9003233E7D5
:101E6C00CDE9075498E705A8CDE9075408F1010816
:101E7C00FFF736FEDDE90754E0E7002CE1D025B191
:101E8C002A4603980AA9FFF70FFE2C44D9E700BF96
:101E9C000EB403B503AB53F8041B01AA0193FFF76F
:101EAC00A3FE02B05DF804EB03B070470346024496
:101EBC00934200D1704703F8011BF9E770B5002677
:101ECC000C4C0D4B1D1BB6EBA50F09D1002600F0D9
:101EDC002FF80A4C0A4B1D1BB6EBA50F05D170BD94
:101EEC0054F8043B98470136EDE754F8043B984707
:101EFC000136F1E7A81F0008A81F0008A81F00085A
:101F0C00AC1F0008034611F8012B03F8012B002A23
:101F1C00F9D170470A44914200F1FF3300D1704768
:101F2C0010B511F8014B914203F8014FF9D110BDD6
:101F3C00F8B500BFF8BC08BC9E467047F8B500BFAA
:081F4C00F8BC08BC9E4670477A
:101F54004572726F722048616E646C6572005465DC
:101F6400726D696E616C0052545400534547474585
:101F740052000000000000000000010203040607F4
:101F84000809010202030405060708090A0B0C0DDF
:101F94000E0F101030313233343536373839414270
:041FA4004344454627
:041FA80075010008B7
:041FAC004D010008DB
:0C1FB00000127A00010000001000000088
:0400000508000515D5
:00000001FF
