:020000040800F2
:10000000080F0020B5010008955200088528000857
:10001000915200085D030008FD5B0008000000002D
:10002000000000000000000000000000515B00081C
:10003000790600080000000099520008D15B000812
:10004000CF010008CF010008CF010008CF01000850
:10005000CF010008CF010008CF010008CF01000840
:10006000CF010008CF010008CF010008CF01000830
:10007000CF010008CF010008CF010008CF01000820
:10008000CF010008CF010008CF010008CF01000810
:10009000F15B0008CF010008CF010008CF01000884
:1000A000CF010008CF010008CF010008D95B00088C
:1000B000E55B0008CF010008CF010008CF01000870
:1000C000CF010008CF010008CF010008CF010008D0
:1000D000CF010008CF010008CF010008CF010008C0
:1000E000CF010008CF010008CF01000800F002F89E
:1000F00000F050F814A696E8000CB244B344DA4578
:1001000001D100F047F8BAE80F000FA696E83000DA
:10011000A5EB040504EB0607AAEB0704A7F101070A
:100120004FEA15154FEA3414A4F10104AC4201D38F
:1001300000F030F813F0010F18BFFB1A43F0010371
:1001400000F001F8DBE718476C8300008C830000A7
:10015000103A24BF78C878C1FAD8520724BF30C8F3
:1001600030C144BF04680C60704700007047000055
:100170000023002400250026103A28BF78C1FBD8B0
:10018000520728BF30C148BF0B6070471FB51FBD65
:1001900010B510BD00F0A8F81146FFF7F7FF06F004
:1001A00057FE00F0C6F803B4FFF7F2FF03BC00F0FF
:1001B000CDF800000948804709480047FEE7FEE700
:1001C000FEE7FEE7FEE7FEE7FEE7FEE7FEE7FEE707
:1001D00004480549054A064B70470000D55B0008F6
:1001E000ED00000808090020080F0020080B00207F
:1001F000080B0020032A40F2308010F0030C00F0BE
:10020000158011F8013BBCF1020F624498BF11F850
:1002100001CB00F8013B38BF11F8013BA2F1040209
:1002200098BF00F801CB38BF00F8013B11F0030381
:1002300000F02880083AC0F0088051F8043B083AE2
:1002400051F804CBA0E80810F5E7121D5CBF51F887
:10025000043B40F8043BAFF30080D20724BF11F801
:10026000013B11F801CB48BF11F8012B24BF00F866
:10027000013B00F801CB48BF00F8012B70477047E5
:100280007047704710B5203AC0F00B80B1E81850A5
:10029000A0E81850B1E81850A0E81850203ABFF470
:1002A000F5AF5FEA027C24BFB1E81850A0E818500F
:1002B00044BF18C918C0BDE810405FEA827C24BF63
:1002C00051F8043B40F8043B08BF7047D20728BFF1
:1002D00031F8023B48BF11F8012B28BF20F8023B40
:1002E00048BF00F8012B7047754600F02BF8AE466A
:1002F00005006946534620F00700854618B020B532
:10030000FFF766FFBDE820404FF000064FF0000702
:100310004FF000084FF0000BAC46ACE8C009ACE869
:10032000C009ACE8C009ACE8C00921F007018D465E
:10033000704710B50446AFF300802046BDE810407A
:10034000FFF731BF004870474000002001491820E6
:10035000ABBEFEE72600020070470000FEE700008B
:10036000F0B58DB040F20C06C2F20006318801F5FE
:10037000807292B290424FF00000ADF80800CDE9D3
:10038000000040F07581129A002A00F05B80159DF4
:100390002878431E302B4FF0010000F24A81DFE83D
:1003A00013F03100B1008700DD0048014801480129
:1003B00048014801480148014801480148014801F5
:1003C000F5009700C300CD004801480148014801ED
:1003D00048014801480148014801480148014801D5
:1003E0002901130148014801480148014801480119
:1003F00048014801480148014801480148014801B5
:1004000065009F00032AC0F01381A878022800F23B
:100410000F8106F08BF868780121002840F21870EF
:10042000C2F2000008BF022106F054FBB5F801102B
:100430002878ADF8041001AA0021022305F0ACFED3
:100440000DB0F0BD01F5C07000214FF4007280B214
:100450000B910591ADF80C20ADF81210CDF80E10EF
:10046000CDE90601CDE90811F7E000BF06F0A8FCD0
:100470000446002706A8CDE9067704F05DFD07993C
:100480002046069405F066FB3088297800F5C07098
:1004900080B201940B970597ADF80C10ADF812706F
:1004A000CDF80E40CDE90607CDE90877D5E000BFCD
:1004B000052AC0F0BD8006F033F8012840F0DA804C
:1004C000D5F80140204606F0C1FF06F059FB53E085
:1004D000012A00F0AD806878694605F057FD33E0E9
:1004E00006F07AF831882A7801F5C071002301906E
:1004F0000B930593ADF80C20ADF81230CDF80E003B
:10050000A6E000BF052AC0F0938006F009F8002895
:1005100040F0B080D5F8010006F02AF82978019063
:1005200001AA08462BE000BF062AC0F08180D5F85A
:1005300002406878214605F06BFE2FE0012A77D053
:100540006878694605F0F0FC014628786A78009BD7
:100550008DF80420CDF8053030E000BF052A67D3C0
:1005600005F0DEFF022840F08580D5F801402046E6
:1005700006F06CFF06F0A4F8287801AA0194002187
:10058000042305F009FE0DB0F0BD00BF062A4FD3CD
:10059000D5F802406878214605F092FE6A78014657
:1005A0008DF80420220A8DF80620220C28788DF878
:1005B0000720220E8DF805408DF8082001AA05239A
:1005C00005F0EAFD0DB0F0BD8DF80410C8B201F5DC
:1005D000C07100222123CDF80E0088B20B92059243
:1005E000ADF80C30ADF81220CDE90602CDE90822B5
:1005F00033E000BF012A1BD06C78601E7E2817D81C
:1006000001AA2020002101238DF8044005F0C4FD3B
:10061000204605F0ADFE348005F044FC40B3287858
:1006200004210022002305F0B7FD0DB0F0BD00BF8E
:1006300002202A783188002342EA002001F5C071A7
:100640000B930593ADF80C00ADF81230CDF80E30D9
:1006500088B2069007930893099308200A9040F205
:10066000F470C2F2000006A903AA05AB00F090F8EE
:100670000DB0F0BD0320DCE77047000048F296445F
:10068000C0F60004EFF3108072B600BF00202146D0
:1006900004F032FFFAE7000070B542F20C0604469F
:1006A000C4F2020600F0DCFE3168C9071CD13068D4
:1006B000800644BF202030603068C00607D430690F
:1006C000C00704D1306840075CBF002070BD3068AF
:1006D000C00640F6B000C2F2000021D4002132680A
:1006E000520725D42AE000BFC4B10546601C10D1D2
:1006F0003068C007DBD03068C0071CBF30685FEAD5
:10070000C070D4D03068C007F2D1D0E73068C007DD
:10071000CDD000F0A5FE401BA042F7D9032070BD4C
:10072000C16941F00201C16110213268520705D54B
:10073000C26941F0040142F00102C2613269D2078C
:1007400002D10120316070BDC26942F00402C26171
:10075000306920F0010030610120316070BD00007F
:1007600090F82020013A012A08D8006800F114020C
:100770000020136819431160704700BF00F1240284
:1007800001204FF480211368194311607047000065
:1007900010B590F820E0D0F800C0AEF1010EBEF127
:1007A000010FDCF808E011D81EF0E05F18D0CEF39E
:1007B00001640120A04018608B68DBB1D1F804E02F
:1007C000C86840EACE0040EA030E17E000F12403B7
:1007D00001204FF480211A681143196010BD00BF39
:1007E00000F1240301204FF400111A68114319602D
:1007F00010BD00BF0868CB6843EA405E0CF5C070CE
:1008000000EB0413240140F804E00C69184640F89A
:10081000044F097D012903D1016841F48071016011
:1008200050680121D8601068986000201A68114350
:10083000196010BD026890F82030013B012B29D8C7
:10084000B0B5D2F80002012340F00100C2F8000266
:10085000D1F814E0CC690EF01F0003FA00F0D2F8D2
:100860001C326FEA000C8343012CC2F81C3217D0F3
:100870006CBBD2F80C3203EA0C03C2F80C32CB6822
:100880008C8844EA034302EBCE04C4F840320B46A2
:1008900015E000BF416A41F48021416201207047A8
:1008A000D2F80C320343C2F80C320B688C8844EA4D
:1008B000034302EBCE04C4F8403201F10C038D680F
:1008C0001B8802EBCE0443EA0543C4F84432D2F855
:1008D00004328C6943EA0005D1F810E0096A002C63
:1008E00008BF03EA0C05C2F80452D2F81432BEF174
:1008F000000F43EA000408BF03EA0C040129C2F810
:10090000144204D1D2F81C120843C2F81C02D2F8D7
:10091000000220F00100C2F800020020B0BD00007B
:1009200070470000B0B590F82040013C012C7DD804
:10093000D0F800C000290CBFDCF80C40DCF81040F7
:10094000A4077DD00CF5D8754FEA011C55F80C4072
:1009500014F00404946055F80CE005EB011C19BF79
:100960004FEADE0555604FEA5E551560DCF8005031
:10097000E64605F00205D5605EF8044F24075ABF2D
:10098000DEF8004004F00F0408241461DEF8004093
:100990000029C4F307249461DEF800504FEA15459E
:1009A0005561DCF808201A70026802EB0112D2F8D7
:1009B000B8214FEA12225A70026802EB0112D2F8F3
:1009C000B8214FEA12429A70026802EB0112D2F883
:1009D000B8214FEA1262DA70026802EB0112D2F813
:1009E000BC211A71026802EB0112D2F8BC214FEA55
:1009F00012225A71026802EB0112D2F8BC214FEAAE
:100A000012429A71026802EB0112D2F8BC214FEA3D
:100A10001262DA7100680CBF00F10C0100F11001E4
:100A2000002020220B681A430A60B0BD00F12401A7
:100A300001204FF480220B681A430A60B0BD00BF4A
:100A400000F1240101204FF400120B681A430A60E0
:100A5000B0BD00002DE9F04F81B004460068466942
:100A6000D0F804908768D0F80CB0D0F810A0D0F877
:100A70001880F10704D1002530071DD424E000BF01
:100A8000F90710D00121BA07816009D4780700F175
:100A9000AF80380700F1B680204600F07DFA02E012
:100AA000204600F07BFA0025F80500F18780F80366
:100AB00000F1B180300707D51BF0100004D020688A
:100AC00045F400751021C160700708D51BF00800BF
:100AD00005D020680821C160204600F0ADF9B007BC
:100AE00006D52068C068800702D0204600F0A6F92D
:100AF000700607D51AF0100004D0206845F4806510
:100B000010210161B00608D51AF0080005D0206850
:100B100008210161204600F0DBF9F00606D52068C7
:100B20000069800702D0204600F0D4F9B00308D550
:100B300019F0100005D0206810214160204600F017
:100B4000CBF9F00308D519F0080005D0206808217A
:100B50004160204600F02CFA300440F19B805FEAAF
:100B6000497040F1948006F4807008EA1020284310
:100B70005FEA8871014648BF41F00201B20558BFE3
:100B800001465FEA48700D4648BF45F00405700510
:100B900058BF0D46300540F17A8018F0700000F023
:100BA00076801038000905286CD8DFE800F003656E
:100BB0005D61596945F0080564E000BF20684FF4A5
:100BC0008071BA0581600BD4780515D438051DD421
:100BD000204600F0E5F9F8037FF56CAF1BE000BF9D
:100BE000204600F0DFF9F8037FF564AF13E000BFA3
:100BF0004FF4006558E700BF05F50055F8037FF591
:100C000059AF08E04FF480554EE700BF05F5804529
:100C1000F8037FF54FAF20684FF48031BA0381604D
:100C20000AD4780310D4380314D4204600F0BCF959
:100C300030073FF541AF47E7204600F0B7F93007EE
:100C40003FF53AAF40E700BF05F5004530073FF5F7
:100C500033AF39E705F5803530073FF52DAF33E782
:100C600045F080050EE000BF45F020050AE000BF1A
:100C700045F0400506E000BF45F0100502E000BF6A
:100C800045F480752068816921F0700181612068D8
:100C90000421416055B1606A40EA05012046616265
:100CA00001B0BDE8F04FFFF73BBE00BF01B0BDE8AB
:100CB000F08F0000002804BF01207047B0B5044643
:100CC00090F8200010B9204600F06EF82068016806
:100CD00041F00101016000F0C3FB05462068416856
:100CE000C90705D100F0BCFB401B0B28F6D310E070
:100CF000016821F00201016000F0B2FB054600BF6F
:100D00002068416889070DD500F0AAFB401B0B281D
:100D1000F6D3606A052140F400306062012084F857
:100D20002010B0BD217E0268012922F0800208BF98
:100D300080320260617E0268012922F0400208BF11
:100D400040320260A17E0268012922F0200208BF21
:100D500020320260E17E0268012922F0100218BFF1
:100D600010320260217F0268012922F0080208BFC8
:100D700008320260617F0268012922F0040208BF84
:100D800004320260D4E901C2D4E9033561691A432F
:100D90002A431143ACF101021143C161002001213A
:100DA000606284F82010B0BDB0B586B040F6000493
:100DB000C4F201040068A4F5244200219042059188
:100DC000CDE90311029101D006B0B0BD41F2180087
:100DD000C4F20200426802AD42F000724260426812
:100DE00002F000720192019A026842F0040202606D
:100DF000006800F00400019001984FF40060CDE914
:100E0000020104912046294600F00EFA4FF480506A
:100E1000029002200390032005902046294600F00E
:100E200003FA14200021002200F09AFB142000F0A5
:100E300085FB06B0B0BD0000704700002DE9F04111
:100E40008AB0002103AA6B460991CDE90711CDE9CB
:100E50000511CDE90311CDE90011FFF763FD18B1CC
:100E60000AB0BDE8F08100BF40F20410C2F20000F9
:100E700081784278013101F00701914204D10121CA
:100E800001700AB0BDE8F081827840F2F85CDDE9DB
:100E900003E702EBC202C2F2000C07AD0CEB8203C7
:100EA000DDE905864CF822E034CDC3E90178C3E9D9
:100EB0000362C3E905458278DDE9003702EBC2022F
:100EC0000CEB8202C2E9073781700AB0BDE8F081FD
:100ED000704700007047000070470000B0B504463E
:100EE00090F8200001281DD1022084F820002068FD
:100EF000016821F00101016000F0B2FA054600BF6F
:100F000020684068C00713D000F0AAFA401B0B28E5
:100F1000F6D3606A40F400306062052084F8200057
:100F20000120B0BD606A40F4002060620120B0BDC5
:100F300000206062B0BD0000B0B5044690F820000B
:100F4000022819D12068016841F00101016000F018
:100F500087FA054620684168C90713D100F080FA76
:100F6000401B0B28F6D3606A40F400306062052015
:100F700084F820000120B0BD606A40F480106062F7
:100F80000120B0BD016821F002010160012084F858
:100F900020000020B0BD0000704700007047000036
:100FA0007047000070470000704700007047000065
:100FB00070470000B0B5044600F052FA054640F212
:100FC0000000C2F200000078611C18BF044400BF9A
:100FD00000F046FA401BA042FAD3B0BD2DE9F04321
:100FE00081B040F6B005C2F200052A7E012A03D185
:100FF000022001B0BDE8F08304460120266828766F
:101000004CF250308846FFF747FB022E1CD10028D7
:101010004ED1002042F21004E861C4F202042068BC
:1010200040F004002060206840F0400020604CF256
:101030005030FFF731FB216821F0040121600021CD
:10104000297601B0BDE8F08390BB4FF0FF30C8F8BF
:101050000000D4E9027007EB8020874228D242F2D8
:101060001006C4F202064FF0000900BFC5F81C903C
:10107000306840F0020030607760306840F0400037
:1010800030604CF25030FFF707FB316821F002016D
:10109000316098B9D4E9020107F5806700EB81203F
:1010A0008742E3D300200021297601B0BDE8F08318
:1010B00001200021297601B0BDE8F083C8F8007056
:1010C0000021297601B0BDE8F083000042F2100152
:1010D000C4F20201086840F0800200200A607047F4
:1010E0002DE9F04381B040F6B007C2F20007164682
:1010F0003A7E012A04D1022001B0BDE8F08300BF8E
:101100000546012038764CF250300C469946FFF7E0
:10111000C3FA28B10021397601B0BDE8F08300BFE1
:1011200042F210080020C4F20208F861D8F800006A
:1011300040F00100C8F800004CF250302680FFF764
:10114000ABFAD8F80010002821F00101C8F800100F
:1011500018BF0046DED1012DDCD00020F861D8F8A0
:101160000000310C40F00100C8F800004CF2503093
:101170006180FFF791FAD8F80010002821F00101F2
:10118000C8F80010C6D1E81E10F1030F4FF00000A0
:10119000C0D8F861D8F8000040F00100C8F800009D
:1011A0004CF25030A4F80490FFF776FAD8F800100B
:1011B000002821F00101C8F80010ABD10020F8612F
:1011C000D8F800004FEA194140F00100C8F80000CB
:1011D0004CF25030E180FFF75FFAD8F80010002899
:1011E00021F00101C8F8001018BF0046002139762F
:1011F00001B0BDE8F083000042F20400C4F2020036
:10120000C16809065CBF0020704740F22311C4F298
:101210006751016048F6AB11CCF6EF510160C06830
:10122000C0B2C009704700002DE9F04F82B00E68CF
:10123000002E00F0FD8041F20042C4F201020423BE
:1012400040F2004E904208BF03234FF6FF7CC4F2E9
:10125000010E009300240123C1F2100C4FF0000A8C
:101260004FF000094BE000BF41F20002C4F201025E
:10127000009F904208BF022704F00C030F229A40FF
:101280002BEA020207FA03F34FEA9A051A4346F8DB
:1012900025204E6840F20C45F202DEF8082054BFCB
:1012A00022EA080242EA0802C4F20105CEF8082048
:1012B0002A68B30254BF22EA080242EA08022A60FE
:1012C000B303DEF8042054BF22EA080242EA08020F
:1012D000F303CEF80420DEF800204FF0010354BFE2
:1012E00022EA080242EA0802CEF800200E680AF15B
:1012F000010A36FA0AF204F1040400F0998003FAB4
:101300000AFB16EA0B08F1D04E68664512DC122E75
:1013100056D8DFE806F0350B4D495555555555550E
:101320005555555555555545510000BFD1F80C90B0
:1013300046E000BF4FF6FF72C1F2210296420FDC79
:101340000022C1F2110296421AD00022C1F212020A
:10135000964215D00022C1F22102964210D02FE011
:101360000022C1F2220296420AD00022C1F23102CA
:10137000964205D00022C1F23202964220D100BF2F
:101380008A684AB1012A14BFC0F814B0C0F810B07E
:101390004FF0080914E000BF4FF0040910E000BF4F
:1013A000CA6802F104090BE04FF0000908E000BF31
:1013B000CA6802F1080903E0CA6802F10C0900BF1B
:1013C00002462646B8F5807F24BF0432203E1768C7
:1013D0000F25B54027EA050509FA06F635431560DD
:1013E000CA79D2067FF582AF41F21803C4F2020334
:1013F0001A68AEF57E7642F001021A601A6802F0B1
:1014000001020192019A2AF0030256F802B040F656
:101410000002C4F20102904208D040F60042C4F239
:10142000010290427FF420AF012725E7002723E740
:1014300002B0BDE8F08F00008068084018BF0120AE
:1014400070470000C26802EA0103914341EA034188
:1014500001617047002A08BF09040161704700005C
:1014600040F60410C2F200000068704740F200002D
:1014700040F60411C2F20000C2F2000100780A68CE
:10148000104408607047000080B542F20000C4F2CA
:101490000200016841F010010160032000F08CF8A7
:1014A0000F2000F005F800F027F8002080BD0000B4
:1014B00070B540F20006C2F2000640F20801327830
:1014C000C2F200014FF47A730968B3FBF2F20446EA
:1014D000B1FBF2F1084600F05DFB0F2C4FF0010567
:1014E00008D838B94FF0FF3021460022002500F01F
:1014F00037F87460284670BD82B041F21800C4F21B
:1015000002000168022241F001010160016801F05E
:10151000010101910199416841F0805141604068A9
:1015200000F08050009000980420C4F2010001688F
:1015300062F31A61016002B070470000002848BFE2
:10154000704700F01F01012202FA01F11C2202EA99
:10155000D0004EF20012CEF200028150704700001F
:1015600010B54EF60C5CCEF2000CDCF80030C3F384
:10157000022E8EF00704042C28BF0424BEF10303BE
:101580004FF0FF3E0EFA04F438BF0023A143994008
:101590000EFA03F39A43114300F00F0200F1604387
:1015A0000901043A03F564436244002848BF02F18C
:1015B0000C03197010BD00004EF60C51CEF2000164
:1015C0000A684FF6FF031A4060F30A2242F0806077
:1015D00040F0FD7008607047002804BF012070478C
:1015E0002DE9F04381B042F20008C4F2020804463B
:1015F000D8F800000D4600F0070081420CD9D8F859
:10160000000020F007002843C8F80000D8F80000C8
:1016100000F00700A8426CD1206841F2040981075C
:10162000C4F2020917D5410705D5D9F8001041F4D5
:10163000E061C9F80010010705D5D9F8001041F4A0
:101640006051C9F80010D9F80010A26821F0F0012B
:101650001143C9F80010C00742D1D8F8000000F0CB
:10166000070085420CD2D8F8000020F0070028437C
:10167000C8F80000D8F8000000F00700A84238D1F0
:101680002068410707D5D9F80010E26821F4E0612D
:101690001143C9F80010000708D5D9F800002169E6
:1016A00020F4605040EAC100C9F80000D9F80020D9
:1016B00002F00C00082841F20020C0F27A004DD15F
:1016C00047F60E03C2F38341C0F60003595CD20310
:1016D00038D440F60010C0F23D0048433EE000BF61
:1016E000606859F8041C022808D0012826D1890313
:1016F00006D4012001B0BDE8F08300BF8901F8D510
:10170000D9F8001021F003010843C9F80000FFF7E1
:10171000A7FE064641F28837D9F80000616800F05C
:101720000C00B0EB810F98D0FFF79AFE801BB842F7
:10173000F2D9032001B0BDE8F08300BF8907D8D5F6
:10174000DEE700BFD9F8002047F60603C2F34042A7
:10175000C0F600039A5C4843B0FBF2F0D9F80010E1
:1017600047F2F672C1F30311C0F60002515C40F279
:10177000080220FA01F140F20400C2F20000006801
:10178000C2F200021160FFF793FE002001B0BDE835
:10179000F0830000002804BF012070472DE9F041CC
:1017A00082B00446007841F20006C007C4F2020687
:1017B0000CD0706800F00C00042840F08180306884
:1017C000800303D56068002800F0468120788007F8
:1017D0001BD5706810F00C0F09D0706800F00C0079
:1017E000082840F087807068C00300F1838030686B
:1017F000800703D52069012840F02E813068616997
:1018000020F0F80040EAC10030602078000713D4CF
:10181000207840072CD4E569002D00F0188170680D
:1018200000F00C00082840F0A780012D40F0048152
:10183000012002B0BDE8F081A069002800F084809A
:101840000020C4F242200121C0F88014FFF708FEF6
:10185000054600BF706A800700F1B280FFF700FE06
:10186000401B0228F6D9032002B0BDE8F08100BF7A
:10187000F0695FEAC00808D4F06940F08050F06178
:10188000F06900F080500090009847F20007C4F221
:1018900000073868C00549D4386840F48070386063
:1018A000FFF7DEFD054600BF3868C0053ED4FFF7F0
:1018B000D7FD401B6428F7D9032002B0BDE8F081B2
:1018C000706800F00C00082803D17068C0033FF571
:1018D00076AF61683068002900F00C81B1F5A02F67
:1018E00000F00081B1F5803F40F01A8140F4803073
:1018F0001CE100BF2069002840F20000C4F2422031
:1019000000F0888001210160FFF7AAFD054600BFB5
:10191000306880073FF572AFFFF7A2FD401B022839
:10192000F6D9032002B0BDE8F08100BFE168306A5B
:10193000002900F09D80052900F09280012940F0E7
:10194000AF8040F00100B1E00020C4F2422000214D
:10195000C0F88014FFF784FD054600BF706A800759
:101960007FF556AFFFF77CFD401B0228F6D9032018
:1019700002B0BDE8F08100BF0027C4F2422700207A
:101980003866FFF76DFD022D05460DD130688001E8
:1019900040F1DE80FFF764FD401B02284FF003009A
:1019A000F4D902B0BDE8F081306880014FD5FFF76F
:1019B00057FD401B02284FF00300F5D9F1E700BFA7
:1019C00040F20800C2F20000006844F6D351C1F2B0
:1019D0006201A0FB0101480A019000BF00BF01980D
:1019E000411E002801913FF413AF00BF0198411E32
:1019F000002801913FF40CAF00BF0198411E002860
:101A000001913FF405AF00BF0198411E00280191EC
:101A1000E4D1FDE600210160FFF722FD054600BF8D
:101A2000306880077FF5F1AEFFF71AFD401B0228F2
:101A30004FF00300F4D9B4E77068216A00F48032F3
:101A40008A4209D1616A00F47010884204D10020F2
:101A500002B0BDE8F08100BF012002B0BDE8F08116
:101A600040F004003062306A40F001001EE000BF28
:101A700020F001003062306A20F004003062FFF78D
:101A8000EFFC054641F28837306A800720D5FFF722
:101A9000E7FC401BB8424FF00300F5D981E700BFD7
:101AA00020F001003062306A20F004003062FFF75D
:101AB000D7FC054641F28837306A800708D4FFF723
:101AC000CFFC401BB842F7D9032002B0BDE8F0813B
:101AD000B8F1000F3FF59FAEF06920F08050F06143
:101AE00099E600BF40F480203060306840F48030D8
:101AF0001CE000BF20F480303060306820F480208B
:101B00003060FFF7ADFC0546306880037FF55EAEC0
:101B1000FFF7A6FC401B64284FF00300F4D940E710
:101B200020F480303060306820F480203060FFF78F
:101B300097FC0546306880033FF548AEFFF790FC00
:101B4000401B6428F6D9032002B0BDE8F08100BF35
:101B5000206AB0F5803F05D17168A26821F4003198
:101B6000114371607168626A21F474111143084372
:101B7000706001203866FFF773FC0446306880010E
:101B80003FF565AFFFF76CFC001B02284FF0030028
:101B9000F4D906E7411E0020B0EB116F1CBF0120F5
:101BA00070474EF21002CEF2000251604EF6235101
:101BB000CEF20001F0230B70072190601160704796
:101BC000704700007047000090F83C20012A04BFD5
:101BD00002207047B0B501F108053CCDD1E900CE37
:101BE00023F47C5322F470521A432EF4F0431A4328
:101BF0002CF4E0431A4324F4C0431A432A43C9692E
:101C000022F48042036811435964002180F83C109B
:101C10000020B0BD90F83C20012A4FF0020236D0DF
:101C200010B580F83D200268D2F804E0D2F808C070
:101C30000C682EF07003234340F2FF74C4F20004DA
:101C4000A24253600ADCB2F1804F13D040F200434D
:101C5000C4F200039A420DD011E000BF42F60043E7
:101C6000C4F201039A4205D040F60003C4F2000317
:101C70009A4204D149682CF08003194391600121F4
:101C8000002280F83D1080F83C20BDE8104010464E
:101C900070470000002804BF0120704710B590F87D
:101CA0003D1031B9002180F83C10044600F070F876
:101CB0002046022180F83D10016840F2FF740B6855
:101CC000C4F2000442F6004CA142C4F2010C15DC3F
:101CD000B1F1804F1AD040F20042C4F200029142AA
:101CE00014D0A14218DCB1F1804F1DD040F2004267
:101CF000C4F20002914217D01AE000BF614505D03E
:101D000040F60002C4F200029142EAD1826823F058
:101D100070031343A142E6DD614505D040F60002A1
:101D2000C4F20002914203D1026923F440731343C9
:101D3000846923F08002D0F804E0C368224361453F
:101D40000A60CB62C1F828E002D14269CCF83020A9
:101D500001224A610B69DB0703D00B6923F0010301
:101D60000B6180F8462080F83E2080F83F2080F804
:101D7000402080F8412080F8422080F8432080F8FD
:101D8000442080F8452080F83D20002010BD000050
:101D900010B582B00068B0F1804F17D042F6004114
:101DA000C4F2010188422BD141F21800C4F20200B2
:101DB0000168002241F4006101600068002100F424
:101DC0000060019001981B201B2410E041F21800D4
:101DD000C4F202004168002241F001014160406804
:101DE000012100F00100009000981C201C24FFF746
:101DF000B7FB204602B0BDE81040FFF79FBB00BF15
:101E000002B010BD90F83D1001291CBF01207047A1
:101E1000022180F83D10006840F2FF72C168C4F2F0
:101E20000002904241F00101C16009DCB0F1804F35
:101E300012D040F20041C4F2000188420CD012E0FE
:101E400042F60041C4F20101884205D040F600018B
:101E5000C4F20001884206D1816801F00701062919
:101E600004BF00207047016841F0010101600020BB
:101E70007047000090F83C20012A4FF002026CD01D
:101E800080B580F83D20D0F800C04FF67772DCF8BE
:101E9000083023EA0202CCF808200B684F2B29DC1B
:101EA0001F2B45DD202B46D0302B44D0402B40F05B
:101EB000AF80D1F804E0C968DCF82030DCF82020DD
:101EC00022F00102CCF82020DCF8182022F0F002E9
:101ED00042EA011123F00A0242EA0E02CCF818107D
:101EE000CCF82020DCF8081041F0470121F0300147
:101EF00028E000BF6F2B33DDB3F5005F74D0B3F57E
:101F0000805F21D0702B40F08380D1E901E3C96864
:101F1000DCF8082043EA0E0322F47F4243EA012161
:101F20001143CCF80810DCF8081041F0770109E003
:101F30000BB1102B6CD1DCF8081021F070011943A3
:101F400041F00701CCF808100022012180F83D1073
:101F5000002180F83C10BDE880401046704700BF6B
:101F6000502B21D0602B53D1D1F804E0C968DCF8A4
:101F70002030DCF8202022F01002CCF82020DCF801
:101F8000182022F4704242EA013123F0A00242EA12
:101F90000E12CCF81810CCF82020DCF8081041F014
:101FA000670121F01001CDE7D1F804E0C968DCF841
:101FB0002030DCF8202022F00102CCF82020DCF8D0
:101FC000182022F0F00242EA011123F00A0242EA4C
:101FD0000E02CCF81810CCF82020DCF8081041F0E4
:101FE000570121F02001ADE7D1E901E3C968DCF830
:101FF000082043EA0E0322F47F4243EA0121114301
:10200000CCF80810DCF8081041F480419AE700BFD2
:1020100001229AE77047000070B504460068C56861
:102020000669B10716D515F0020113D06FF0020151
:102030000161012121778069800703D02046FFF7E5
:10204000E9FF05E0204600F061F9204600F062FB60
:1020500000202077700719D515F0040016D02068ED
:102060006FF00401016102212177806910F4407F43
:1020700004D02046FFF7CEFF06E000BF204600F068
:1020800045F9204600F046FB00202077300717D5A1
:1020900015F0080014D020686FF0080101610421D8
:1020A0002177C069800703D02046FFF7B3FF05E022
:1020B000204600F02BF9204600F02CFB0020207772
:1020C000F00619D515F0100016D020686FF0100139
:1020D000016108212177C06910F4407F04D02046B7
:1020E000FFF798FF06E000BF204600F00FF92046FA
:1020F00000F010FB00202077F00718BF15F001005A
:1021000002D1300609D412E020686FF001010161AC
:10211000204600F06FFB300609D515F0800006D090
:1021200020686FF0800101612046FFF749FD7006CD
:1021300009D515F0400006D020686FF0400101611C
:10214000204600F09DFBB00658BF70BD15F0200082
:1021500008D021686FF0200220460A61BDE8704077
:10216000FFF730BD70BD000090F83C30012B04BF7C
:10217000022070474FEAB202032A00F2C1802DE923
:10218000F041DFE802F003852F5F00BF026842F6EE
:102190000045146A136AC4F2010523F001031362B7
:1021A0005368D2F818C0AA428D68D1F800E024F034
:1021B000020444EA05040BD1CD68D1E9056723F494
:1021C000407324F00C0425F0040533432C433B43B7
:1021D0002CF0730747EA0E07536097614968516313
:1021E00084E000BF026842F60045146A136AC4F234
:1021F000010523F4807313625368D2F81CC0AA420D
:102200008D68D1F800E024F4007444EA05240FD16D
:10221000CD68D1E905872D0240F2FF4624F44064E1
:10222000B5432C4323F4405347EA080543EA05131A
:102230002CF0730747EA0E075360D7614968D163F2
:1022400054E000BF026842F60046D2F820C0136A8C
:10225000C4F2010623F4805313625368D4690D68F5
:10226000D1F808E0B24204D14E6923F4804343EA36
:10227000861324F4E64646EA05265360D6612CF41C
:102280000057496847EA0E33116413622FE000BF1C
:10229000026842F60045146A136AC4F2010523F08D
:1022A000100313625368D2F818C0AA428D68D1F89F
:1022B00000E024F0200444EA05140FD1CD68D1E9F0
:1022C00005876FF0400624F0C00406EA05152C438C
:1022D00023F4406347EA080543EA85032CF4E64704
:1022E00047EA0E27536097614968916314620021A1
:1022F000BDE8F041002280F83C200846704700BF4E
:102300000121002280F83C200846704770470000F9
:10231000002804BF0120704710B590F83D1031B976
:10232000002180F83C10044600F070F8204602219D
:1023300080F83D10016840F2FF740B68C4F200049D
:1023400042F6004CA142C4F2010C15DCB1F1804F01
:102350001AD040F20042C4F20002914214D0A142CD
:1023600018DCB1F1804F1DD040F20042C4F20002EF
:10237000914217D01AE000BF614505D040F6000237
:10238000C4F200029142EAD1826823F07003134341
:10239000A142E6DD614505D040F60002C4F200022C
:1023A000914203D1026923F440731343846923F0FB
:1023B0008002D0F804E0C368224361450A60CB6222
:1023C000C1F828E002D14269CCF8302001224A61EC
:1023D0000B69DB0703D00B6923F001030B6180F865
:1023E000462080F83E2080F83F2080F8402080F88A
:1023F000412080F8422080F8432080F8442080F873
:10240000452080F83D20002010BD000070470000EE
:1024100090F83C30012B04BF022070474FEAB20213
:10242000032A00F2F1802DE9F043DFE802F003A572
:102430003B7500BF036842F600461D6A1A6AC4F283
:10244000010622F001021A621A465C6852F818CF9F
:10245000B3428E68D1F800E025F0020545EA060592
:102460000CD1CE68D1E9057824F4407425F00C0530
:1024700026F004063C43354344EA08042CF0730775
:1024800047EA0E075C609F614F6809695F631D62E0
:102490009F6947F008079F619F6927F004079F61C4
:1024A000A6E000BF036842F600461D6A1A6AC4F23D
:1024B000010622F480721A621A46D3F804C052F858
:1024C0001CEFB3428E680C6825F4007545EA0625BA
:1024D0000FD1CE68D1E90598360240F2FF4725F4C6
:1024E0004065BE4335432CF4405748EA090647EAA5
:1024F000061C2EF073072743C3F804C0DF614F6842
:102500000969DF631D62DF6947F00807DF61DF6982
:1025100027F00407DF616BE0036842F60047D3F859
:1025200020C01A6AC4F2010722F480521A621A46C5
:102530005C6852F81C5FD1F800E08E68BB4204D1A1
:102540004F6924F4804444EA87142CF4005747EA86
:10255000063725F4E64646EA0E265C60DE614E68E4
:1025600009691E641F62DF6947F40067DF61DF6984
:1025700027F48067DF613AE0036842F600461D6A8F
:102580001A6AC4F2010622F010021A621A46D3F83F
:1025900004C052F8184FB3428E68D1F800E025F01D
:1025A000200545EA06150FD1CE68D1E905986FF0F0
:1025B000400725F0C00507EA061635432CF44067AE
:1025C00048EA090647EA860C24F4E64444EA0E2762
:1025D000C3F804C09F614F6809699F631D629F69CA
:1025E00047F400679F619F6927F480679F61090234
:1025F0001368194311600021BDE8F043002280F800
:102600003C200846704700BF0121002280F83C2092
:1026100008467047002804BF0120704710B590F8A5
:102620003D1031B9002180F83C10044600F070F8EC
:102630002046022180F83D10016840F2FF740B68CB
:10264000C4F2000442F6004CA142C4F2010C15DCB5
:10265000B1F1804F1AD040F20042C4F20002914220
:1026600014D0A14218DCB1F1804F1DD040F20042DD
:10267000C4F20002914217D01AE000BF614505D0B4
:1026800040F60002C4F200029142EAD1826823F0CF
:1026900070031343A142E6DD614505D040F6000218
:1026A000C4F20002914203D1026923F44073134340
:1026B000846923F08002D0F804E0C36822436145B6
:1026C0000A60CB62C1F828E002D14269CCF8302020
:1026D00001224A610B69DB0703D00B6923F0010378
:1026E0000B6180F8462080F83E2080F83F2080F87B
:1026F000402080F8412080F8422080F8432080F874
:10270000442080F8452080F83D20002010BD0000C6
:102710007047000070470000C1B1042908D00829A3
:1027200014BF41224022825C012A05D016E000BF7E
:102730003F22825C012A11D10222082910D00429EB
:1027400014BF80F8412080F83F200BE090F83E2035
:10275000012A03D1022280F83E2003E001207047C5
:1027600080F84020006801F01F010122036A8A40BE
:1027700023EA02010162036A42F64441C4F2010104
:102780001A43A1F14403984202620FD040F2FF7154
:10279000C4F20001884213DCB0F1804F1CD040F23B
:1027A0000041C4F20001884216D01CE00A6842F4DD
:1027B00000420A6040F2FF71C4F200018842EBDD82
:1027C00042F60041C4F20101884205D040F6000102
:1027D000C4F20001884206D1816801F00701062990
:1027E00004BF00207047016841F001010160002032
:1027F000704700000068B0F1804F18BF704710B5F7
:1028000040F2A004C2F20004E088411C88B2B0F596
:102810002F7FE18008D840F60040C4F201004FF459
:10282000807100220AE000BFB0F5487F0ED840F664
:102830000040C4F201004FF480710122FEF70AFE4D
:1028400001202070BDE81040704700BFB0F5617FE7
:10285000E1D9B0F57A7FEAD940F24C418842DAD921
:1028600040F2DB518842E2D940F2DC51884204BF99
:102870000020E08001202070BDE81040704700007B
:1028800070470000FEE7000010B586B00020CDE9DB
:102890000400CDE9020041F21800C4F20200016810
:1028A00040F6004441F0080101600068C4F20104F0
:1028B00000F0080001900198C020029011200390C0
:1028C0000320059002A92046FEF7AEFC20464021D9
:1028D0000122FEF7BFFD204680210122FEF7BAFD4E
:1028E00006B010BD2DE9F04F87B040F60044824697
:1028F000C4F20104002080210590CDE9021004906B
:1029000002A92046FEF790FC204680210122FEF716
:10291000A1FD204640210122FEF79CFD0A200690E1
:102920000698411E069160B10698411E069140B17D
:102930000698411E069120B10698411E0028069176
:10294000EED120468021FEF777FD01902046402100
:102950000022FEF77FFD0A20069000BF0698411E68
:10296000069160B10698411E069140B10698411E3D
:10297000069120B10698411E00280691EED120460E
:1029800040210122FEF766FD0A2006900698411EAE
:10299000069160B10698411E069140B10698411E0D
:1029A000069120B10698411E00280691EED12046DE
:1029B0008021FEF741FD0090204640210022FEF7D5
:1029C00049FD0A20069000BF0698411E069160B19D
:1029D0000698411E069140B10698411E069120B10D
:1029E0000698411E00280691EED120464021012282
:1029F000FEF730FD0A2006900698411E069160B150
:102A00000698411E069140B10698411E069120B1DC
:102A10000698411E00280691EED120468021FEF73F
:102A20000BFD8346204640210022FEF713FD0A20BD
:102A3000069000BF0698411E069160B10698411E9F
:102A4000069140B10698411E069120B10698411E9C
:102A500000280691EED1204640210122FEF7FAFC23
:102A60000A2006900698411E069160B10698411E04
:102A7000069140B10698411E069120B10698411E6C
:102A800000280691EED120468021FEF7D5FC0646AF
:102A9000204640210022FEF7DDFC0A20069000BF00
:102AA0000698411E069160B10698411E069140B1FC
:102AB0000698411E069120B10698411E00280691F5
:102AC000EED1204640210122FEF7C4FC0A200690E8
:102AD0000698411E069160B10698411E069140B1CC
:102AE0000698411E069120B10698411E00280691C5
:102AF000EED120468021FEF79FFC0746204640216C
:102B00000022FEF7A7FC0A20069000BF0698411E8F
:102B1000069160B10698411E069140B10698411E8B
:102B2000069120B10698411E00280691EED120465C
:102B300040210122FEF78EFC0A2006900698411ED5
:102B4000069160B10698411E069140B10698411E5B
:102B5000069120B10698411E00280691EED120462C
:102B60008021FEF769FC0546204640210022FEF741
:102B700071FC0A20069000BF0698411E069160B1C4
:102B80000698411E069140B10698411E069120B15B
:102B90000698411E00280691EED1204640210122D0
:102BA000FEF758FC0A2006900698411E069160B177
:102BB0000698411E069140B10698411E069120B12B
:102BC0000698411E00280691EED120468021FEF78E
:102BD00033FC8046204640210022FEF73BFC0A20C1
:102BE000069000BF0698411E069160B10698411EEE
:102BF000069140B10698411E069120B10698411EEB
:102C000000280691EED1204640210122FEF722FC49
:102C10000A2006900698411E069160B10698411E52
:102C2000069140B10698411E069120B10698411EBA
:102C300000280691EED120468021FEF7FDFB81465B
:102C4000204640210022FEF705FC0A20069000BF26
:102C50000698411E069160B10698411E069140B14A
:102C60000698411E069120B10698411E0028069143
:102C7000EED111200390002004900320059002A9BA
:102C80002046FEF7D1FA20468021BAF1000F6FD01E
:102C90000022FEF7DFFB204640210122FEF7DAFB8F
:102CA0000A2006900698411E069160B10698411EC2
:102CB000069140B10698411E069120B10698411E2A
:102CC00000280691EED1204640210022FEF7C2FBEB
:102CD0000A2006900698411E069160B10698411E92
:102CE000069140B10698411E069120B10698411EFA
:102CF00000280691EED1204680210122FEF7AAFB92
:102D00000198009901380139B0FA80F0B1FA81F1E7
:102D10004009490941EA4000ABF10101B1FA81F1F2
:102D20008000490940EA4100711EB1FA81F1490968
:102D30000844791EB1FA81F18000490940EA410056
:102D4000691EB1FA81F149090844A8F10101B1FAFB
:102D500081F18000490940EA4100A9F10101B1FA7D
:102D600081F149090844C0B207B0BDE8F08F00BF47
:102D70000122FEF76FFB204640210122FEF76AFB8D
:102D80000A2006900698411E069160B10698411EE1
:102D9000069140B10698411E069120B10698411E49
:102DA00000280691EED1204640210022FEF752FB7A
:102DB0000A2006900698411E00280691A0D0069889
:102DC000411E002806919BD00698411E00280691BE
:102DD00096D00698411E00280691EBD190E700009E
:102DE0002DE9F04F85B040F60044CDE90023894637
:102DF0000546C4F2010400F0EFFF68000290C5F33D
:102E0000801220468021FEF725FB0A20049000BF97
:102E10000498411E049160B10498411E049140B190
:102E20000498411E049120B10498411E0028049189
:102E3000EED1204640210122FEF70CFB0A2004902F
:102E40000498411E049160B10498411E049140B160
:102E50000498411E049120B10498411E0028049159
:102E6000EED1204640210022FEF7F4FA0A20049019
:102E70000498411E049160B10498411E049140B130
:102E80000498411E049120B10498411E0028049129
:102E9000EED1C5F34012204680210392FEF7DAFA04
:102EA0000A2004900498411E049160B10498411EC8
:102EB000049140B10498411E049120B10498411E30
:102EC00000280491EED1204640210122FEF7C2FAEB
:102ED0000A2004900498411E049160B10498411E98
:102EE000049140B10498411E049120B10498411E00
:102EF00000280491EED1204640210022FEF7AAFAD4
:102F00000A2004900498411E049160B10498411E67
:102F1000049140B10498411E049120B10498411ECF
:102F200000280491EED1C5F3001B204680215A46AB
:102F3000FEF790FA0A2004900498411E049160B1B3
:102F40000498411E049140B10498411E049120B19F
:102F50000498411E00280491EED120464021012210
:102F6000FEF778FA0A2004900498411E049160B19B
:102F70000498411E049140B10498411E049120B16F
:102F80000498411E00280491EED1204640210022E1
:102F9000FEF760FA0A2004900498411E049160B183
:102FA0000498411E049140B10498411E049120B13F
:102FB0000498411E00280491EED1C5F3C00A2046B2
:102FC00080215246FEF746FA0A2004900498411EDA
:102FD000049160B10498411E049140B10498411ECF
:102FE000049120B10498411E00280491EED120469E
:102FF00040210122FEF72EFA0A2004900498411E77
:10300000049160B10498411E049140B10498411E9E
:10301000049120B10498411E00280491EED120466D
:1030200040210022FEF716FA0A2004900498411E5F
:10303000049160B10498411E049140B10498411E6E
:10304000049120B10498411E00280491EED1C5F3EB
:103050008007204680213A46FEF7FCF90A200490BA
:103060000498411E049160B10498411E049140B13E
:103070000498411E049120B10498411E0028049137
:10308000EED1204640210122FEF7E4F90A20049007
:103090000498411E049160B10498411E049140B10E
:1030A0000498411E049120B10498411E0028049107
:1030B000EED1204640210022FEF7CCF90A200490F0
:1030C0000498411E049160B10498411E049140B1DE
:1030D0000498411E049120B10498411E00280491D7
:1030E000EED1C5F34006204680213246FEF7B2F904
:1030F0000A2004900498411E049160B10498411E76
:10310000049140B10498411E049120B10498411EDD
:1031100000280491EED1204640210122FEF79AF9C1
:103120000A2004900498411E049160B10498411E45
:10313000049140B10498411E049120B10498411EAD
:1031400000280491EED1204640210022FEF782F9AA
:103150000A2004900498411E049160B10498411E15
:10316000049140B10498411E049120B10498411E7D
:1031700000280491EED105F0010820468021424646
:10318000FEF768F90A2004900498411E049160B18A
:103190000498411E049140B10498411E049120B14D
:1031A0000498411E00280491EED1204640210122BE
:1031B000FEF750F90A2004900498411E049160B172
:1031C0000498411E049140B10498411E049120B11D
:1031D0000498411E00280491EED12046402100228F
:1031E000FEF738F90A2004900498411E049160B15A
:1031F0000498411E049140B10498411E049120B1ED
:103200000498411E00280491EED12046802100221E
:10321000FEF720F90A2004900498411E049160B141
:103220000498411E049140B10498411E049120B1BC
:103230000498411E00280491EED12046402101222D
:10324000FEF708F90A2004900498411E049160B129
:103250000498411E049140B10498411E049120B18C
:103260000498411E00280491EED1204640210022FE
:10327000FEF7F0F80A2004900498411E049160B112
:103280000498411E049140B10498411E049120B15C
:103290000498411E00280491EED100F0F3FD0028AF
:1032A0003ED0204680210022FEF7D4F8204640215F
:1032B0000122FEF7CFF80A20049000BF0498411EB7
:1032C000049160B10498411E049140B10498411EDC
:1032D000049120B10498411E00280491EED12046AB
:1032E00080210122FEF7B6F80A2004900498411EBE
:1032F0000028049100F021850498411E00280491C3
:1033000000F01B850498411E0028049100F01585EB
:103310000498411E00280491E8D100F00EBD00BFC2
:103320004FEAD91220468021FEF794F80A20049033
:103330000498411E049160B10498411E049140B16B
:103340000498411E049120B10498411E0028049164
:10335000EED1204640210122FEF77CF80A2004909D
:103360000498411E049160B10498411E049140B13B
:103370000498411E049120B10498411E0028049134
:10338000EED1204640210022FEF764F80A20049086
:103390000498411E049160B10498411E049140B10B
:1033A0000498411E049120B10498411E0028049104
:1033B000EED1C9F3801220468021FEF74BF80A2097
:1033C000049000BF0498411E049160B10498411E0E
:1033D000049140B10498411E049120B10498411E0B
:1033E00000280491EED1204640210122FEF732F858
:1033F0000A2004900498411E049160B10498411E73
:10340000049140B10498411E049120B10498411EDA
:1034100000280491EED1204640210022FEF71AF840
:103420000A2004900498411E049160B10498411E42
:10343000049140B10498411E049120B10498411EAA
:1034400000280491EED1C9F3401220468021FEF7F6
:1034500001F80A20049000BF0498411E049160B155
:103460000498411E049140B10498411E049120B17A
:103470000498411E00280491EED1204640210122EB
:10348000FDF7E8FF0A2004900498411E049160B102
:103490000498411E049140B10498411E049120B14A
:1034A0000498411E00280491EED1204640210022BC
:1034B000FDF7D0FF0A2004900498411E049160B1EA
:1034C0000498411E049140B10498411E049120B11A
:1034D0000498411E00280491EED1C9F30012204641
:1034E0008021FDF7B7FF0A20049000BF0498411E19
:1034F000049160B10498411E049140B10498411EAA
:10350000049120B10498411E00280491EED1204678
:1035100040210122FDF79EFF0A2004900498411EDD
:10352000049160B10498411E049140B10498411E79
:10353000049120B10498411E00280491EED1204648
:1035400040210022FDF786FF0A2004900498411EC6
:10355000049160B10498411E049140B10498411E49
:10356000049120B10498411E00280491EED1C9F3C2
:10357000C00220468021FDF76DFF0A20049000BFA5
:103580000498411E049160B10498411E049140B119
:103590000498411E049120B10498411E0028049112
:1035A000EED1204640210122FDF754FF0A2004906D
:1035B0000498411E049160B10498411E049140B1E9
:1035C0000498411E049120B10498411E00280491E2
:1035D000EED1204640210022FDF73CFF0A20049056
:1035E0000498411E049160B10498411E049140B1B9
:1035F0000498411E049120B10498411E00280491B2
:10360000EED1C9F3800220468021FDF723FF0A2076
:10361000049000BF0498411E049160B10498411EBB
:10362000049140B10498411E049120B10498411EB8
:1036300000280491EED1204640210122FDF70AFF27
:103640000A2004900498411E049160B10498411E20
:10365000049140B10498411E049120B10498411E88
:1036600000280491EED1204640210022FDF7F2FE11
:103670000A2004900498411E049160B10498411EF0
:10368000049140B10498411E049120B10498411E58
:1036900000280491EED1C9F3400220468021FDF7B5
:1036A000D9FE0A20049000BF0498411E049160B125
:1036B0000498411E049140B10498411E049120B128
:1036C0000498411E00280491EED120464021012299
:1036D000FDF7C0FE0A2004900498411E049160B1D9
:1036E0000498411E049140B10498411E049120B1F8
:1036F0000498411E00280491EED12046402100226A
:10370000FDF7A8FE0A2004900498411E049160B1C0
:103710000498411E049140B10498411E049120B1C7
:103720000498411E00280491EED109F001022046C0
:103730008021FDF78FFE0A20049000BF0498411EEF
:10374000049160B10498411E049140B10498411E57
:10375000049120B10498411E00280491EED1204626
:1037600040210122FDF776FE0A2004900498411EB4
:10377000049160B10498411E049140B10498411E27
:10378000049120B10498411E00280491EED12046F6
:1037900040210022FDF75EFE0A2004900498411E9D
:1037A000049160B10498411E049140B10498411EF7
:1037B000049120B10498411E00280491EED100F03C
:1037C00061FB00283CD0204680210022FDF742FE0C
:1037D000204640210122FDF73DFE0A20049000BF53
:1037E0000498411E049160B10498411E049140B1B7
:1037F0000498411E049120B10498411E00280491B0
:10380000EED1204680210122FDF724FE0A200490FB
:103810000498411E0028049100F08F820498411EF4
:103820000028049100F089820498411E0028049128
:1038300000F083820498411E00280491E8D17CE2C4
:1038400000F0CAFA02988021C0B2C2092046FDF7F2
:1038500001FE0A20049000BF0498411E049160B14B
:103860000498411E049140B10498411E049120B176
:103870000498411E00280491EED1204640210122E7
:10388000FDF7E8FD0A2004900498411E049160B100
:103890000498411E049140B10498411E049120B146
:1038A0000498411E00280491EED1204640210022B8
:1038B000FDF7D0FD0A2004900498411E049160B1E8
:1038C0000498411E049140B10498411E049120B116
:1038D0000498411E00280491EED1039A20468021CD
:1038E000FDF7B8FD0A2004900498411E049160B1D0
:1038F0000498411E049140B10498411E049120B1E6
:103900000498411E00280491EED120464021012256
:10391000FDF7A0FD0A2004900498411E049160B1B7
:103920000498411E049140B10498411E049120B1B5
:103930000498411E00280491EED120464021002227
:10394000FDF788FD0A2004900498411E049160B19F
:103950000498411E049140B10498411E049120B185
:103960000498411E00280491EED1204680215A4639
:10397000FDF770FD0A2004900498411E049160B187
:103980000498411E049140B10498411E049120B155
:103990000498411E00280491EED1204640210122C6
:1039A000FDF758FD0A2004900498411E049160B16F
:1039B0000498411E049140B10498411E049120B125
:1039C0000498411E00280491EED120464021002297
:1039D000FDF740FD0A2004900498411E049160B157
:1039E0000498411E049140B10498411E049120B1F5
:1039F0000498411E00280491EED1204680215246B1
:103A0000FDF728FD0A2004900498411E049160B13E
:103A10000498411E049140B10498411E049120B1C4
:103A20000498411E00280491EED120464021012235
:103A3000FDF710FD0A2004900498411E049160B126
:103A40000498411E049140B10498411E049120B194
:103A50000498411E00280491EED120464021002206
:103A6000FDF7F8FC0A2004900498411E049160B10F
:103A70000498411E049140B10498411E049120B164
:103A80000498411E00280491EED1204680213A4638
:103A9000FDF7E0FC0A2004900498411E049160B1F7
:103AA0000498411E049140B10498411E049120B134
:103AB0000498411E00280491EED1204640210122A5
:103AC000FDF7C8FC0A2004900498411E049160B1DF
:103AD0000498411E049140B10498411E049120B104
:103AE0000498411E00280491EED120464021002276
:103AF000FDF7B0FC0A2004900498411E049160B1C7
:103B00000498411E049140B10498411E049120B1D3
:103B10000498411E00280491EED1204680213246AF
:103B2000FDF798FC0A2004900498411E049160B1AE
:103B30000498411E049140B10498411E049120B1A3
:103B40000498411E00280491EED120464021012214
:103B5000FDF780FC0A2004900498411E049160B196
:103B60000498411E049140B10498411E049120B173
:103B70000498411E00280491EED1204640210022E5
:103B8000FDF768FC0A2004900498411E049160B17E
:103B90000498411E049140B10498411E049120B143
:103BA0000498411E00280491EED12046802142460F
:103BB000FDF750FC0A2004900498411E049160B166
:103BC0000498411E049140B10498411E049120B113
:103BD0000498411E00280491EED120464021012284
:103BE000FDF738FC0A2004900498411E049160B14E
:103BF0000498411E049140B10498411E049120B1E3
:103C00000498411E00280491EED120464021002254
:103C1000FDF720FC0A2004900498411E049160B135
:103C20000498411E049140B10498411E049120B1B2
:103C30000498411E00280491EED1204680210122E3
:103C4000FDF708FC0A2004900498411E049160B11D
:103C50000498411E049140B10498411E049120B182
:103C60000498411E00280491EED1204640210122F3
:103C7000FDF7F0FB0A2004900498411E049160B106
:103C80000498411E049140B10498411E049120B152
:103C90000498411E00280491EED1204640210022C4
:103CA000FDF7D8FB0A2004900498411E049160B1EE
:103CB0000498411E049140B10498411E049120B122
:103CC0000498411E00280491EED100F0DBF8C8B33F
:103CD000204680210022FDF7BDFB20464021012225
:103CE000FDF7B8FB0A2004900498411E049160B1CE
:103CF0000498411E049140B10498411E049120B1E2
:103D00000498411E00280491EED120468021012212
:103D1000FDF7A0FB0A2004900498411E049160B1B5
:103D20000498411E049140B10498411E049120B1B1
:103D30000498411E00280491EED1012005B0BDE891
:103D4000F08F00BF019868B1009946424D1E00BF38
:103D5000B6F1FF3018BF0120FEF7C4FD013605F8AB
:103D6000010FF5D3204680210022FDF773FB20468A
:103D700040210122FDF76EFB0A2004900498411EA9
:103D8000049160B10498411E049140B10498411E11
:103D9000049120B10498411E00280491EED12046E0
:103DA00080210122FDF756FB0A2004900498411E51
:103DB000049160B10498411E049140B10498411EE1
:103DC000049120B10498411E00280491EED10020F6
:103DD00005B0BDE8F08F000010B584B040F6004497
:103DE000C4F20104204680210122FDF733FB204666
:103DF00040210122FDF72EFB0A2001900198411E6F
:103E0000019160B10198411E019140B10198411E9C
:103E1000019120B10198411E00280191EED1204668
:103E200080210022FDF716FB0A2002900298411E15
:103E3000029160B10298411E029140B10298411E68
:103E4000029120B10298411E00280291EED1204635
:103E500040210022FDF7FEFA0A2003900398411E3C
:103E6000039160B10398411E039140B10398411E34
:103E7000039120B10398411E00280391EED104B0B4
:103E800010BD0000B0B586B040F60044C4F2010495
:103E9000002080210490CDE90110039001A9204663
:103EA000FDF7C2F9204680210122FDF7D3FA0A204E
:103EB000059000BF0598411E059160B10598411E0F
:103EC000059140B10598411E059120B10598411E0C
:103ED00000280591EED1204640210122FDF7BAFAD3
:103EE0004FF47A7520468021FDF7A6FA60B1013DB6
:103EF0002804F7D140F6AC00C2F200000188012589
:103F00000131018001E000BF002520464021002250
:103F1000FDF7A0FA0A2005900598411E059160B1B1
:103F20000598411E059140B10598411E059120B1AB
:103F30000598411E00280591EED111200290002025
:103F400003900320049001A92046FDF76DF9204657
:103F50008021FDF777FA284606B0B0BD2DE9F04381
:103F600081B040F60044994690460F460646C4F29A
:103F70000104FFF731FFC6F3801220468021FDF7D0
:103F800069FA0A20009000BF0098411E009160B1BC
:103F90000098411E009140B10098411E009120B14F
:103FA0000098411E00280091EED1204640210122B8
:103FB000FDF750FA0A2000900098411E009160B170
:103FC0000098411E009140B10098411E009120B11F
:103FD0000098411E00280091EED120464021002289
:103FE000FDF738FA0A2000900098411E009160B158
:103FF0000098411E009140B10098411E009120B1EF
:104000000098411E00280091EED1C6F340122046D0
:104010008021FDF71FFA0A20009000BF0098411E82
:10402000009160B10098411E009140B10098411E7E
:10403000009120B10098411E00280091EED1204649
:1040400040210122FDF706FA0A2000900098411E47
:10405000009160B10098411E009140B10098411E4E
:10406000009120B10098411E00280091EED1204619
:1040700040210022FDF7EEF90A2000900098411E31
:10408000009160B10098411E009140B10098411E1E
:10409000009120B10098411E00280091EED1C6F396
:1040A000001220468021FDF7D5F90A20009000BFBC
:1040B0000098411E009160B10098411E009140B1EE
:1040C0000098411E009120B10098411E00280091E7
:1040D000EED1204640210122FDF7BCF90A200090D4
:1040E0000098411E009160B10098411E009140B1BE
:1040F0000098411E009120B10098411E00280091B7
:10410000EED1204640210022FDF7A4F90A200090BC
:104110000098411E009160B10098411E009140B18D
:104120000098411E009120B10098411E0028009186
:10413000EED1C6F3C00220468021FDF78BF90A209C
:10414000009000BF0098411E009160B10098411E90
:10415000009140B10098411E009120B10098411E8D
:1041600000280091EED1204640210122FDF772F98E
:104170000A2000900098411E009160B10098411EF5
:10418000009140B10098411E009120B10098411E5D
:1041900000280091EED1204640210022FDF75AF977
:1041A0000A2000900098411E009160B10098411EC5
:1041B000009140B10098411E009120B10098411E2D
:1041C00000280091EED1C6F3800220468021FDF741
:1041D00041F90A20009000BF0098411E009160B193
:1041E0000098411E009140B10098411E009120B1FD
:1041F0000098411E00280091EED120464021012266
:10420000FDF728F90A2000900098411E009160B146
:104210000098411E009140B10098411E009120B1CC
:104220000098411E00280091EED120464021002236
:10423000FDF710F90A2000900098411E009160B12E
:104240000098411E009140B10098411E009120B19C
:104250000098411E00280091EED1C6F3400220468E
:104260008021FDF7F7F80A20009000BF0098411E5A
:10427000009160B10098411E009140B10098411E2C
:10428000009120B10098411E00280091EED12046F7
:1042900040210122FDF7DEF80A2000900098411E1F
:1042A000009160B10098411E009140B10098411EFC
:1042B000009120B10098411E00280091EED12046C7
:1042C00040210022FDF7C6F80A2000900098411E08
:1042D000009160B10098411E009140B10098411ECC
:1042E000009120B10098411E00280091EED106F007
:1042F000010220468021FDF7ADF80A20009000BFA2
:104300000098411E009160B10098411E009140B19B
:104310000098411E009120B10098411E0028009194
:10432000EED1204640210122FDF794F80A200090AA
:104330000098411E009160B10098411E009140B16B
:104340000098411E009120B10098411E0028009164
:10435000EED1204640210022FDF77CF80A20009093
:104360000098411E009160B10098411E009140B13B
:104370000098411E009120B10098411E0028009134
:10438000EED1204680210022FDF764F80A2000903B
:104390000098411E009160B10098411E009140B10B
:1043A0000098411E009120B10098411E0028009104
:1043B000EED1204640210122FDF74CF80A20009062
:1043C0000098411E009160B10098411E009140B1DB
:1043D0000098411E009120B10098411E00280091D4
:1043E000EED1204640210022FDF734F80A2000904B
:1043F0000098411E009160B10098411E009140B1AB
:104400000098411E009120B10098411E00280091A3
:10441000EED1FFF737FD00283CD020468021002256
:10442000FDF718F8204640210122FDF713F80A2075
:10443000009000BF0098411E009160B10098411E9D
:10444000009140B10098411E009120B10098411E9A
:1044500000280091EED1204680210122FCF7FAFFCE
:104460000A2000900098411E0028009100F09982D7
:104470000098411E0028009100F093820098411E90
:104480000028009100F08D820098411E00280091C4
:10449000E8D186E2FA0920468021FCF7DBFF0A20FA
:1044A000009000BF0098411E009160B10098411E2D
:1044B000009140B10098411E009120B10098411E2A
:1044C00000280091EED1204640210122FCF7C2FFD6
:1044D0000A2000900098411E009160B10098411E92
:1044E000009140B10098411E009120B10098411EFA
:1044F00000280091EED1204640210022FCF7AAFFBF
:104500000A2000900098411E009160B10098411E61
:10451000009140B10098411E009120B10098411EC9
:1045200000280091EED1C7F3801220468021FCF7CD
:1045300091FF0A20009000BF0098411E009160B1D9
:104540000098411E009140B10098411E009120B199
:104550000098411E00280091EED120464021012202
:10456000FCF778FF0A2000900098411E009160B18E
:104570000098411E009140B10098411E009120B169
:104580000098411E00280091EED1204640210022D3
:10459000FCF760FF0A2000900098411E009160B176
:1045A0000098411E009140B10098411E009120B139
:1045B0000098411E00280091EED1C7F3401220461A
:1045C0008021FCF747FF0A20009000BF0098411EA1
:1045D000009160B10098411E009140B10098411EC9
:1045E000009120B10098411E00280091EED1204694
:1045F00040210122FCF72EFF0A2000900098411E66
:10460000009160B10098411E009140B10098411E98
:10461000009120B10098411E00280091EED1204663
:1046200040210022FCF716FF0A2000900098411E4E
:10463000009160B10098411E009140B10098411E68
:10464000009120B10098411E00280091EED1C7F3DF
:10465000001220468021FCF7FDFE0A20009000BFDA
:104660000098411E009160B10098411E009140B138
:104670000098411E009120B10098411E0028009131
:10468000EED1204640210122FCF7E4FE0A200090F2
:104690000098411E009160B10098411E009140B108
:1046A0000098411E009120B10098411E0028009101
:1046B000EED1204640210022FCF7CCFE0A200090DB
:1046C0000098411E009160B10098411E009140B1D8
:1046D0000098411E009120B10098411E00280091D1
:1046E000EED1C7F3C00220468021FCF7B3FE0A20BA
:1046F000009000BF0098411E009160B10098411EDB
:10470000009140B10098411E009120B10098411ED7
:1047100000280091EED1204640210122FCF79AFEAC
:104720000A2000900098411E009160B10098411E3F
:10473000009140B10098411E009120B10098411EA7
:1047400000280091EED1204640210022FCF782FE95
:104750000A2000900098411E009160B10098411E0F
:10476000009140B10098411E009120B10098411E77
:1047700000280091EED1C7F3800220468021FCF78B
:1047800069FE0A20009000BF0098411E009160B1B0
:104790000098411E009140B10098411E009120B147
:1047A0000098411E00280091EED1204640210122B0
:1047B000FCF750FE0A2000900098411E009160B165
:1047C0000098411E009140B10098411E009120B117
:1047D0000098411E00280091EED120464021002281
:1047E000FCF738FE0A2000900098411E009160B14D
:1047F0000098411E009140B10098411E009120B1E7
:104800000098411E00280091EED1C7F340022046D7
:104810008021FCF71FFE0A20009000BF0098411E77
:10482000009160B10098411E009140B10098411E76
:10483000009120B10098411E00280091EED1204641
:1048400040210122FCF706FE0A2000900098411E3C
:10485000009160B10098411E009140B10098411E46
:10486000009120B10098411E00280091EED1204611
:1048700040210022FCF7EEFD0A2000900098411E26
:10488000009160B10098411E009140B10098411E16
:10489000009120B10098411E00280091EED107F050
:1048A000010220468021FCF7D5FD0A20009000BFC0
:1048B0000098411E009160B10098411E009140B1E6
:1048C0000098411E009120B10098411E00280091DF
:1048D000EED1204640210122FCF7BCFD0A200090C9
:1048E0000098411E009160B10098411E009140B1B6
:1048F0000098411E009120B10098411E00280091AF
:10490000EED1204640210022FCF7A4FD0A200090B1
:104910000098411E009160B10098411E009140B185
:104920000098411E009120B10098411E002800917E
:10493000EED1FFF7A7FAC8B3204680210022FCF78A
:1049400089FD204640210122FCF784FD0A200090C9
:104950000098411E009160B10098411E009140B145
:104960000098411E009120B10098411E002800913E
:10497000EED1204680210122FCF76CFD0A20009038
:104980000098411E009160B10098411E009140B115
:104990000098411E009120B10098411E002800910E
:1049A000EED1012001B0BDE8F08300BFB9F1000FE6
:1049B00000F04B8200260A2718F806502046EA0924
:1049C0008021FCF747FD00970098411E009160B1DF
:1049D0000098411E009140B10098411E009120B105
:1049E0000098411E00280091EED12046402101226E
:1049F000FCF730FD009700BF0098411E009160B1A8
:104A00000098411E009140B10098411E009120B1D4
:104A10000098411E00280091EED12046402100223E
:104A2000FCF718FD009700BF0098411E009160B18F
:104A30000098411E009140B10098411E009120B1A4
:104A40000098411E00280091EED1C5F38012204647
:104A50008021FCF7FFFC00970098411E009160B197
:104A60000098411E009140B10098411E009120B174
:104A70000098411E00280091EED1204640210122DD
:104A8000FCF7E8FC009700BF0098411E009160B160
:104A90000098411E009140B10098411E009120B144
:104AA0000098411E00280091EED1204640210022AE
:104AB000FCF7D0FC009700BF0098411E009160B148
:104AC0000098411E009140B10098411E009120B114
:104AD0000098411E00280091EED1C5F340122046F7
:104AE0008021FCF7B7FC00970098411E009160B14F
:104AF0000098411E009140B10098411E009120B1E4
:104B00000098411E00280091EED12046402101224C
:104B1000FCF7A0FC009700BF0098411E009160B117
:104B20000098411E009140B10098411E009120B1B3
:104B30000098411E00280091EED12046402100221D
:104B4000FCF788FC009700BF0098411E009160B1FF
:104B50000098411E009140B10098411E009120B183
:104B60000098411E00280091EED1C5F300122046A6
:104B70008021FCF76FFC00970098411E009160B106
:104B80000098411E009140B10098411E009120B153
:104B90000098411E00280091EED1204640210122BC
:104BA000FCF758FC009700BF0098411E009160B1CF
:104BB0000098411E009140B10098411E009120B123
:104BC0000098411E00280091EED12046402100228D
:104BD000FCF740FC009700BF0098411E009160B1B7
:104BE0000098411E009140B10098411E009120B1F3
:104BF0000098411E00280091EED1C5F3C002204666
:104C00008021FCF727FC00970098411E009160B1BD
:104C10000098411E009140B10098411E009120B1C2
:104C20000098411E00280091EED12046402101222B
:104C3000FCF710FC009700BF0098411E009160B186
:104C40000098411E009140B10098411E009120B192
:104C50000098411E00280091EED1204640210022FC
:104C6000FCF7F8FB009700BF0098411E009160B16F
:104C70000098411E009140B10098411E009120B162
:104C80000098411E00280091EED1C5F38002204615
:104C90008021FCF7DFFB00970098411E009160B176
:104CA0000098411E009140B10098411E009120B132
:104CB0000098411E00280091EED12046402101229B
:104CC000FCF7C8FB009700BF0098411E009160B13F
:104CD0000098411E009140B10098411E009120B102
:104CE0000098411E00280091EED12046402100226C
:104CF000FCF7B0FB009700BF0098411E009160B127
:104D00000098411E009140B10098411E009120B1D1
:104D10000098411E00280091EED1C5F340022046C4
:104D20008021FCF797FB00970098411E009160B12D
:104D30000098411E009140B10098411E009120B1A1
:104D40000098411E00280091EED12046402101220A
:104D5000FCF780FB009700BF0098411E009160B1F6
:104D60000098411E009140B10098411E009120B171
:104D70000098411E00280091EED1204640210022DB
:104D8000FCF768FB009700BF0098411E009160B1DE
:104D90000098411E009140B10098411E009120B141
:104DA0000098411E00280091EED105F00102204636
:104DB0008021FCF74FFB00970098411E009160B1E5
:104DC0000098411E009140B10098411E009120B111
:104DD0000098411E00280091EED12046402101227A
:104DE000FCF738FB009700BF0098411E009160B1AE
:104DF0000098411E009140B10098411E009120B1E1
:104E00000098411E00280091EED12046402100224A
:104E1000FCF720FB009700BF0098411E009160B195
:104E20000098411E009140B10098411E009120B1B0
:104E30000098411E00280091EED1FFF723F80028CA
:104E40003ED101364E457FF4B7AD20468021002289
:104E5000FCF700FB204640210122FCF7FBFA0A2068
:104E6000009000BF0098411E009160B10098411E63
:104E7000009140B10098411E009120B10098411E60
:104E800000280091EED1204680210122FCF7E2FAB1
:104E90000A2000900098411E009160B10098411EC8
:104EA000009140B10098411E009120B10098411E30
:104EB00000280091EED1002001B0BDE8F08300BFD2
:104EC000204680210022FCF7C5FA2046402101221D
:104ED000FCF7C0FA0A2000900098411E009160B1D2
:104EE0000098411E009140B10098411E009120B1F0
:104EF0000098411E00280091EED120468021012219
:104F0000FCF7A8FA0A2000900098411E00280091A2
:104F10003FF447AD0098411E002800913FF441AD99
:104F20000098411E002800913FF43BAD0098411EBF
:104F300000280091E8D134E54FF0000118B34FF696
:104F400000431022C0F60003C0E900121A68B2F153
:104F5000A53F18D180B543F20002D3E9011CD3F874
:104F60000CE0C4F20202012393604FF0A5331360FA
:104F7000116012687245BDE880401CBF0020704778
:104F8000C0E9001C012108467047000010B58AB036
:104F900040F2F47046F20041C2F20000C4F2000197
:104FA000082200244FF480234FF4801C80E8160070
:104FB0004FF48071C0E90343C0F814C00183C0F806
:104FC0001A40FBF777FE002818BFFBF757FBCDE927
:104FD0000544CDE90044CDE902440494099440F22B
:104FE000F4740120C2F20004CDE9070069462046AE
:104FF000FBF720FC20460221FBF7B2FB2046FBF723
:105000006DFF0AB010BD0000F0B585B0002541F27B
:105010001800CDE90355CDE90155C4F2020001683D
:1050200040F6004441F0040101600168C4F201044B
:1050300001F00401009100990168012241F008018A
:10504000016000684FF4807100F008000090009843
:1050500020464FF480760127FCF7FCF901A9204691
:10506000CDE90167CDE90357FCF7DEF805B0F0BDE7
:10507000B0B59CB042F6004540F61C00C4F20105F4
:105080000021C2F20000202240F23F6380241691EA
:10509000CDE914111191CDE90F11CDE90D11CDE933
:1050A0000B11CDE90911CDE90711CDE90511CDE9C4
:1050B0000311CDE90111C0E90051C0E90223C0E9A3
:1050C00004118461FCF7E6FD002818BFFBF7D6FA4F
:1050D0004FF48050139040F61C00C2F2000013A958
:1050E000FCF7C8FE002818BFFBF7C8FA40F61C0002
:1050F000C2F20000FDF78EFA002818BFFBF7BEFAD7
:1051000040F61C00C2F20000FDF702F9002818BFAB
:10511000FBF7B4FA40F61C000024C2F2000010A90C
:10512000CDE91044FCF776FD002818BFFBF7A6FA7E
:105130006020CDE9090440F61C00C2F2000009A974
:105140000022CDE90B44CDE90D440F94FDF760F941
:10515000002818BFFBF792FA40F61C00C2F20000CC
:1051600009A90422FDF754F9002818BFFBF786FAB5
:1051700040F61C00C2F2000009A90822FDF748F918
:10518000002818BFFBF77AFA40F25D100A9040F64B
:105190001C000024C2F2000009A90C220994FCF7AB
:1051A000E3FF002818BFFBF769FA0594CDE9034433
:1051B000CDE90144089440F61C044FF40050C2F2BB
:1051C0000004069001A92046FCF7FEFC002818BF49
:1051D000FBF754FA21680020A942CDE91A00199082
:1051E000189001D01CB0B0BD41F21800C4F202000A
:1051F000016841F004010160006818A900F0040092
:10520000179017984FF4E0601890022019901B90A7
:10521000A5F51050FCF708F81CB0B0BD80B586B0FD
:1052200040F664000021C2F200004FF0804240F2DC
:105230007F234FF0180C0591CDE90311CDE9001142
:10524000C0E90023C0E9021C01618161FCF722FD75
:10525000002818BFFBF712FA4FF48050029040F676
:105260006400C2F2000002A9FCF704FE002818BF87
:10527000FBF704FA40F66400C2F200006946FCF74E
:10528000C9FC002818BFFBF7F9F906B080BD000083
:10529000FEE70000FEE700007047000080B540F226
:1052A0005010C2F20000032100238362C0E9041100
:1052B00040F2071148F2AB42C2F20001C0F6000210
:1052C000013140F2F81E4FF4806CC0E9182145F21C
:1052D0005241C2F2000EC0E908C34FF0400CC0F2C8
:1052E0005401C0E9062EC362C0F868C0C366C0F8A6
:1052F000071044F24751C0F25201C0F8031044F2C3
:105300005351C4F2477101602021C0E91C338171FF
:1053100080BD000070B540F2501EC2F2000E9EF833
:1053200000308C46BBBB032148F2AB430026C0F6DD
:10533000000340F2F814CEF82860CEE904110EF113
:105340001801C2F200044FF4806578C140F20711E1
:10535000C2F200010131CEE9183145F25241402438
:10536000C0F25401CEF82C60CEF86840CEF86C60E4
:10537000CEF8071044F24751C0F25201CEF80310A4
:1053800044F25351C4F24771CEF800102021CEE907
:105390001C668EF80610EFF311844FF0200181F3A4
:1053A0001188614600F004F884F3118870BD000094
:1053B0002DE9F047924640F2501200EB4000C2F255
:1053C000000202EBC002D06A0D46022802F1180961
:1053D0002CD001281ED0002840F08A80D9F80C403B
:1053E000D9F81000A0427BD9E14308445045C0F0F1
:1053F0007F80D9E901010E1BB24520445ED22946C7
:105400005246FAF7F7FE04EB0A00C9F80C005046C2
:10541000BDE8F087D9F80C40D9F81010A14233D973
:10542000E243D9F80800114433E000BFD9F80C700A
:1054300054464FF0000A00BFD9F81010D9F8080000
:10544000FA43B9421144A0EB070698BF0144B142A8
:1054500038BF0E46D9F80400A64228BF2646384475
:1054600029463246FAF7C6FED9F80800F119A41BFE
:105470000F1AB244354418BF0F46002CC9F80C70FF
:10548000DAD15046BDE8F087D9F80800E24311446C
:105490000144514538BF8A46061BD9F80400B2457D
:1054A00020440BD229465246FAF7A4FE0AEB040028
:1054B000C9F80C005046BDE8F08700BF29463246C7
:1054C000FAF798FEAAEB0608D9F80400A919424693
:1054D000FAF790FE5046C9F80C80BDE8F08700BF8F
:1054E000D9F80810E243104408445045BFF481AF96
:1054F0000020BDE8F087000082B080B582B0CDE921
:10550000042304AA019201AA00F006F802B0BDE843
:10551000804002B0704700002DE9F04F9BB09046EC
:1055200006AA16924022002504901A900DF15809FF
:1055300000208A461792CDE918550FE0011DC8F8E2
:105540000010016848463B46CDE9006B00F058FB6F
:1055500019985146B0F1FF3F40F3F6821AF8013B2B
:10556000252B1BD0002B00F0DF82DDE91720411C2A
:10557000914207D8169A13541998179A0130199026
:10558000084618919042E3D116991A98FFF7C2FE87
:105590001899884240F0C2821895D9E701F1040AAF
:1055A0004FF0000B1AF8031CA1F123030D2B00F29E
:1055B0005F800222DFE803F0085C5C5C5C5C5C5CA2
:1055C0000C5C0A5C5C0D00BF082202E0012200E0D6
:1055D00004221AF8021C4BEA020BA1F123030D2B43
:1055E00000F28C800222DFE803F00789898989892B
:1055F00089890B890989890C082202E0012200E0CF
:1056000004221AF8011C4BEA020BA1F123030D2B13
:1056100000F280800222DFE803F0077D7D7D7D7D42
:105620007D7D0B7D097D7D0C082202E0012200E0DA
:1056300004229AF800104BEA020BA1F123030D2B70
:105640005ED80222DFE803F00E5C5C5C5C5C5C5CB4
:10565000105C125C5C0800BF4BEA020B0AF1040A02
:10566000A0E700BF0822F7E70422F5E70122F3E7ED
:10567000AAF1030AA1F13A0212F10A0F45D30AF185
:10568000020A002606EB860201EB42021AF8011C10
:10569000A2F13006A1F13A0313F10A0F42D306EB4F
:1056A000860201EB42029AF80010A2F13006A1F145
:1056B0003A0313F10A0F37D306EB860201EB4202DD
:1056C0009AF80110A2F13006A1F13A0313F10A0F82
:1056D00076D306EB860201EB42029AF80210A2F1A1
:1056E0003006A1F13A0212F10A0F0AF1040AC9D2F6
:1056F000AAF1020A2E2919D00AE000BFAAF1020A73
:10570000A1F13A0212F10A0FB9D200262E290DD0CA
:10571000002761E0AAF1010AA1F13A0212F10A0F91
:10572000F3D3ACE7AAF1010A2E29F1D1524612F8BF
:10573000011FA1F13A0313F10A0F03D20027924689
:105740004AE000BF0AF1020A002700BF9AF80020D1
:1057500007EB870301EB4301A2F13A0313F10A0FB0
:10576000A1F1300738D39AF8011007EB870302EB59
:105770004302A1F13A0313F10A0FA2F1300725D336
:105780009AF8022007EB870301EB4301A2F13A03E9
:1057900013F10A0FA1F130071CD307EB870102EBCD
:1057A00041029AF80310A2F13007A1F13A0212F176
:1057B0000B0F0AF1040AC9D8AAF1010A0CE000BFD4
:1057C0000AF1010A2E29B1D0A2E700BF0AF1010AAD
:1057D00002E000BF0AF1020A9AF8001001F0FB0291
:1057E000682A43D19AF8011001F0FB02682A40F0C0
:1057F0004F809AF8021001F0FB02682A40F05080B6
:105800009AF803100AF1040A01F0FB02682AE3D0B7
:10581000A1F15802202A2FD8DFE802F01412121248
:1058200012121212121212184E1212121212121216
:10583000121212127E12128C124A1212140000BF9F
:1058400086E600BFD8F80000102277E6DDE91720D1
:10585000D8F80030411C1F1D9142C8F800703FF677
:1058600091AE1A68169B1A5486E600BF0AF1010A27
:10587000A1F15802202ACFD925297FF469AEDDE9AC
:105880001720411C91423FF67DAE169A252372E601
:105890000AF1020AA1F15802202ABDD9ECE700BFA3
:1058A0000AF1030AA1F15802202A7FF6B5AFE3E717
:1058B000D8F800000A2241E6D8F8001041F2597CDD
:1058C0000A1DC8F80020096848F29F640029C1F148
:1058D00000028E4648BF11460A2942F21075CDF2E9
:1058E000B71CC0F201040392CDF814804EDB4FF0D8
:1058F000020800BF642953D3B1F57A7F4AD3A94285
:105900004CD3A1FB0C23A1424FEA533108F1040808
:10591000F0D8A8F1010843E0D8F800001022011DDA
:10592000C8F800100168484608230827CDE900752B
:105930000CE600BFD8F800100A1DC8F800200C685B
:1059400008E000BF19981895B0F1FF3F04F1010479
:105950007FF7FEAD2778002F3FF4FAADDDE9172180
:105960004B1C934207D8169847541998179A013040
:105970001946189319909142E6D116991A98FFF793
:10598000C9FC18998842DDD0C8E000BF4FF001087B
:1059900006E000BF08F1010802E000BF08F10208BC
:1059A000474588BFB846744676B10021002C48BFF1
:1059B00001210BF0040241EA9201A6EB01095FEA22
:1059C0008B7506D42EE000BF4FF000095FEA8B759F
:1059D00028D53FBB002800F19B80B4F1FF3F4BDD91
:1059E0005FEA4B715BD5DDE917214B1C934208D868
:1059F00016982B2242541998179A0130189319902F
:105A00001946914249D116991A98FFF783FC1899C3
:105A1000884240F0838000201890199800283ED5D5
:105A200076E000BF5FEACB71D4D1B9F1000FD1D0DD
:105A3000A9F101064E4538BFC845CBD2DDE9172193
:105A40004B1C934208D81698202242541998179A52
:105A50000130194618931990914209D116991A9854
:105A6000FFF758FC1899884258D1199800211891CD
:105A70000028B146DCD54BE0DDE917214B1C9342F1
:105A800008D816982D2242541998179A01301946B1
:105A900018931990039C9142B5D0002838D4002D5A
:105AA0000CD416A821460A223B46CDE9009B81462C
:105AB00000F0A6F8DDF81480002549E50BF001019F
:105AC0003943EED1B9F1000FEBD0A9F101064E45F3
:105AD00038BFC845E5D2DDE917214B1C934208D8F1
