:020000040800F2
:10000000D8060020A5020008311C0008191B0008B2
:100010002D1C0008AD030008551C0008000000005E
:10002000000000000000000000000000391C000873
:10003000B103000800000000351C00083D1C00084A
:10004000BF020008BF020008BF020008BF0200088C
:10005000BF020008BF020008BF020008BF0200087C
:10006000BF020008BF020008BF020008BF0200086C
:10007000BF020008BF020008BF020008BF0200085C
:10008000BF02000800000000BF020008BF02000815
:10009000BF020008C1030008BF020008BF02000839
:1000A000BF020008BF020008BF020008BF0200082C
:1000B000BF020008BF020008BF020008BF0200081C
:1000C000BF020008BF020008BF020008BF0200080C
:1000D000BF020008BF020008BF020008BF020008FC
:1000E000BF020008BF020008BF020008BF020008EC
:1000F000BF020008BF020008BF02000800000000A5
:1001000000000000BF02000800000000BF0200085D
:10011000BF02000800000000BF020008BF02000884
:10012000BF020008BF020008BF020008BF020008AB
:10013000BF0200080000000000000000BF0200082D
:10014000BF020008BF02000800000000000000001D
:10015000000000000000000000000000000000009F
:10016000000000000000000000000000BF020008C6
:10017000BF020008000000000000000000000000B6
:1001800000000000BF0200080000000000000000A6
:10019000000000000000000000000000000000005F
:1001A0000000000000000000BF020008BF020008BD
:1001B000BF020008BF020008BF02000800000000E4
:1001C00000000000BF020008000000000000000066
:1001D000BF020008BF02000800F002F800F052F869
:1001E00014A696E8000CB244B344DA4501D100F0FD
:1001F00049F8BAE80F000FA696E83000A5EB040511
:1002000004EB0607AAEB0704A7F101074FEA15154F
:100210004FEA3414A4F10104AC4201D300F032F8E7
:1002200013F0010F18BFFB1A43F0010300F001F8AF
:10023000DBE71847401B0000601B0000103A24BF9A
:1002400078C878C1FAD8520724BF30C830C144BF3B
:1002500004680C6070470000704700000023002411
:1002600000250026103A28BF78C1FBD8520728BFC6
:1002700030C148BF0B6070471FB501F05DFD1FBD69
:1002800010B510BD00F058F81146FFF7F5FF01F06A
:10029000E3FC00F076F803B4FFF7F2FF03BC00F0D4
:1002A0007DF800000948804709480047FEE7FEE75F
:1002B000FEE7FEE7FEE7FEE7FEE7FEE7FEE7FEE716
:1002C00004480549054A064B70470000411C0008D8
:1002D000D9010008D8000020D8060020D80200204C
:1002E000D80200204FF0000200B51346944696460F
:1002F000203922BFA0E80C50A0E80C50B1F1200139
:10030000BFF4F7AF090728BFA0E80C5048BF0CC0E6
:100310005DF804EB890028BF40F8042B08BF704744
:1003200048BF20F8022B11F0804F18BF00F8012BB6
:100330007047704770477047754600F02BF8AE461F
:1003400005006946534620F00700854618B020B5E1
:10035000FFF7B6FFBDE820404FF000064FF0000762
:100360004FF000084FF0000BAC46ACE8C009ACE819
:10037000C009ACE8C009ACE8C00921F007018D460E
:10038000704710B50446AFF300802046BDE810402A
:10039000FFF781BF00487047100000200149182076
:1003A000ABBEFEE72600020070470000FEE700003B
:1003B00070470000EFF3108072B600BFFEE7000048
:1003C00040F27000C2F2000000F0D8B9B0B50446A7
:1003D00000F026FD054640F20000C2F20000406831
:1003E000611C18BF044400BF00F01AFD401BA0426E
:1003F000FAD3B0BD10B590F85C30013B012B69D841
:1004000000685FEA417ED0F858C00CF0010300D0CC
:100410001BB311F0380F02D01CF002041DD011F4F0
:10042000E07F02D01CF0040417D011F4F05F02D07A
:100430001CF0080411D011F4604F02D01CF010041D
:100440000BD011F4403F02D01CF0200405D011F471
:100450007C0F06D01CF0400403D1C46D44F00104AD
:10046000C465BEF1000F18BF002B3BD111F0380F4F
:1004700018BF1CF0020335D111F4E07F18BF1CF047
:1004800004032FD111F4F05F18BF1CF0080329D129
:1004900011F4604F18BF1CF0100323D111F4403F3A
:1004A00018BF1CF020031DD111F47C0F18BF1CF0E5
:1004B000400317D10B061BD4CB0504D5D0F8E03090
:1004C0001A43C0F8E02000F15402002013681943D9
:1004D000116010BD00F16002012002211368194370
:1004E000116010BDC36D43F00203C3650B06E3D575
:1004F000D0F8DC301343C0F8DC30CB05DED4E2E7C3
:1005000090F85C30022B17D12DE9F041D0F800E0D3
:10051000DEF8C4309B0215D4DEF8C430D1E9007493
:100520008E680D69C3F3014CA4B145EA0703334358
:1005300043F0804812E000BF016E41F008010166FF
:1005400001207047016E41F4007101660120BDE891
:10055000F08100BF45EA874343EA060801F114072A
:10056000F0CF46EA07663543CB682C43456D0CEB6C
:10057000CC0644EA034305EBC60445F836806360C5
:10058000CB6883B141F6625504F1080303320024BD
:10059000C0F60005161956F8036C1E51CE680434D7
:1005A000AE5DB442F6D3012101FA0CF1CEF8CC10C5
:1005B00081650020BDE8F08190F85C20013A012AB5
:1005C00014D880B50A68BAB101F1040E9EE804504F
:1005D000D1E90431406C43EA4E7E41EA8C7100EB74
:1005E000C20340F832E05960002080BD016E41F046
:1005F0000201016601207047D1E90323D1E901CE50
:10060000D206496942EA8E7242EA0342006C114303
:1006100040F82C10002080BD70470000704700009B
:100620002DE9F04390F85C70022F0FD10468402947
:10063000A44613D15CF8907F3F071BD0DCF8007014
:100640004FF0480EFF0113D509251CE0016E41F063
:10065000080101660120BDE8F08300BF5CF8987FC7
:100660003F0707D0DCF800704FF04C0EFF0109D4B3
:1006700000240DE0016E41F4807101660120BDE8A7
:10068000F08300BF0825D4F88040EC4004F001045A
:10069000DCF80070C7F3012707EB040C50F80E706C
:1006A0000CEBCC0657F8365007EBC60E15F080451C
:1006B000556057F8365025F0604408BFC5F38A44AA
:1006C000146057F8365005F00055956057F83640DD
:1006D00004F000441461BEF80440D461BEF8064042
:1006E00014F00F04D460DEF8044004F48014546164
:1006F000DEF8044004F4001494619EF8074004F00E
:100700007F041462DEF804404FEAD474546228D0A7
:1007100041F662580024C0F6000800BF0EEB040644
:10072000377A651C1F55D76818F80770BD4218D274
:10073000757A1F197D70D56818F80590A51C4D4570
:100740000FD2B57ABD70D56818F80590E51C4D45F7
:1007500007D2F57A0434FD70D56818F80550AC421C
:10076000DCD3006840290CBFC0F894C0C0F89CC01E
:100770000020BDE8F0830000704700002DE9F04F35
:1007800085B004460068016D426DD0F850B0456DEB
:10079000076D466D036D01EA02080493436D0393F0
:1007A000036D0293436D0193D0F854A0D0F850909C
:1007B0005FEA496307D51AF0400104D04021016582
:1007C0002046FFF7D9FF0BEA050B5FEAC95008F492
:1007D000E0550ED51AF480700BD02068D0F8D810F0
:1007E000D0F8E02011404FF480720265204600F0FE
:1007F00027FA37400BF007062DB12068294605651A
:10080000204600F021FA07F038052EB12068314665
:100810000665204600F0EEF92DB1206829460565F1
:10082000204600F0F1F95FEA895009D51AF400700A
:1008300006D020684FF400710165204600F006FAEA
:100840005FEA09600DD51AF080000AD02068D0F860
:10085000D410D0F8DC20114080220265204600F040
:10086000F1F95FEA894009D51AF4005006D02068F2
:100870004FF400510165204600F0E0F95FEA0940BD
:10088000DDE9011000EA010509D51AF4004006D09F
:1008900020684FF400410165204600F0CDF9DDE904
:1008A000031008405FEA494105F460210AD51AF4B3
:1008B000804207D022684FF480431365226E42F0D5
:1008C0008002226600F4710521B12068016520468E
:1008D000FFF7A4FE25B120680565206E2843206639
:1008E000206E28B1204605B0BDE8F04FFFF794BE5A
:1008F00005B0BDE8F08F0000002804BF012070475C
:10090000F0B581B0044690F85C0028B9002084F866
:100910005D00204600F018F92068816921F010017F
:10092000816100F07DFA054620688169090705D5D7
:1009300000F076FA401B0B28F6D310E0816941F0F5
:100940000101816100F06CFA054600BF21688869E9
:10095000C0070FD100F064FA401B0B28F6D3206EBD
:10096000032140F001002066012084F85C1001B0F2
:10097000F0BD00BF4AF200408A69C4F20000A0F551
:10098000804342F0020299428A6105D162684CF2CA
:100990000013CFF6FF73C250227C8B69012A23F02B
:1009A000400318BF40338B61627C8B69012A23F4BA
:1009B000804308BF03F580438B61A27C8B69012AC9
:1009C00023F4805318BF03F580538B618D69D4E9FC
:1009D00002E325F4407545EA0E058D618D6925F029
:1009E000A4058D610D6925F010050D61A3B1012BE2
:1009F0000ED0022B09D08D69032B45F080058D6147
:100A00000D6945F010050D6106D1202301E000BFFE
:100A100004238D692B438B61D4E90535D4E907267E
:100A20006FF0FF0C013D0CEB0222002742EA456209
:100A3000751ECFF6FF772A4307EB03431A43BEF533
:100A4000407FCA6110D104F124064CCE256B013BD6
:100A50000CEB062633436FF00F0606EB0516334307
:100A600007EB02421A43CA6004F134078CCFD1F875
:100A7000C0603743C1F8C0702064D1F880704AF27A
:100A8000704627F4F817C4F2000647EA0242C1F89C
:100A900080206664D1F8802022F0706242EA03620E
:100AA000C1F8802006F14001A16406F58C71E16473
:100AB00006F5F871216506F502716165002106F5FC
:100AC000037200BFC0E90011C0E90211C0E90411BE
:100AD000C0E90611C0E90811C0E90A11C0E90C110A
:100AE000C0E90E11C0E91011C0E91211C0E91411DA
:100AF000C0E91611C0E91811C0E91A11C0E91C11AA
:100B0000C0E91E11C0E92011C0E92211C0E9241179
:100B1000C0E92611C0E92811C0E92A11C0E92C1149
:100B2000C0E92E11C0E93011C0E93211C0F8D0106F
:100B3000904200F1D400C5D300200121A0652066B9
:100B400084F85C1001B0F0BD10B598B004460020E8
:100B50001790CDE91500CDE9130002A8043040211B
:100B6000FFF7C0FB206846F20041C4F20001884252
:100B700002D018B010BD00BF4FF4805002904FF06B
:100B800000700E9002A800F091FA002818BFFFF73D
:100B900011FC41F24C00C4F20200C16841F0007146
:100BA000C160C16801F0007101910199016841F0D3
:100BB00001010160006813A900F001000190019893
:100BC0004FF4C05013900220149000201590032081
:100BD0001690092017904FF0904000F039F815203A
:100BE0000021002200F094F9152000F07FF918B0E0
:100BF00010BD000080B58CB06A460AAB4021FFF7FB
:100C00000FFD0CB080BD00007047000090F85C1034
:100C100001290BD1022180F85C1001688A6922F059
:100C200001028A610021016600207047016E41F0D7
:100C30000401016601207047704700007047000002
:100C400070470000704700007047000070470000C8
:100C50002DE9F04F83B00E68002E00F0CF8000F138
:100C6000200241F2004C009200F13847C4F6000C1B
:100C700006224FEAB725604508BF0522052D38BF7B
:100C80004FEAB722002500274FF0000801920AE042
:100C90000E6808F1010836FA08F207F1020705F1BB
:100CA000040500F0AB80012202FA08FE16EA0E09E4
:100CB000EED0D1F804C003220CF0030BABF1010617
:100CC00002FA07F4012E6FEA040A11D88468CE688C
:100CD00004EA0A04BE4034438460446824EA0E06F1
:100CE000CCF3001404FA08F42643466006E000BF83
:100CF000BBF1030F02D14FF0030B21E0C6688C68F3
:100D000006EA0A06BC402643BBF1020FC66017D1B3
:100D10006FF00302009B02EA580605F01C020F2444
:100D200053F806C004FA02FE0C692CEA0E0C04FA11
:100D300002F242EA0C029A51D1F804C00CF0030B03
:100D400002680BFA07F302EA0A021A431CF4403F56
:100D500002609DD041F26003C4F202031A6840F2BF
:100D6000004E42F001021A601A68C4F2010E02F04D
:100D700001020292029A28F003024FF6084C7244D4
:100D8000CFF6FF7C52F80C3005F00C060F24B4406F
:100D9000A343019C04FA06F6334342F80C30DEF814
:100DA00008204B6842EA090640F20C4CDC0258BFAE
:100DB00022EA0906CEF80860C4F2010CDCF8002033
:100DC0009C0242EA090658BF22EA0906CCF80060F4
:100DD000DEF804209C0342EA090658BF22EA09060D
:100DE000CEF80460DEF80020DB0342EA090658BFB3
:100DF00022EA0906CEF800604AE700BF03B0BDE86A
:100E0000F08F0000426902EA0103914341EA034185
:100E1000816170471823002A08BF2823C1507047FA
:100E200040F2D400C2F200000068704740F20000B7
:100E300040F2D401C2F20000C2F2000140680A6828
:100E4000104408607047000080B5032000F08CF863
:100E50000F2000F009F800281CBF012080BD00F021
:100E60002BF8002080BD0000B0B540F20005C2F2B2
:100E700000056968F1B1044640F20800C2F20000C2
:100E80004FF47A720068B2FBF1F1B0FBF1F000F0C0
:100E90002DFE01460F2C4FF001000AD8002918BF83
:100EA000B0BD4FF0FF302146002200F031F80020A5
:100EB0002C60B0BD0120B0BD82B041F25800C4F238
:100EC0000200816841F001018160816801F0010147
:100ED00001910199016841F080510160006800F0C2
:100EE00080500090009802B000F0D6B8002848BFAB
:100EF000704700F01F01012202FA01F11C2202EAF0
:100F0000D0004EF20012CEF2000281507047000075
:100F100010B54EF60C5CCEF2000CDCF80030C3F3DA
:100F2000022E8EF00704042C28BF0424BEF1030314
:100F30004FF0FF3E0EFA04F438BF0023A14399405E
:100F40000EFA03F39A43114300F00F0200F16043DD
:100F50000901043A03F564436244002848BF02F1E2
:100F60000C03197010BD00004EF60C51CEF20001BA
:100F70000A684FF6FF031A4060F30A2242F08060CD
:100F800040F0FD700860704747F21401C4F20001A0
:100F900051F8142CB0F5007F3CD0002874D1C86EF5
:100FA00002F4C06220F48070B2F5806FC8662FD161
:100FB00051F8140C012262F34A2041F8140C40F25B
:100FC0000800C2F200000068322250434DF68362EE
:100FD000C4F21B32A0FB0202900C00BF0A6852054B
:100FE00011D5421C0FD00A6852050CD558B10A68B9
:100FF000520508D5012806D00A68520503D50228F3
:10100000A0F10400EAD10868400544BF03207047FE
:1010100000207047C86E02F4C06240F48070B2F5E0
:10102000806FC866F4D151F8140C012262F34A2093
:1010300041F8140C40F20800C2F2000000683222AD
:1010400050434DF68362C4F21B32A0FB0202900CA7
:101050000A68520511D5421C0FD00A6852050CD5FA
:1010600058B10A68520508D5012806D00A68520509
:1010700003D50228A0F10400EAD10868400544BF66
:1010800003207047C4E700BF022060F34A2241F802
:10109000142C00207047000047F20800C4F2000042
:1010A000016841F480410160704700002DE9F04182
:1010B00082B00446807841F288060007C4F2020636
:1010C00002D400202FE000BF56F8300C5FEAC008C1
:1010D0000BD456F8300C40F0805046F8300C56F8DF
:1010E000300C00F080500190019847F20007C4F2E4
:1010F0000007386840F480703860FFF791FE0546BD
:101100003868C00500F1D680FFF78AFE401B022830
:10111000F6D90320B8F1000F05D456F8301C21F0A1
:10112000805146F8301C2168CA0713D18A0719D4A8
:101130004A071FD40A0725D48A062BD44A0631D47D
:101140000A0637D4CA053DD48A0543D44A0549D492
:1011500057E000BF3268636822F003021A4332602E
:101160008A07E5D53268A36822F00C021A43326080
:101170004A07DFD53268E36822F030021A43326052
:101180000A07D9D53268236922F0C0021A433260B7
:101190008A06D3D53268636922F440621A4332600A
:1011A0004A06CDD53268A36922F440521A43326010
:1011B0000A06C7D53268E36922F440421A43326016
:1011C000CA05C1D53268236A22F440321A4332601C
:1011D0008A05BBD53268636A22F440221A43326022
:1011E0004A050ED53268A36A22F440121A43B3F5B9
:1011F000801F326005D156F87C2C42F4801246F8EC
:101200007C2C0A050ED53268E36A22F440021A43A8
:10121000B3F5800F326005D156F87C2C42F4801271
:1012200046F87C2CCA040ED53268236B22F040723B
:101230001A43B3F1807F326005D156F87C2C42F41A
:10124000801246F87C2C8A040ED53268636B22F03B
:1012500040621A43B3F1006F326005D156F87C2C1E
:1012600042F4801246F87C2C4A040ED53268A36BF7
:1012700022F040621A43B3F1006F326005D156F894
:101280007C2C42F4801246F87C2C09040ED531687F
:10129000E26B21F040511143B2F1805F316005D122
:1012A00056F87C1C41F4803146F87C1C02B0BDE845
:1012B000F08100BFB06810F4407010D0216C8842FB
:1012C0000BD0B068B16820F4407041F48031B16057
:1012D000B16821F48031B160B060C0070CD1B06852
:1012E000216C20F440700843B0600020B8F1000F7A
:1012F0003FF519AF11E700BFFFF792FD054641F238
:10130000883700BFB0688007E9D4FFF789FD401B2C
:10131000B842F7D9FDE600002DE9F047002863D078
:1013200042F2000AC4F2020A0446DAF800000D464E
:1013300000F00F0081420CD9DAF8000020F00F0015
:101340002843CAF80000DAF8000000F00F00A842B5
:101350004AD1216841F20808C807C4F2020803D143
:10136000880740F1D080B5E0606858F8082C022862
:1013700038D003283CD1920136D5D8F80420D8F8CB
:10138000043042F20046C3F3031302F00302D8F81C
:1013900004700133C0F2F406032A04BF41F20026B0
:1013A000C0F27A06B6FBF3F2D8F80430C7F306278A
:1013B0007A43C3F34163022707EB4303B2FBF3F223
:1013C0004BF20043C0F2C4439A4259D9D8F80020E6
:1013D00012F0F00F49D0890752D5A16800294FD1EA
:1013E00043E000BF910305D40120BDE8F08700BFB2
:1013F0005105F9D5D8F8001001F00C0104293FD0AF
:10140000D8F8001001F00C01082939D0D8F80010E4
:1014100001F00C010C2933D1D8F80410D8F80420BD
:1014200042F20047C2F3031201F00301D8F804307E
:101430000132C0F2F407032904BF41F20027C0F2D1
:101440007A07B7FBF2F1D8F80420C3F30623594317
:10145000C2F34162022303EB4202B1FBF2F14BF211
:101460000042C0F2C44291420AD9D8F800100822C2
:1014700062F307114FF00109C8F8001002E000BF45
:101480004FF00009D8F8001021F003010843C8F814
:101490000000FFF7C5FC064641F28837D8F8000087
:1014A000616800F00C00B0EB810F07D0FFF7B8FCCB
:1014B000801BB842F2D90320BDE8F0872168880775
:1014C00008D4B9F1000F1ED0D8F8000020F0F000C9
:1014D00017E000BF480705D5D8F8000040F4E060E9
:1014E000C8F80000080706D5D8F80000072262F304
:1014F0000D20C8F80000D8F80000A26820F0F00025
:101500001043C8F80000DAF8000000F00F00854230
:101510001BD2DAF8000020F00F002843CAF80000C0
:10152000FFF77EFC064641F2883700BFDAF800007C
:1015300000F00F00A84207D0FFF772FC801BB842F2
:10154000F4D90320BDE8F0872168480707D5D8F80B
:101550000000E26820F4E0601043C8F800000807CB
:1015600008D5D8F80000216920F4605040EAC10095
:10157000C8F80000D8F8000042F20041C0F2F401BF
:1015800000F00C00042808462DD0D8F8000000F028
:101590000C00082841F20020C0F27A0023D0D8F8CD
:1015A000002002F00C020C2A1CD1D8F80420D8F834
:1015B000043002F00302C3F30313D8F804700133BC
:1015C000032A08BF0146B1FBF3F0D8F80410C7F3B3
:1015D0000627C1F341610222784302EB4101B0FBCF
:1015E000F1F000E00020D8F8001041F65252C1F3AB
:1015F0000311C0F60002515C40F2080201F01F0125
:1016000020FA01F140F20000C2F200000068C2F2CC
:1016100000021160BDE8F047FFF726BC002804BFB8
:10162000012070472DE9F04182B00446007841F274
:101630000006C007C4F202061ED1207880073DD400
:101640002078000764D42078400700F18780207854
:10165000800600F1D980E569002D00F04282B06873
:1016600000F00C000C2840F03181012D40F08E81FB
:10167000012002B0BDE8F081B06800F00C01F06814
:10168000082961D0032281F00C0122EA00000844FD
:10169000B0FA80F0400957D161683068B1F5803FF9
:1016A00007D0B1F5A02F40F0E38040F480203060F7
:1016B000306840F480303060E4E000BFB068F1682A
:1016C00000F00C00042871D001F0030180F00C0040
:1016D00081F002010844B0FA80F0400966D1E16867
:1016E0003068002900F0E08040F480703060FFF73F
:1016F00097FB05463068400500F10A81FFF790FB33
:10170000401B0228F6D9032002B0BDE8F08100BFDB
:101710006169D6F89400002900F0948040F001003F
:10172000C6F89400FFF77CFB054600BFD6F894008E
:1017300080073FF588AFFFF773FB401B0228F5D900
:10174000032002B0BDE8F081306880037FF575AFFB
:10175000606800287FF471AF3EE000BFB06D5FEAC3
:10176000C00808D4B06D40F08050B065B06D00F096
:1017700080500190019847F20007C4F200073868D2
:10178000C0052DD4386840F480703860FFF748FBFE
:10179000054600BF3868C00522D4FFF741FB401B57
:1017A0000228F7D9032002B0BDE8F0813068400577
:1017B00001D5E06880B17068216920F0FE4040EA00
:1017C0000160706040F20000C2F200000068FFF7A4
:1017D0004BFB00283FF434AF012002B0BDE8F0819C
:1017E000A168D6F89000012908D0052940F0AE8004
:1017F00040F00400C6F89000D6F8900040F00100D8
:10180000C6F89000AEE000BFA169D6F898000029A4
:1018100000F0868040F00100C6F89800FFF700FB5A
:10182000054600BFD6F8980080073FF514AFFFF7D4
:10183000F7FA401B02284FF00300F3D902B0BDE8CD
:10184000F08100BF20F00100C6F89400FFF7E8FA2D
:10185000054600BFD6F8940080077FF5F4AEFFF789
:10186000DFFA401B0228F5D9032002B0BDE8F08161
:1018700020F4803030603068002920F4802030600F
:1018800000F0BE80FFF7CCFA054600BF3068800349
:101890003FF5D3AEFFF7C4FA401B6428F6D9032006
:1018A00002B0BDE8F08100BF20F480703060FFF727
:1018B000B7FA0546306840057FF5C2AEFFF7B0FACB
:1018C000401B02284FF00300F4D9B7E7306820F03E
:1018D00080703060FFF7A4FA022D05460CD100BFDE
:1018E0003068800140F1B880FFF79AFA401B022867
:1018F0004FF00300F4D9A1E73068800140F1EA809D
:10190000FFF78EFA401B02284FF00300F4D995E749
:101910007068216920F0FE4040EA016070608FE647
:1019200020F00100C6F89800FFF77AFA054600BFDC
:10193000D6F8980080077FF58EAEFFF771FA401B4E
:1019400002284FF00300F3D978E700BF20F0010030
:10195000C6F89000D6F89000002920F00400C6F8E0
:1019600090005DD0FFF75CFA054641F2883700BF72
:10197000D6F89000800765D4FFF752FA401BB842B2
:10198000F6D9032002B0BDE8F08100BFF068216AFB
:1019900000F003028A427FF41FAF626A6FF00F0308
:1019A00000F0F00103EB021291427FF415AFA16A3F
:1019B00000F4FE42B2EB012F7FF40EAFE16A00F0BB
:1019C0007842B2EBC16F7FF407AF226B0023CFF6F2
:1019D000E07303EA025200F4C001A2F50012914242
:1019E0007FF4FAAE616B4FF07E4202EA016100F0D3
:1019F000C06001F17E4188427FF4EEAE71E000BF2D
:101A0000FFF70EFA054600BF306880037FF515AE7C
:101A1000FFF706FA401B64284FF00300F4D90DE7E6
:101A2000FFF7FEF9054641F2883700BFD6F890006F
:101A3000800707D5FFF7F4F9401BB8424FF00300C9
:101A4000F4D9FBE6B8F1000F3FF501AEB06D20F020
:101A50008050B065FBE500BFF06848F20C01C0F2B1
:101A60009F1104F1200700EA010C8ECF6FF00F00E8
:101A7000D4E90C5400EB02100022CFF6E07241EAE8
:101A80000C0102EA05520843A2F500124FF07E4510
:101A900040EA032005EA0465104305F17E4540EA6B
:101AA000C7602843F060306840F080703060F068B4
:101AB00040F08070F060FFF7B3F9044630688001B1
:101AC0000FD4FFF7ADF9001B02284FF00300F5D942
:101AD000B4E600BFF0684FF6FC71CFF6EE61084047
:101AE000F060002002B0BDE8F0810000411E00203F
:101AF000B0EB116F1CBF012070474EF21002CEF206
:101B0000000251604EF62351CEF20001F0230B701B
:101B10000721906011607047FEE70000B0B586B005
:101B200040F2700046F20041C2F20000C4F200012F
:101B30000024C0E9001401250A210C22C0E9051582
:101B400000F11C01C0E902440582847404232CC105
:101B5000C0E90A55C0E90C55C0E90E44FEF7CCFEB9
:101B6000002818BFFEF726FC40F2FF70059040F2F7
:101B70007000C2F200006946CDE90044CDE902459B
:101B80000494FEF719FD002818BFFEF713FC40F27D
:101B90007000C2F20000FFF739F8002818BFFEF706
:101BA00009FC40F27000C2F2000001210022FEF7A1
:101BB00021FC002818BFFEF7FDFB06B0B0BD0000F9
:101BC00070B586B0002541F24C000595CDE903556E
:101BD000CDE90155C4F20200016840F2004441F031
:101BE000010101600168C4F6000401F001010091E7
:101BF00000990168002241F00201016000684FF481
:101C0000007100F002000090009820464FF400762A
:101C1000FFF700F90120CDE9020501A92046019650
:101C20000495FFF715F806B070BD0000FEE7000050
:101C3000FEE700007047000070470000FFF7F6B8AD
:101C40004EF68850CEF20000016841F47001016048
:101C500070470000FEE7000094B0FFF7F5F800259C
:101C60000020CDE90B55CDE90955CDE90755FFF722
:101C70008BF94FF48071099140210A9104210220CF
:101C80000F91552106AC0690CDE90D00CDE910105D
:101C9000CDE912002046FFF7C1FC28B1EFF3108018
:101CA00072B600BFFEE700BF0F2000900320CDE911
:101CB000010568460421CDE90355FFF72DFB28B146
:101CC000EFF3108072B600BFFEE700BFFFF778FFAA
:101CD000FFF724FF40F2012A40F2700540F200476E
:101CE0001034C0F2034A40F2231B4FF000084FF0BB
:101CF0000809C2F200056E46C4F6000740F205600E
:101D0000C0F60700CDE900A0284606A93246CDE975
:101D100006B8CDE90889C4E90088C4E90288C4F896
:101D20001080FEF7EDFB38464FF40071FFF76AF8BC
:101D30006420FEF74BFBE1E7F1EE100A4FF6FF716E
:101D4000C0F2C03120EA010040F04070E1EE100A1C
:101D500070470000000000000000010203040607B5
:101D600008090001020304050607080C10141820D6
:101D700030400000981D0008000000201000000006
:101D80003C020008A81D000810000020C806000042
:101D90005C020008000000001000000001000000CC
:081DA0000024F4000000000023
:04000005080001D915
:00000001FF
